{
  "_format": "hh-sol-artifact-1",
  "contractName": "PaymentProcessor",
  "sourceName": "contracts/PaymentProcessor.sol",
  "abi": [
    {
      "inputs": [
        {
          "internalType": "address",
          "name": "_pyusdToken",
          "type": "address"
        },
        {
          "internalType": "address",
          "name": "_feeRecipient",
          "type": "address"
        }
      ],
      "stateMutability": "nonpayable",
      "type": "constructor"
    },
    {
      "inputs": [],
      "name": "EnforcedPause",
      "type": "error"
    },
    {
      "inputs": [],
      "name": "ExpectedPause",
      "type": "error"
    },
    {
      "inputs": [
        {
          "internalType": "address",
          "name": "owner",
          "type": "address"
        }
      ],
      "name": "OwnableInvalidOwner",
      "type": "error"
    },
    {
      "inputs": [
        {
          "internalType": "address",
          "name": "account",
          "type": "address"
        }
      ],
      "name": "OwnableUnauthorizedAccount",
      "type": "error"
    },
    {
      "inputs": [],
      "name": "ReentrancyGuardReentrantCall",
      "type": "error"
    },
    {
      "anonymous": false,
      "inputs": [
        {
          "indexed": true,
          "internalType": "address",
          "name": "restaurant",
          "type": "address"
        },
        {
          "indexed": false,
          "internalType": "uint256",
          "name": "amount",
          "type": "uint256"
        },
        {
          "indexed": false,
          "internalType": "uint256",
          "name": "timestamp",
          "type": "uint256"
        }
      ],
      "name": "FundsWithdrawn",
      "type": "event"
    },
    {
      "anonymous": false,
      "inputs": [
        {
          "indexed": true,
          "internalType": "address",
          "name": "previousOwner",
          "type": "address"
        },
        {
          "indexed": true,
          "internalType": "address",
          "name": "newOwner",
          "type": "address"
        }
      ],
      "name": "OwnershipTransferred",
      "type": "event"
    },
    {
      "anonymous": false,
      "inputs": [
        {
          "indexed": false,
          "internalType": "address",
          "name": "account",
          "type": "address"
        }
      ],
      "name": "Paused",
      "type": "event"
    },
    {
      "anonymous": false,
      "inputs": [
        {
          "indexed": true,
          "internalType": "address",
          "name": "customer",
          "type": "address"
        },
        {
          "indexed": true,
          "internalType": "address",
          "name": "restaurant",
          "type": "address"
        },
        {
          "indexed": true,
          "internalType": "uint256",
          "name": "billId",
          "type": "uint256"
        },
        {
          "indexed": false,
          "internalType": "uint256",
          "name": "amount",
          "type": "uint256"
        },
        {
          "indexed": false,
          "internalType": "uint256",
          "name": "timestamp",
          "type": "uint256"
        }
      ],
      "name": "PaymentProcessed",
      "type": "event"
    },
    {
      "anonymous": false,
      "inputs": [
        {
          "indexed": true,
          "internalType": "address",
          "name": "restaurant",
          "type": "address"
        },
        {
          "indexed": false,
          "internalType": "string",
          "name": "name",
          "type": "string"
        },
        {
          "indexed": false,
          "internalType": "uint256",
          "name": "timestamp",
          "type": "uint256"
        }
      ],
      "name": "RestaurantRegistered",
      "type": "event"
    },
    {
      "anonymous": false,
      "inputs": [
        {
          "indexed": false,
          "internalType": "address",
          "name": "account",
          "type": "address"
        }
      ],
      "name": "Unpaused",
      "type": "event"
    },
    {
      "inputs": [],
      "name": "MAX_PLATFORM_FEE",
      "outputs": [
        {
          "internalType": "uint256",
          "name": "",
          "type": "uint256"
        }
      ],
      "stateMutability": "view",
      "type": "function"
    },
    {
      "inputs": [
        {
          "internalType": "address",
          "name": "",
          "type": "address"
        },
        {
          "internalType": "uint256",
          "name": "",
          "type": "uint256"
        }
      ],
      "name": "customerPayments",
      "outputs": [
        {
          "internalType": "uint256",
          "name": "",
          "type": "uint256"
        }
      ],
      "stateMutability": "view",
      "type": "function"
    },
    {
      "inputs": [
        {
          "internalType": "address",
          "name": "_restaurant",
          "type": "address"
        }
      ],
      "name": "deactivateRestaurant",
      "outputs": [],
      "stateMutability": "nonpayable",
      "type": "function"
    },
    {
      "inputs": [
        {
          "internalType": "address",
          "name": "_token",
          "type": "address"
        },
        {
          "internalType": "uint256",
          "name": "_amount",
          "type": "uint256"
        }
      ],
      "name": "emergencyWithdraw",
      "outputs": [],
      "stateMutability": "nonpayable",
      "type": "function"
    },
    {
      "inputs": [],
      "name": "feeRecipient",
      "outputs": [
        {
          "internalType": "address",
          "name": "",
          "type": "address"
        }
      ],
      "stateMutability": "view",
      "type": "function"
    },
    {
      "inputs": [
        {
          "internalType": "address",
          "name": "_customer",
          "type": "address"
        }
      ],
      "name": "getCustomerPayments",
      "outputs": [
        {
          "internalType": "uint256[]",
          "name": "",
          "type": "uint256[]"
        }
      ],
      "stateMutability": "view",
      "type": "function"
    },
    {
      "inputs": [
        {
          "internalType": "uint256",
          "name": "_billId",
          "type": "uint256"
        }
      ],
      "name": "getPayment",
      "outputs": [
        {
          "components": [
            {
              "internalType": "address",
              "name": "customer",
              "type": "address"
            },
            {
              "internalType": "address",
              "name": "restaurant",
              "type": "address"
            },
            {
              "internalType": "uint256",
              "name": "amount",
              "type": "uint256"
            },
            {
              "internalType": "uint256",
              "name": "timestamp",
              "type": "uint256"
            },
            {
              "internalType": "string",
              "name": "billDetails",
              "type": "string"
            }
          ],
          "internalType": "struct PaymentProcessor.Payment",
          "name": "",
          "type": "tuple"
        }
      ],
      "stateMutability": "view",
      "type": "function"
    },
    {
      "inputs": [
        {
          "internalType": "address",
          "name": "_restaurant",
          "type": "address"
        }
      ],
      "name": "getRestaurant",
      "outputs": [
        {
          "components": [
            {
              "internalType": "string",
              "name": "name",
              "type": "string"
            },
            {
              "internalType": "address",
              "name": "walletAddress",
              "type": "address"
            },
            {
              "internalType": "bool",
              "name": "isActive",
              "type": "bool"
            },
            {
              "internalType": "uint256",
              "name": "totalReceived",
              "type": "uint256"
            },
            {
              "internalType": "uint256",
              "name": "registeredAt",
              "type": "uint256"
            }
          ],
          "internalType": "struct PaymentProcessor.Restaurant",
          "name": "",
          "type": "tuple"
        }
      ],
      "stateMutability": "view",
      "type": "function"
    },
    {
      "inputs": [
        {
          "internalType": "address",
          "name": "_restaurant",
          "type": "address"
        }
      ],
      "name": "getRestaurantPayments",
      "outputs": [
        {
          "internalType": "uint256[]",
          "name": "",
          "type": "uint256[]"
        }
      ],
      "stateMutability": "view",
      "type": "function"
    },
    {
      "inputs": [],
      "name": "getStats",
      "outputs": [
        {
          "internalType": "uint256",
          "name": "totalPayments",
          "type": "uint256"
        },
        {
          "internalType": "uint256",
          "name": "totalVolume",
          "type": "uint256"
        },
        {
          "internalType": "uint256",
          "name": "currentFee",
          "type": "uint256"
        },
        {
          "internalType": "address",
          "name": "feeRecipientAddress",
          "type": "address"
        }
      ],
      "stateMutability": "view",
      "type": "function"
    },
    {
      "inputs": [],
      "name": "nextBillId",
      "outputs": [
        {
          "internalType": "uint256",
          "name": "",
          "type": "uint256"
        }
      ],
      "stateMutability": "view",
      "type": "function"
    },
    {
      "inputs": [],
      "name": "owner",
      "outputs": [
        {
          "internalType": "address",
          "name": "",
          "type": "address"
        }
      ],
      "stateMutability": "view",
      "type": "function"
    },
    {
      "inputs": [],
      "name": "pause",
      "outputs": [],
      "stateMutability": "nonpayable",
      "type": "function"
    },
    {
      "inputs": [],
      "name": "paused",
      "outputs": [
        {
          "internalType": "bool",
          "name": "",
          "type": "bool"
        }
      ],
      "stateMutability": "view",
      "type": "function"
    },
    {
      "inputs": [
        {
          "internalType": "uint256",
          "name": "",
          "type": "uint256"
        }
      ],
      "name": "payments",
      "outputs": [
        {
          "internalType": "address",
          "name": "customer",
          "type": "address"
        },
        {
          "internalType": "address",
          "name": "restaurant",
          "type": "address"
        },
        {
          "internalType": "uint256",
          "name": "amount",
          "type": "uint256"
        },
        {
          "internalType": "uint256",
          "name": "timestamp",
          "type": "uint256"
        },
        {
          "internalType": "string",
          "name": "billDetails",
          "type": "string"
        }
      ],
      "stateMutability": "view",
      "type": "function"
    },
    {
      "inputs": [],
      "name": "platformFee",
      "outputs": [
        {
          "internalType": "uint256",
          "name": "",
          "type": "uint256"
        }
      ],
      "stateMutability": "view",
      "type": "function"
    },
    {
      "inputs": [
        {
          "internalType": "address",
          "name": "_restaurant",
          "type": "address"
        },
        {
          "internalType": "uint256",
          "name": "_amount",
          "type": "uint256"
        },
        {
          "internalType": "string",
          "name": "_billDetails",
          "type": "string"
        }
      ],
      "name": "processPayment",
      "outputs": [],
      "stateMutability": "nonpayable",
      "type": "function"
    },
    {
      "inputs": [],
      "name": "pyusdToken",
      "outputs": [
        {
          "internalType": "contract IERC20",
          "name": "",
          "type": "address"
        }
      ],
      "stateMutability": "view",
      "type": "function"
    },
    {
      "inputs": [
        {
          "internalType": "address",
          "name": "_restaurant",
          "type": "address"
        },
        {
          "internalType": "string",
          "name": "_name",
          "type": "string"
        }
      ],
      "name": "registerRestaurant",
      "outputs": [],
      "stateMutability": "nonpayable",
      "type": "function"
    },
    {
      "inputs": [],
      "name": "renounceOwnership",
      "outputs": [],
      "stateMutability": "nonpayable",
      "type": "function"
    },
    {
      "inputs": [
        {
          "internalType": "address",
          "name": "",
          "type": "address"
        },
        {
          "internalType": "uint256",
          "name": "",
          "type": "uint256"
        }
      ],
      "name": "restaurantPayments",
      "outputs": [
        {
          "internalType": "uint256",
          "name": "",
          "type": "uint256"
        }
      ],
      "stateMutability": "view",
      "type": "function"
    },
    {
      "inputs": [
        {
          "internalType": "address",
          "name": "",
          "type": "address"
        }
      ],
      "name": "restaurants",
      "outputs": [
        {
          "internalType": "string",
          "name": "name",
          "type": "string"
        },
        {
          "internalType": "address",
          "name": "walletAddress",
          "type": "address"
        },
        {
          "internalType": "bool",
          "name": "isActive",
          "type": "bool"
        },
        {
          "internalType": "uint256",
          "name": "totalReceived",
          "type": "uint256"
        },
        {
          "internalType": "uint256",
          "name": "registeredAt",
          "type": "uint256"
        }
      ],
      "stateMutability": "view",
      "type": "function"
    },
    {
      "inputs": [
        {
          "internalType": "address",
          "name": "_newRecipient",
          "type": "address"
        }
      ],
      "name": "setFeeRecipient",
      "outputs": [],
      "stateMutability": "nonpayable",
      "type": "function"
    },
    {
      "inputs": [
        {
          "internalType": "uint256",
          "name": "_newFee",
          "type": "uint256"
        }
      ],
      "name": "setPlatformFee",
      "outputs": [],
      "stateMutability": "nonpayable",
      "type": "function"
    },
    {
      "inputs": [],
      "name": "totalPaymentsProcessed",
      "outputs": [
        {
          "internalType": "uint256",
          "name": "",
          "type": "uint256"
        }
      ],
      "stateMutability": "view",
      "type": "function"
    },
    {
      "inputs": [],
      "name": "totalVolumeProcessed",
      "outputs": [
        {
          "internalType": "uint256",
          "name": "",
          "type": "uint256"
        }
      ],
      "stateMutability": "view",
      "type": "function"
    },
    {
      "inputs": [
        {
          "internalType": "address",
          "name": "newOwner",
          "type": "address"
        }
      ],
      "name": "transferOwnership",
      "outputs": [],
      "stateMutability": "nonpayable",
      "type": "function"
    },
    {
      "inputs": [],
      "name": "unpause",
      "outputs": [],
      "stateMutability": "nonpayable",
      "type": "function"
    }
  ],
  "bytecode": "0x60a0604052600160075560fa600a553480156200001b57600080fd5b5060405162001c9d38038062001c9d8339810160408190526200003e91620001bc565b33806200006657604051631e4fbdf760e01b8152600060048201526024015b60405180910390fd5b62000071816200014f565b50600180556001600160a01b038216620000ce5760405162461bcd60e51b815260206004820152601560248201527f496e76616c69642050595553442061646472657373000000000000000000000060448201526064016200005d565b6001600160a01b038116620001265760405162461bcd60e51b815260206004820152601560248201527f496e76616c69642066656520726563697069656e74000000000000000000000060448201526064016200005d565b6001600160a01b03918216608052600b80546001600160a01b03191691909216179055620001f4565b600080546001600160a01b038381166001600160a01b0319831681178455604051919092169283917f8be0079c531659141344cd1fd0a4f28419497f9722a3daafe3b4186f6b6457e09190a35050565b80516001600160a01b0381168114620001b757600080fd5b919050565b60008060408385031215620001d057600080fd5b620001db836200019f565b9150620001eb602084016200019f565b90509250929050565b608051611a78620002256000396000818161033f015281816106b20152818161078b01526108730152611a786000f3fe608060405234801561001057600080fd5b50600436106101c45760003560e01c80638456cb59116100f9578063ade49fcb11610097578063d2fe091611610071578063d2fe0916146103e2578063dff4a5e8146103f5578063e74b981b14610415578063f2fde38b1461042857600080fd5b8063ade49fcb14610387578063c491b7b61461039a578063c59d4847146103ad57600080fd5b80638da5cb5b116100d35780638da5cb5b14610329578063917630091461033a57806395ccea6714610361578063ac9f56eb1461037457600080fd5b80638456cb59146102ea57806385099491146102f257806387d817891461030557600080fd5b80633998a6811161016657806351f5005e1161014057806351f5005e146102a35780635c975abb146102c35780635fcf6e19146102d9578063715018a6146102e257600080fd5b80633998a681146102675780633f4ba83a14610270578063469048401461027857600080fd5b806326232a2e116101a257806326232a2e1461021e5780632718c14f146102355780633280a8361461023e57806337e32d1d1461025e57600080fd5b806312e8e2c3146101c9578063236cd7dc146101de578063250cbca31461020b575b600080fd5b6101dc6101d73660046114bc565b61043b565b005b6101f16101ec3660046114f1565b61048e565b604051610202959493929190611559565b60405180910390f35b6101dc6102193660046115e2565b610554565b610227600a5481565b604051908152602001610202565b61022760095481565b61025161024c3660046114bc565b610b08565b604051610202919061163c565b61022760085481565b6102276103e881565b6101dc610c38565b600b5461028b906001600160a01b031681565b6040516001600160a01b039091168152602001610202565b6102b66102b13660046114f1565b610c4a565b6040516102029190611693565b60025460ff166040519015158152602001610202565b61022760075481565b6101dc610cb6565b6101dc610cc8565b6102276103003660046116d7565b610cd8565b6103186103133660046114bc565b610d09565b604051610202959493929190611701565b6000546001600160a01b031661028b565b61028b7f000000000000000000000000000000000000000000000000000000000000000081565b6101dc61036f3660046116d7565b610dcf565b6101dc6103823660046114f1565b610e6e565b6101dc610395366004611746565b610e9d565b6102b66103a83660046114f1565b6110d8565b600854600954600a54600b54604080519485526020850193909352918301526001600160a01b03166060820152608001610202565b6102276103f03660046116d7565b611142565b6104086104033660046114f1565b61115e565b6040516102029190611799565b6101dc6104233660046114f1565b61128f565b6101dc6104363660046114f1565b611301565b61044361133f565b6103e88111156104895760405162461bcd60e51b815260206004820152600c60248201526b08ccaca40e8dede40d0d2ced60a31b60448201526064015b60405180910390fd5b600a55565b6003602052600090815260409020805481906104a9906117f3565b80601f01602080910402602001604051908101604052809291908181526020018280546104d5906117f3565b80156105225780601f106104f757610100808354040283529160200191610522565b820191906000526020600020905b81548152906001019060200180831161050557829003601f168201915b505050506001830154600284015460039094015492936001600160a01b03821693600160a01b90920460ff1692509085565b61055c61136c565b610564611396565b6001600160a01b0384166000908152600360205260409020600101548490600160a01b900460ff166105cd5760405162461bcd60e51b8152602060048201526012602482015271125b9d985b1a59081c995cdd185d5c985b9d60721b6044820152606401610480565b6000841161061d5760405162461bcd60e51b815260206004820152601d60248201527f416d6f756e74206d7573742062652067726561746572207468616e20300000006044820152606401610480565b816106625760405162461bcd60e51b8152602060048201526015602482015274109a5b1b0819195d185a5b1cc81c995c5d5a5c9959605a1b6044820152606401610480565b6000612710600a54866106759190611843565b61067f9190611860565b9050600061068d8287611882565b6040516323b872dd60e01b8152336004820152306024820152604481018890529091507f00000000000000000000000000000000000000000000000000000000000000006001600160a01b0316906323b872dd906064016020604051808303816000875af1158015610703573d6000803e3d6000fd5b505050506040513d601f19601f820116820180604052508101906107279190611895565b6107655760405162461bcd60e51b815260206004820152600f60248201526e151c985b9cd9995c8819985a5b1959608a1b6044820152606401610480565b60405163a9059cbb60e01b81526001600160a01b038881166004830152602482018390527f0000000000000000000000000000000000000000000000000000000000000000169063a9059cbb906044016020604051808303816000875af11580156107d4573d6000803e3d6000fd5b505050506040513d601f19601f820116820180604052508101906107f89190611895565b6108445760405162461bcd60e51b815260206004820152601a60248201527f52657374617572616e74207472616e73666572206661696c65640000000000006044820152606401610480565b811561092457600b5460405163a9059cbb60e01b81526001600160a01b039182166004820152602481018490527f00000000000000000000000000000000000000000000000000000000000000009091169063a9059cbb906044016020604051808303816000875af11580156108be573d6000803e3d6000fd5b505050506040513d601f19601f820116820180604052508101906108e29190611895565b6109245760405162461bcd60e51b8152602060048201526013602482015272119959481d1c985b9cd9995c8819985a5b1959606a1b6044820152606401610480565b6007805460009182610935836118b7565b9190505590506040518060a00160405280336001600160a01b03168152602001896001600160a01b0316815260200188815260200142815260200187878080601f016020809104026020016040519081016040528093929190818152602001838380828437600092018290525093909452505083815260046020818152604092839020855181546001600160a01b03199081166001600160a01b0392831617835592870151600183018054909416911617909155918401516002830155606084015160038301556080840151919250820190610a119082611936565b5050336000908152600560209081526040808320805460018181018355918552838520018690556001600160a01b038d16808552600684528285208054928301815585528385209091018690558352600390915281206002018054859350909190610a7d9084906119f6565b909155505060088054906000610a92836118b7565b91905055508660096000828254610aa991906119f6565b90915550506040805188815242602082015282916001600160a01b038b169133917f72dd19d9bd6e3cdbe36ecaefc0cdd05baf431df4fbb3957e3781184ce70e394b910160405180910390a450505050610b0260018055565b50505050565b610b4c6040518060a0016040528060006001600160a01b0316815260200160006001600160a01b031681526020016000815260200160008152602001606081525090565b600082815260046020818152604092839020835160a08101855281546001600160a01b03908116825260018301541692810192909252600281015493820193909352600383015460608201529082018054919291608084019190610baf906117f3565b80601f0160208091040260200160405190810160405280929190818152602001828054610bdb906117f3565b8015610c285780601f10610bfd57610100808354040283529160200191610c28565b820191906000526020600020905b815481529060010190602001808311610c0b57829003601f168201915b5050505050815250509050919050565b610c4061133f565b610c486113ba565b565b6001600160a01b038116600090815260066020908152604091829020805483518184028101840190945280845260609392830182828015610caa57602002820191906000526020600020905b815481526020019060010190808311610c96575b50505050509050919050565b610cbe61133f565b610c48600061140c565b610cd061133f565b610c4861145c565b60066020528160005260406000208181548110610cf457600080fd5b90600052602060002001600091509150505481565b6004602081905260009182526040909120805460018201546002830154600384015494840180546001600160a01b039485169693909416949193610d4c906117f3565b80601f0160208091040260200160405190810160405280929190818152602001828054610d78906117f3565b8015610dc55780601f10610d9a57610100808354040283529160200191610dc5565b820191906000526020600020905b815481529060010190602001808311610da857829003601f168201915b5050505050905085565b610dd761133f565b816001600160a01b031663a9059cbb610df86000546001600160a01b031690565b6040516001600160e01b031960e084901b1681526001600160a01b039091166004820152602481018490526044016020604051808303816000875af1158015610e45573d6000803e3d6000fd5b505050506040513d601f19601f82011682018060405250810190610e699190611895565b505050565b610e7661133f565b6001600160a01b03166000908152600360205260409020600101805460ff60a01b19169055565b610ea561133f565b6001600160a01b038316610efb5760405162461bcd60e51b815260206004820152601a60248201527f496e76616c69642072657374617572616e7420616464726573730000000000006044820152606401610480565b80610f485760405162461bcd60e51b815260206004820152601860248201527f52657374617572616e74206e616d6520726571756972656400000000000000006044820152606401610480565b6001600160a01b038316600090815260036020526040902060010154600160a01b900460ff1615610fbb5760405162461bcd60e51b815260206004820152601d60248201527f52657374617572616e7420616c726561647920726567697374657265640000006044820152606401610480565b6040518060a0016040528083838080601f01602080910402602001604051908101604052809392919081815260200183838082843760009201829052509385525050506001600160a01b0386166020808401829052600160408086019190915260608501849052426080909501949094529082526003905220815181906110429082611936565b5060208201516001820180546040808601511515600160a01b026001600160a81b03199092166001600160a01b039485161791909117909155606084015160028401556080909301516003909201919091559051908416907fd827e82622fad9ae79927940eb29606c4695f01f399c10109a88e3e0d45808b7906110cb90859085904290611a09565b60405180910390a2505050565b6001600160a01b038116600090815260056020908152604091829020805483518184028101840190945280845260609392830182828015610caa5760200282019190600052602060002090815481526020019060010190808311610c965750505050509050919050565b60056020528160005260406000208181548110610cf457600080fd5b61119b6040518060a001604052806060815260200160006001600160a01b0316815260200160001515815260200160008152602001600081525090565b6001600160a01b03821660009081526003602052604090819020815160a081019092528054829082906111cd906117f3565b80601f01602080910402602001604051908101604052809291908181526020018280546111f9906117f3565b80156112465780601f1061121b57610100808354040283529160200191611246565b820191906000526020600020905b81548152906001019060200180831161122957829003601f168201915b505050918352505060018201546001600160a01b0381166020830152600160a01b900460ff16151560408201526002820154606082015260039091015460809091015292915050565b61129761133f565b6001600160a01b0381166112df5760405162461bcd60e51b815260206004820152600f60248201526e496e76616c6964206164647265737360881b6044820152606401610480565b600b80546001600160a01b0319166001600160a01b0392909216919091179055565b61130961133f565b6001600160a01b03811661133357604051631e4fbdf760e01b815260006004820152602401610480565b61133c8161140c565b50565b6000546001600160a01b03163314610c485760405163118cdaa760e01b8152336004820152602401610480565b60026001540361138f57604051633ee5aeb560e01b815260040160405180910390fd5b6002600155565b60025460ff1615610c485760405163d93c066560e01b815260040160405180910390fd5b6113c2611499565b6002805460ff191690557f5db9ee0a495bf2e6ff9c91a7834c1ba4fdd244a5e8aa4e537bd38aeae4b073aa335b6040516001600160a01b03909116815260200160405180910390a1565b600080546001600160a01b038381166001600160a01b0319831681178455604051919092169283917f8be0079c531659141344cd1fd0a4f28419497f9722a3daafe3b4186f6b6457e09190a35050565b611464611396565b6002805460ff191660011790557f62e78cea01bee320cd4e420270b5ea74000d11b0c9f74754ebdbfc544b05a2586113ef3390565b60025460ff16610c4857604051638dfc202b60e01b815260040160405180910390fd5b6000602082840312156114ce57600080fd5b5035919050565b80356001600160a01b03811681146114ec57600080fd5b919050565b60006020828403121561150357600080fd5b61150c826114d5565b9392505050565b6000815180845260005b818110156115395760208185018101518683018201520161151d565b506000602082860101526020601f19601f83011685010191505092915050565b60a08152600061156c60a0830188611513565b6001600160a01b039690961660208301525092151560408401526060830191909152608090910152919050565b60008083601f8401126115ab57600080fd5b50813567ffffffffffffffff8111156115c357600080fd5b6020830191508360208285010111156115db57600080fd5b9250929050565b600080600080606085870312156115f857600080fd5b611601856114d5565b935060208501359250604085013567ffffffffffffffff81111561162457600080fd5b61163087828801611599565b95989497509550505050565b60208152600060018060a01b03808451166020840152806020850151166040840152506040830151606083015260608301516080830152608083015160a08084015261168b60c0840182611513565b949350505050565b6020808252825182820181905260009190848201906040850190845b818110156116cb578351835292840192918401916001016116af565b50909695505050505050565b600080604083850312156116ea57600080fd5b6116f3836114d5565b946020939093013593505050565b6001600160a01b03868116825285166020820152604081018490526060810183905260a06080820181905260009061173b90830184611513565b979650505050505050565b60008060006040848603121561175b57600080fd5b611764846114d5565b9250602084013567ffffffffffffffff81111561178057600080fd5b61178c86828701611599565b9497909650939450505050565b602081526000825160a060208401526117b560c0840182611513565b905060018060a01b03602085015116604084015260408401511515606084015260608401516080840152608084015160a08401528091505092915050565b600181811c9082168061180757607f821691505b60208210810361182757634e487b7160e01b600052602260045260246000fd5b50919050565b634e487b7160e01b600052601160045260246000fd5b808202811582820484141761185a5761185a61182d565b92915050565b60008261187d57634e487b7160e01b600052601260045260246000fd5b500490565b8181038181111561185a5761185a61182d565b6000602082840312156118a757600080fd5b8151801515811461150c57600080fd5b6000600182016118c9576118c961182d565b5060010190565b634e487b7160e01b600052604160045260246000fd5b601f821115610e69576000816000526020600020601f850160051c8101602086101561190f5750805b601f850160051c820191505b8181101561192e5782815560010161191b565b505050505050565b815167ffffffffffffffff811115611950576119506118d0565b6119648161195e84546117f3565b846118e6565b602080601f83116001811461199957600084156119815750858301515b600019600386901b1c1916600185901b17855561192e565b600085815260208120601f198616915b828110156119c8578886015182559484019460019091019084016119a9565b50858210156119e65787850151600019600388901b60f8161c191681555b5050505050600190811b01905550565b8082018082111561185a5761185a61182d565b604081528260408201528284606083013760006060848301015260006060601f19601f860116830101905082602083015294935050505056fea26469706673582212203d9148dab023ac326b2fe81a1f95eb634e2f2d8d8049b8cb21fc201754dda85e64736f6c63430008180033",
  "linkReferences": {},
  "deployedLinkReferences": {}
}