{
  "_format": "hh-sol-artifact-1",
  "contractName": "PaymentProcessor",
  "sourceName": "contracts/PaymentProcessor.sol",
  "abi": [
    {
      "inputs": [
        {
          "internalType": "address",
          "name": "_pyusdToken",
          "type": "address"
        },
        {
          "internalType": "address",
          "name": "_feeRecipient",
          "type": "address"
        }
      ],
      "stateMutability": "nonpayable",
      "type": "constructor"
    },
    {
      "inputs": [],
      "name": "EnforcedPause",
      "type": "error"
    },
    {
      "inputs": [],
      "name": "ExpectedPause",
      "type": "error"
    },
    {
      "inputs": [
        {
          "internalType": "address",
          "name": "owner",
          "type": "address"
        }
      ],
      "name": "OwnableInvalidOwner",
      "type": "error"
    },
    {
      "inputs": [
        {
          "internalType": "address",
          "name": "account",
          "type": "address"
        }
      ],
      "name": "OwnableUnauthorizedAccount",
      "type": "error"
    },
    {
      "inputs": [],
      "name": "ReentrancyGuardReentrantCall",
      "type": "error"
    },
    {
      "anonymous": false,
      "inputs": [
        {
          "indexed": true,
          "internalType": "address",
          "name": "restaurant",
          "type": "address"
        },
        {
          "indexed": false,
          "internalType": "uint256",
          "name": "amount",
          "type": "uint256"
        },
        {
          "indexed": false,
          "internalType": "uint256",
          "name": "timestamp",
          "type": "uint256"
        }
      ],
      "name": "FundsWithdrawn",
      "type": "event"
    },
    {
      "anonymous": false,
      "inputs": [
        {
          "indexed": true,
          "internalType": "address",
          "name": "previousOwner",
          "type": "address"
        },
        {
          "indexed": true,
          "internalType": "address",
          "name": "newOwner",
          "type": "address"
        }
      ],
      "name": "OwnershipTransferred",
      "type": "event"
    },
    {
      "anonymous": false,
      "inputs": [
        {
          "indexed": false,
          "internalType": "address",
          "name": "account",
          "type": "address"
        }
      ],
      "name": "Paused",
      "type": "event"
    },
    {
      "anonymous": false,
      "inputs": [
        {
          "indexed": true,
          "internalType": "address",
          "name": "customer",
          "type": "address"
        },
        {
          "indexed": true,
          "internalType": "address",
          "name": "restaurant",
          "type": "address"
        },
        {
          "indexed": true,
          "internalType": "uint256",
          "name": "billId",
          "type": "uint256"
        },
        {
          "indexed": false,
          "internalType": "uint256",
          "name": "amount",
          "type": "uint256"
        },
        {
          "indexed": false,
          "internalType": "uint256",
          "name": "timestamp",
          "type": "uint256"
        }
      ],
      "name": "PaymentProcessed",
      "type": "event"
    },
    {
      "anonymous": false,
      "inputs": [
        {
          "indexed": true,
          "internalType": "address",
          "name": "restaurant",
          "type": "address"
        },
        {
          "indexed": false,
          "internalType": "string",
          "name": "name",
          "type": "string"
        },
        {
          "indexed": false,
          "internalType": "uint256",
          "name": "timestamp",
          "type": "uint256"
        }
      ],
      "name": "RestaurantRegistered",
      "type": "event"
    },
    {
      "anonymous": false,
      "inputs": [
        {
          "indexed": false,
          "internalType": "address",
          "name": "account",
          "type": "address"
        }
      ],
      "name": "Unpaused",
      "type": "event"
    },
    {
      "inputs": [],
      "name": "MAX_PLATFORM_FEE",
      "outputs": [
        {
          "internalType": "uint256",
          "name": "",
          "type": "uint256"
        }
      ],
      "stateMutability": "view",
      "type": "function"
    },
    {
      "inputs": [
        {
          "internalType": "address",
          "name": "",
          "type": "address"
        },
        {
          "internalType": "uint256",
          "name": "",
          "type": "uint256"
        }
      ],
      "name": "customerPayments",
      "outputs": [
        {
          "internalType": "uint256",
          "name": "",
          "type": "uint256"
        }
      ],
      "stateMutability": "view",
      "type": "function"
    },
    {
      "inputs": [
        {
          "internalType": "address",
          "name": "_restaurant",
          "type": "address"
        }
      ],
      "name": "deactivateRestaurant",
      "outputs": [],
      "stateMutability": "nonpayable",
      "type": "function"
    },
    {
      "inputs": [
        {
          "internalType": "address",
          "name": "_token",
          "type": "address"
        },
        {
          "internalType": "uint256",
          "name": "_amount",
          "type": "uint256"
        }
      ],
      "name": "emergencyWithdraw",
      "outputs": [],
      "stateMutability": "nonpayable",
      "type": "function"
    },
    {
      "inputs": [],
      "name": "feeRecipient",
      "outputs": [
        {
          "internalType": "address",
          "name": "",
          "type": "address"
        }
      ],
      "stateMutability": "view",
      "type": "function"
    },
    {
      "inputs": [
        {
          "internalType": "address",
          "name": "_customer",
          "type": "address"
        }
      ],
      "name": "getCustomerPayments",
      "outputs": [
        {
          "internalType": "uint256[]",
          "name": "",
          "type": "uint256[]"
        }
      ],
      "stateMutability": "view",
      "type": "function"
    },
    {
      "inputs": [
        {
          "internalType": "uint256",
          "name": "_billId",
          "type": "uint256"
        }
      ],
      "name": "getPayment",
      "outputs": [
        {
          "components": [
            {
              "internalType": "address",
              "name": "customer",
              "type": "address"
            },
            {
              "internalType": "address",
              "name": "restaurant",
              "type": "address"
            },
            {
              "internalType": "uint256",
              "name": "amount",
              "type": "uint256"
            },
            {
              "internalType": "uint256",
              "name": "timestamp",
              "type": "uint256"
            },
            {
              "internalType": "string",
              "name": "billDetails",
              "type": "string"
            }
          ],
          "internalType": "struct PaymentProcessor.Payment",
          "name": "",
          "type": "tuple"
        }
      ],
      "stateMutability": "view",
      "type": "function"
    },
    {
      "inputs": [
        {
          "internalType": "address",
          "name": "_restaurant",
          "type": "address"
        }
      ],
      "name": "getRestaurant",
      "outputs": [
        {
          "components": [
            {
              "internalType": "string",
              "name": "name",
              "type": "string"
            },
            {
              "internalType": "address",
              "name": "walletAddress",
              "type": "address"
            },
            {
              "internalType": "bool",
              "name": "isActive",
              "type": "bool"
            },
            {
              "internalType": "uint256",
              "name": "totalReceived",
              "type": "uint256"
            },
            {
              "internalType": "uint256",
              "name": "registeredAt",
              "type": "uint256"
            }
          ],
          "internalType": "struct PaymentProcessor.Restaurant",
          "name": "",
          "type": "tuple"
        }
      ],
      "stateMutability": "view",
      "type": "function"
    },
    {
      "inputs": [
        {
          "internalType": "address",
          "name": "_restaurant",
          "type": "address"
        }
      ],
      "name": "getRestaurantPayments",
      "outputs": [
        {
          "internalType": "uint256[]",
          "name": "",
          "type": "uint256[]"
        }
      ],
      "stateMutability": "view",
      "type": "function"
    },
    {
      "inputs": [],
      "name": "getStats",
      "outputs": [
        {
          "internalType": "uint256",
          "name": "totalPayments",
          "type": "uint256"
        },
        {
          "internalType": "uint256",
          "name": "totalVolume",
          "type": "uint256"
        },
        {
          "internalType": "uint256",
          "name": "currentFee",
          "type": "uint256"
        },
        {
          "internalType": "address",
          "name": "feeRecipientAddress",
          "type": "address"
        }
      ],
      "stateMutability": "view",
      "type": "function"
    },
    {
      "inputs": [],
      "name": "nextBillId",
      "outputs": [
        {
          "internalType": "uint256",
          "name": "",
          "type": "uint256"
        }
      ],
      "stateMutability": "view",
      "type": "function"
    },
    {
      "inputs": [],
      "name": "owner",
      "outputs": [
        {
          "internalType": "address",
          "name": "",
          "type": "address"
        }
      ],
      "stateMutability": "view",
      "type": "function"
    },
    {
      "inputs": [],
      "name": "pause",
      "outputs": [],
      "stateMutability": "nonpayable",
      "type": "function"
    },
    {
      "inputs": [],
      "name": "paused",
      "outputs": [
        {
          "internalType": "bool",
          "name": "",
          "type": "bool"
        }
      ],
      "stateMutability": "view",
      "type": "function"
    },
    {
      "inputs": [
        {
          "internalType": "uint256",
          "name": "",
          "type": "uint256"
        }
      ],
      "name": "payments",
      "outputs": [
        {
          "internalType": "address",
          "name": "customer",
          "type": "address"
        },
        {
          "internalType": "address",
          "name": "restaurant",
          "type": "address"
        },
        {
          "internalType": "uint256",
          "name": "amount",
          "type": "uint256"
        },
        {
          "internalType": "uint256",
          "name": "timestamp",
          "type": "uint256"
        },
        {
          "internalType": "string",
          "name": "billDetails",
          "type": "string"
        }
      ],
      "stateMutability": "view",
      "type": "function"
    },
    {
      "inputs": [],
      "name": "platformFee",
      "outputs": [
        {
          "internalType": "uint256",
          "name": "",
          "type": "uint256"
        }
      ],
      "stateMutability": "view",
      "type": "function"
    },
    {
      "inputs": [
        {
          "internalType": "address",
          "name": "_restaurant",
          "type": "address"
        },
        {
          "internalType": "uint256",
          "name": "_amount",
          "type": "uint256"
        },
        {
          "internalType": "string",
          "name": "_billDetails",
          "type": "string"
        }
      ],
      "name": "processPayment",
      "outputs": [],
      "stateMutability": "nonpayable",
      "type": "function"
    },
    {
      "inputs": [],
      "name": "pyusdToken",
      "outputs": [
        {
          "internalType": "contract IERC20",
          "name": "",
          "type": "address"
        }
      ],
      "stateMutability": "view",
      "type": "function"
    },
    {
      "inputs": [
        {
          "internalType": "address",
          "name": "_restaurant",
          "type": "address"
        },
        {
          "internalType": "string",
          "name": "_name",
          "type": "string"
        }
      ],
      "name": "registerRestaurant",
      "outputs": [],
      "stateMutability": "nonpayable",
      "type": "function"
    },
    {
      "inputs": [],
      "name": "renounceOwnership",
      "outputs": [],
      "stateMutability": "nonpayable",
      "type": "function"
    },
    {
      "inputs": [
        {
          "internalType": "address",
          "name": "",
          "type": "address"
        },
        {
          "internalType": "uint256",
          "name": "",
          "type": "uint256"
        }
      ],
      "name": "restaurantPayments",
      "outputs": [
        {
          "internalType": "uint256",
          "name": "",
          "type": "uint256"
        }
      ],
      "stateMutability": "view",
      "type": "function"
    },
    {
      "inputs": [
        {
          "internalType": "address",
          "name": "",
          "type": "address"
        }
      ],
      "name": "restaurants",
      "outputs": [
        {
          "internalType": "string",
          "name": "name",
          "type": "string"
        },
        {
          "internalType": "address",
          "name": "walletAddress",
          "type": "address"
        },
        {
          "internalType": "bool",
          "name": "isActive",
          "type": "bool"
        },
        {
          "internalType": "uint256",
          "name": "totalReceived",
          "type": "uint256"
        },
        {
          "internalType": "uint256",
          "name": "registeredAt",
          "type": "uint256"
        }
      ],
      "stateMutability": "view",
      "type": "function"
    },
    {
      "inputs": [
        {
          "internalType": "address",
          "name": "_newRecipient",
          "type": "address"
        }
      ],
      "name": "setFeeRecipient",
      "outputs": [],
      "stateMutability": "nonpayable",
      "type": "function"
    },
    {
      "inputs": [
        {
          "internalType": "uint256",
          "name": "_newFee",
          "type": "uint256"
        }
      ],
      "name": "setPlatformFee",
      "outputs": [],
      "stateMutability": "nonpayable",
      "type": "function"
    },
    {
      "inputs": [],
      "name": "totalPaymentsProcessed",
      "outputs": [
        {
          "internalType": "uint256",
          "name": "",
          "type": "uint256"
        }
      ],
      "stateMutability": "view",
      "type": "function"
    },
    {
      "inputs": [],
      "name": "totalVolumeProcessed",
      "outputs": [
        {
          "internalType": "uint256",
          "name": "",
          "type": "uint256"
        }
      ],
      "stateMutability": "view",
      "type": "function"
    },
    {
      "inputs": [
        {
          "internalType": "address",
          "name": "newOwner",
          "type": "address"
        }
      ],
      "name": "transferOwnership",
      "outputs": [],
      "stateMutability": "nonpayable",
      "type": "function"
    },
    {
      "inputs": [],
      "name": "unpause",
      "outputs": [],
      "stateMutability": "nonpayable",
      "type": "function"
    }
  ],
  "bytecode": "0x60a034620001a557620019f090601f38839003908101601f19168201906001600160401b03821183831017620001aa5780839160409586948552833981010312620001a5576200005d60206200005583620001c0565b9201620001c0565b9033156200018d576000549160018060a01b03908160018060a01b0319933385871617600055865195823391167f8be0079c531659141344cd1fd0a4f28419497f9722a3daafe3b4186f6b6457e0600080a360018055600160075560fa600a55169384156200014b5750169182156200010757608052600b541617600b555161181a9081620001d682396080518181816108f801528181610e3901528181610eb301526111c00152f35b835162461bcd60e51b815260206004820152601560248201527f496e76616c69642066656520726563697069656e7400000000000000000000006044820152606490fd5b62461bcd60e51b815260206004820152601560248201527f496e76616c6964205059555344206164647265737300000000000000000000006044820152606490fd5b8251631e4fbdf760e01b815260006004820152602490fd5b600080fd5b634e487b7160e01b600052604160045260246000fd5b51906001600160a01b0382168203620001a55756fe6080604052600436101561001257600080fd5b60003560e01c806312e8e2c31461147c578063236cd7dc146113f6578063250cbca314610d6157806326232a2e14610d435780632718c14f14610d255780633280a83614610c4e57806337e32d1d14610c305780633998a68114610c135780633f4ba83a14610ba95780634690484014610b8057806351f5005e14610b055780635c975abb14610ae25780635fcf6e1914610ac4578063715018a614610a6b5780638456cb5914610a1157806385099491146109c757806387d81789146109505780638da5cb5b1461092757806391763009146108e257806395ccea6714610847578063ac9f56eb146107ff578063ade49fcb14610461578063c491b7b6146103d6578063c59d484714610397578063d2fe09161461033f578063dff4a5e81461025d578063e74b981b146101de5763f2fde38b1461015057600080fd5b346101d95760203660031901126101d9576101696114da565b61017161179a565b6001600160a01b039081169081156101c057600054826001600160601b0360a01b821617600055167f8be0079c531659141344cd1fd0a4f28419497f9722a3daafe3b4186f6b6457e0600080a3005b604051631e4fbdf760e01b815260006004820152602490fd5b600080fd5b346101d95760203660031901126101d9576101f76114da565b6101ff61179a565b6001600160a01b03168015610226576001600160601b0360a01b600b541617600b55600080f35b60405162461bcd60e51b815260206004820152600f60248201526e496e76616c6964206164647265737360881b6044820152606490fd5b346101d9576020806003193601126101d95760a09061027a6114da565b6000608060405161028a8161152a565b6060815282858201528260408201528260608201520152600180841b0380911660005260038252604060002091604051926102c48461152a565b6102cd81611568565b8452600181015482850193808216855260ff6040870192881c161515825261031f60036002850154946060890195865201549460808801958652604051988998828a52519189015260c088019061160d565b945116604086015251151560608501525160808401525160a08301520390f35b346101d95760403660031901126101d9576103586114da565b6001600160a01b03166000908152600560205260409020805460243591908210156101d957602091610389916116b7565b90546040519160031b1c8152f35b346101d95760003660031901126101d9576080600854600954600a5460018060a01b03600b541691604051938452602084015260408301526060820152f35b346101d9576020806003193601126101d9576001600160a01b036103f86114da565b1660005260056020526040600020906040519081602084549182815201936000526020600020916000905b82821061044a576104468561043a81890382611546565b6040519182918261167b565b0390f35b835486529485019460019384019390910190610423565b346101d95760403660031901126101d95761047a6114da565b67ffffffffffffffff906024358281116101d95761049c90369060040161164d565b916104a561179a565b6001600160a01b038116156107ba578215610775576001600160a01b03811660009081526003602052604090206001015460a01c60ff16610730576040516104ec8161152a565b6104f736858561170c565b815260018060a01b0382166020820152600160408201526000606082015242608082015260018060a01b0382166000526003602052604060002090805195865190811161071a5761054883546114f0565b96601f88116106d6575b869750600096959650602090601f83116001146106415760609593837fd827e82622fad9ae79927940eb29606c4695f01f399c10109a88e3e0d45808b7999694600394608094600092610636575b50508160011b9160001990861b1c19161784555b6001840160018060a01b0360208301511681549060ff60a01b6040850151151560a01b16916affffffffffffffffffffff60a81b16171790558681015160028501550151910155604051938492604084528160408501528484013760008287018401524260208301526001600160a01b031694601f01601f19168101030190a2005b015190508c806105a0565b90601f198316918560005260206000209260005b8181106106bb57508460039460809460609a98947fd827e82622fad9ae79927940eb29606c4695f01f399c10109a88e3e0d45808b79d9a98600195106106a3575b505050811b0184556105b4565b015160001983881b60f8161c191690558c8080610696565b8284015185558b995060019094019360209384019301610655565b836000526020600020601f830160051c810160208410610713575b601f8a0160051c82018110610707575050610552565b600081556001016106f1565b50806106f1565b634e487b7160e01b600052604160045260246000fd5b60405162461bcd60e51b815260206004820152601d60248201527f52657374617572616e7420616c726561647920726567697374657265640000006044820152606490fd5b60405162461bcd60e51b815260206004820152601860248201527f52657374617572616e74206e616d6520726571756972656400000000000000006044820152606490fd5b60405162461bcd60e51b815260206004820152601a60248201527f496e76616c69642072657374617572616e7420616464726573730000000000006044820152606490fd5b346101d95760203660031901126101d9576108186114da565b61082061179a565b6001600160a01b03166000908152600360205260409020600101805460ff60a01b19169055005b346101d95760403660031901126101d9576108606114da565b61086861179a565b6000805460405163a9059cbb60e01b81526001600160a01b0391821660048201526024803590820152926020928492604492849291165af180156108d6576108ac57005b6108cd9060203d6020116108cf575b6108c58183611546565b8101906116e5565b005b503d6108bb565b6040513d6000823e3d90fd5b346101d95760003660031901126101d9576040517f00000000000000000000000000000000000000000000000000000000000000006001600160a01b03168152602090f35b346101d95760003660031901126101d9576000546040516001600160a01b039091168152602090f35b346101d95760203660031901126101d9576004356000526004602052604060002060018060a01b0361044681835416916001840154169260028101549061099e600460038301549201611568565b91604051958695865260208601526040850152606084015260a0608084015260a083019061160d565b346101d95760403660031901126101d9576109e06114da565b6001600160a01b03166000908152600660205260409020805460243591908210156101d957602091610389916116b7565b346101d95760003660031901126101d957610a2a61179a565b610a326117c6565b600160ff1960025416176002557f62e78cea01bee320cd4e420270b5ea74000d11b0c9f74754ebdbfc544b05a2586020604051338152a1005b346101d95760003660031901126101d957610a8461179a565b600080546001600160a01b0319811682556001600160a01b03167f8be0079c531659141344cd1fd0a4f28419497f9722a3daafe3b4186f6b6457e08280a3005b346101d95760003660031901126101d9576020600754604051908152f35b346101d95760003660031901126101d957602060ff600254166040519015158152f35b346101d9576020806003193601126101d9576001600160a01b03610b276114da565b1660005260066020526040600020906040519081602084549182815201936000526020600020916000905b828210610b69576104468561043a81890382611546565b835486529485019460019384019390910190610b52565b346101d95760003660031901126101d957600b546040516001600160a01b039091168152602090f35b346101d95760003660031901126101d957610bc261179a565b60025460ff811615610c015760ff19166002557f5db9ee0a495bf2e6ff9c91a7834c1ba4fdd244a5e8aa4e537bd38aeae4b073aa6020604051338152a1005b604051638dfc202b60e01b8152600490fd5b346101d95760003660031901126101d95760206040516103e88152f35b346101d95760003660031901126101d9576020600854604051908152f35b346101d9576020806003193601126101d95760606080604051610c708161152a565b600081526000848201526000604082015260008382015201526004356000526004815260406000209061044660405191610ca98361152a565b60018060a01b0393848154168452846001820154168285019081528560028301549160408701928352610cea600460038601549560608a0196875201611568565b9460808801958652604051988998828a52511690880152511660408601525160608501525160808401525160a08084015260c083019061160d565b346101d95760003660031901126101d9576020600954604051908152f35b346101d95760003660031901126101d9576020600a54604051908152f35b346101d95760603660031901126101d957610d7a6114da565b60443567ffffffffffffffff81116101d957610d9a90369060040161164d565b6002600193929354146113e4576002600155610db46117c6565b6001600160a01b03821660009081526003602052604090206001015460a01c60ff16156113aa576024351561136557801561132857600a5490816024350291602435830403611312576024356127108304810311611312576040516323b872dd60e01b81523360048201523060248083019190915235604482015260208160648160007f00000000000000000000000000000000000000000000000000000000000000006001600160a01b03165af19081156108d6576000916112f3575b50156112bc5760405163a9059cbb60e01b81526001600160a01b038416600482015261271083046024803591909103908201526020818060448101038160007f00000000000000000000000000000000000000000000000000000000000000006001600160a01b03165af19081156108d65760009161129d575b5015611258576127108204611188575b610f4360075494610f0c866116fd565b60075560405192610f1c8461152a565b3384526001600160a01b03861660208501526024356040850152426060850152369161170c565b608082015283600052600460205260806004604060002060018060a01b038451166001600160601b0360a01b9081835416178255600182019060018060a01b036020870151169082541617905560408401516002820155606084015160038201550191015180519067ffffffffffffffff821161071a578190610fc684546114f0565b601f8111611135575b50602090601f83116001146110cf576000926110c4575b50508160011b916000199060031b1c19161790555b336000526005602052611012836040600020611753565b60018060a01b0382166000526006602052611031836040600020611753565b60018060a01b038216600052600360205261105d6127106002604060002001920460243503825461178d565b905561106a6008546116fd565b60085561107b60243560095461178d565b6009556040805160243581524260208201526001600160a01b039092169133917f72dd19d9bd6e3cdbe36ecaefc0cdd05baf431df4fbb3957e3781184ce70e394b91a460018055005b015190508680610fe6565b6000858152602081209350601f198516905b81811061111d5750908460019594939210611104575b505050811b019055610ffb565b015160001960f88460031b161c191690558680806110f7565b929360206001819287860151815501950193016110e1565b909150836000526020600020601f840160051c8101916020851061117e575b90601f859493920160051c01905b81811061116f5750610fcf565b60008155849350600101611162565b9091508190611154565b600b5460405163a9059cbb60e01b81526001600160a01b039091166004820152612710830460248201526020818060448101038160007f00000000000000000000000000000000000000000000000000000000000000006001600160a01b03165af19081156108d657600091611239575b50610efc5760405162461bcd60e51b8152602060048201526013602482015272119959481d1c985b9cd9995c8819985a5b1959606a1b6044820152606490fd5b611252915060203d6020116108cf576108c58183611546565b856111f9565b60405162461bcd60e51b815260206004820152601a60248201527f52657374617572616e74207472616e73666572206661696c65640000000000006044820152606490fd5b6112b6915060203d6020116108cf576108c58183611546565b85610eec565b60405162461bcd60e51b815260206004820152600f60248201526e151c985b9cd9995c8819985a5b1959608a1b6044820152606490fd5b61130c915060203d6020116108cf576108c58183611546565b85610e72565b634e487b7160e01b600052601160045260246000fd5b60405162461bcd60e51b8152602060048201526015602482015274109a5b1b0819195d185a5b1cc81c995c5d5a5c9959605a1b6044820152606490fd5b60405162461bcd60e51b815260206004820152601d60248201527f416d6f756e74206d7573742062652067726561746572207468616e20300000006044820152606490fd5b60405162461bcd60e51b8152602060048201526012602482015271125b9d985b1a59081c995cdd185d5c985b9d60721b6044820152606490fd5b604051633ee5aeb560e01b8152600490fd5b346101d95760203660031901126101d95761145b6001600160a01b038061141b6114da565b16600052600360205260406000209061143382611568565b9160018101549060ff600360028301549201549260405196879660a0885260a088019061160d565b948116602087015260a01c1615156040850152606084015260808301520390f35b346101d95760203660031901126101d95760043561149861179a565b6103e881116114a657600a55005b60405162461bcd60e51b815260206004820152600c60248201526b08ccaca40e8dede40d0d2ced60a31b6044820152606490fd5b600435906001600160a01b03821682036101d957565b90600182811c92168015611520575b602083101461150a57565b634e487b7160e01b600052602260045260246000fd5b91607f16916114ff565b60a0810190811067ffffffffffffffff82111761071a57604052565b90601f8019910116810190811067ffffffffffffffff82111761071a57604052565b9060405191826000825461157b816114f0565b908184526020946001916001811690816000146115eb57506001146115ac575b5050506115aa92500383611546565b565b600090815285812095935091905b8183106115d35750506115aa935082010138808061159b565b855488840185015294850194879450918301916115ba565b925050506115aa94925060ff191682840152151560051b82010138808061159b565b919082519283825260005b848110611639575050826000602080949584010152601f8019910116010190565b602081830181015184830182015201611618565b9181601f840112156101d95782359167ffffffffffffffff83116101d957602083818601950101116101d957565b602090602060408183019282815285518094520193019160005b8281106116a3575050505090565b835185529381019392810192600101611695565b80548210156116cf5760005260206000200190600090565b634e487b7160e01b600052603260045260246000fd5b908160209103126101d9575180151581036101d95790565b60001981146113125760010190565b92919267ffffffffffffffff821161071a5760405191611736601f8201601f191660200184611546565b8294818452818301116101d9578281602093846000960137010152565b80546801000000000000000081101561071a57611775916001820181556116b7565b819291549060031b91821b91600019901b1916179055565b9190820180921161131257565b6000546001600160a01b031633036117ae57565b60405163118cdaa760e01b8152336004820152602490fd5b60ff600254166117d257565b60405163d93c066560e01b8152600490fdfea26469706673582212201e3685d6082f3dd18f2b9299cf51c13adf5eca602914084a90f89b0d1d10df0d64736f6c63430008180033",
  "linkReferences": {},
  "deployedLinkReferences": {}
}