{
  "_format": "hh-sol-artifact-1",
  "contractName": "ReviewNFT",
  "sourceName": "contracts/ReviewNFT.sol",
  "abi": [
    {
      "inputs": [
        {
          "internalType": "address",
          "name": "_paymentProcessor",
          "type": "address"
        },
        {
          "internalType": "string",
          "name": "_baseImageURI",
          "type": "string"
        }
      ],
      "stateMutability": "nonpayable",
      "type": "constructor"
    },
    {
      "inputs": [
        {
          "internalType": "address",
          "name": "sender",
          "type": "address"
        },
        {
          "internalType": "uint256",
          "name": "tokenId",
          "type": "uint256"
        },
        {
          "internalType": "address",
          "name": "owner",
          "type": "address"
        }
      ],
      "name": "ERC721IncorrectOwner",
      "type": "error"
    },
    {
      "inputs": [
        {
          "internalType": "address",
          "name": "operator",
          "type": "address"
        },
        {
          "internalType": "uint256",
          "name": "tokenId",
          "type": "uint256"
        }
      ],
      "name": "ERC721InsufficientApproval",
      "type": "error"
    },
    {
      "inputs": [
        {
          "internalType": "address",
          "name": "approver",
          "type": "address"
        }
      ],
      "name": "ERC721InvalidApprover",
      "type": "error"
    },
    {
      "inputs": [
        {
          "internalType": "address",
          "name": "operator",
          "type": "address"
        }
      ],
      "name": "ERC721InvalidOperator",
      "type": "error"
    },
    {
      "inputs": [
        {
          "internalType": "address",
          "name": "owner",
          "type": "address"
        }
      ],
      "name": "ERC721InvalidOwner",
      "type": "error"
    },
    {
      "inputs": [
        {
          "internalType": "address",
          "name": "receiver",
          "type": "address"
        }
      ],
      "name": "ERC721InvalidReceiver",
      "type": "error"
    },
    {
      "inputs": [
        {
          "internalType": "address",
          "name": "sender",
          "type": "address"
        }
      ],
      "name": "ERC721InvalidSender",
      "type": "error"
    },
    {
      "inputs": [
        {
          "internalType": "uint256",
          "name": "tokenId",
          "type": "uint256"
        }
      ],
      "name": "ERC721NonexistentToken",
      "type": "error"
    },
    {
      "inputs": [],
      "name": "EnforcedPause",
      "type": "error"
    },
    {
      "inputs": [],
      "name": "ExpectedPause",
      "type": "error"
    },
    {
      "inputs": [
        {
          "internalType": "address",
          "name": "owner",
          "type": "address"
        }
      ],
      "name": "OwnableInvalidOwner",
      "type": "error"
    },
    {
      "inputs": [
        {
          "internalType": "address",
          "name": "account",
          "type": "address"
        }
      ],
      "name": "OwnableUnauthorizedAccount",
      "type": "error"
    },
    {
      "inputs": [],
      "name": "ReentrancyGuardReentrantCall",
      "type": "error"
    },
    {
      "anonymous": false,
      "inputs": [
        {
          "indexed": true,
          "internalType": "address",
          "name": "owner",
          "type": "address"
        },
        {
          "indexed": true,
          "internalType": "address",
          "name": "approved",
          "type": "address"
        },
        {
          "indexed": true,
          "internalType": "uint256",
          "name": "tokenId",
          "type": "uint256"
        }
      ],
      "name": "Approval",
      "type": "event"
    },
    {
      "anonymous": false,
      "inputs": [
        {
          "indexed": true,
          "internalType": "address",
          "name": "owner",
          "type": "address"
        },
        {
          "indexed": true,
          "internalType": "address",
          "name": "operator",
          "type": "address"
        },
        {
          "indexed": false,
          "internalType": "bool",
          "name": "approved",
          "type": "bool"
        }
      ],
      "name": "ApprovalForAll",
      "type": "event"
    },
    {
      "anonymous": false,
      "inputs": [
        {
          "indexed": false,
          "internalType": "uint256",
          "name": "_fromTokenId",
          "type": "uint256"
        },
        {
          "indexed": false,
          "internalType": "uint256",
          "name": "_toTokenId",
          "type": "uint256"
        }
      ],
      "name": "BatchMetadataUpdate",
      "type": "event"
    },
    {
      "anonymous": false,
      "inputs": [
        {
          "indexed": false,
          "internalType": "uint256",
          "name": "_tokenId",
          "type": "uint256"
        }
      ],
      "name": "MetadataUpdate",
      "type": "event"
    },
    {
      "anonymous": false,
      "inputs": [
        {
          "indexed": true,
          "internalType": "address",
          "name": "previousOwner",
          "type": "address"
        },
        {
          "indexed": true,
          "internalType": "address",
          "name": "newOwner",
          "type": "address"
        }
      ],
      "name": "OwnershipTransferred",
      "type": "event"
    },
    {
      "anonymous": false,
      "inputs": [
        {
          "indexed": false,
          "internalType": "address",
          "name": "account",
          "type": "address"
        }
      ],
      "name": "Paused",
      "type": "event"
    },
    {
      "anonymous": false,
      "inputs": [
        {
          "indexed": true,
          "internalType": "uint256",
          "name": "tokenId",
          "type": "uint256"
        },
        {
          "indexed": true,
          "internalType": "address",
          "name": "reviewer",
          "type": "address"
        },
        {
          "indexed": true,
          "internalType": "address",
          "name": "restaurant",
          "type": "address"
        },
        {
          "indexed": false,
          "internalType": "uint256",
          "name": "billId",
          "type": "uint256"
        },
        {
          "indexed": false,
          "internalType": "uint8",
          "name": "rating",
          "type": "uint8"
        },
        {
          "indexed": false,
          "internalType": "uint256",
          "name": "timestamp",
          "type": "uint256"
        }
      ],
      "name": "ReviewCreated",
      "type": "event"
    },
    {
      "anonymous": false,
      "inputs": [
        {
          "indexed": true,
          "internalType": "uint256",
          "name": "tokenId",
          "type": "uint256"
        },
        {
          "indexed": true,
          "internalType": "address",
          "name": "reporter",
          "type": "address"
        },
        {
          "indexed": false,
          "internalType": "string",
          "name": "reason",
          "type": "string"
        },
        {
          "indexed": false,
          "internalType": "uint256",
          "name": "timestamp",
          "type": "uint256"
        }
      ],
      "name": "ReviewReported",
      "type": "event"
    },
    {
      "anonymous": false,
      "inputs": [
        {
          "indexed": true,
          "internalType": "uint256",
          "name": "tokenId",
          "type": "uint256"
        },
        {
          "indexed": true,
          "internalType": "address",
          "name": "tipper",
          "type": "address"
        },
        {
          "indexed": false,
          "internalType": "uint256",
          "name": "amount",
          "type": "uint256"
        },
        {
          "indexed": false,
          "internalType": "uint256",
          "name": "timestamp",
          "type": "uint256"
        }
      ],
      "name": "ReviewTipped",
      "type": "event"
    },
    {
      "anonymous": false,
      "inputs": [
        {
          "indexed": true,
          "internalType": "address",
          "name": "from",
          "type": "address"
        },
        {
          "indexed": true,
          "internalType": "address",
          "name": "to",
          "type": "address"
        },
        {
          "indexed": true,
          "internalType": "uint256",
          "name": "tokenId",
          "type": "uint256"
        }
      ],
      "name": "Transfer",
      "type": "event"
    },
    {
      "anonymous": false,
      "inputs": [
        {
          "indexed": false,
          "internalType": "address",
          "name": "account",
          "type": "address"
        }
      ],
      "name": "Unpaused",
      "type": "event"
    },
    {
      "inputs": [
        {
          "internalType": "address",
          "name": "to",
          "type": "address"
        },
        {
          "internalType": "uint256",
          "name": "tokenId",
          "type": "uint256"
        }
      ],
      "name": "approve",
      "outputs": [],
      "stateMutability": "nonpayable",
      "type": "function"
    },
    {
      "inputs": [
        {
          "internalType": "address",
          "name": "owner",
          "type": "address"
        }
      ],
      "name": "balanceOf",
      "outputs": [
        {
          "internalType": "uint256",
          "name": "",
          "type": "uint256"
        }
      ],
      "stateMutability": "view",
      "type": "function"
    },
    {
      "inputs": [
        {
          "internalType": "uint256",
          "name": "",
          "type": "uint256"
        }
      ],
      "name": "billIdUsed",
      "outputs": [
        {
          "internalType": "bool",
          "name": "",
          "type": "bool"
        }
      ],
      "stateMutability": "view",
      "type": "function"
    },
    {
      "inputs": [
        {
          "internalType": "address",
          "name": "_reviewer",
          "type": "address"
        },
        {
          "internalType": "address",
          "name": "_restaurant",
          "type": "address"
        },
        {
          "internalType": "uint256",
          "name": "_billId",
          "type": "uint256"
        },
        {
          "internalType": "uint8",
          "name": "_rating",
          "type": "uint8"
        },
        {
          "internalType": "string",
          "name": "_reviewText",
          "type": "string"
        },
        {
          "internalType": "string",
          "name": "_restaurantName",
          "type": "string"
        }
      ],
      "name": "createReview",
      "outputs": [
        {
          "internalType": "uint256",
          "name": "",
          "type": "uint256"
        }
      ],
      "stateMutability": "nonpayable",
      "type": "function"
    },
    {
      "inputs": [
        {
          "internalType": "uint256",
          "name": "_tokenId",
          "type": "uint256"
        }
      ],
      "name": "deactivateReview",
      "outputs": [],
      "stateMutability": "nonpayable",
      "type": "function"
    },
    {
      "inputs": [
        {
          "internalType": "uint256",
          "name": "tokenId",
          "type": "uint256"
        }
      ],
      "name": "getApproved",
      "outputs": [
        {
          "internalType": "address",
          "name": "",
          "type": "address"
        }
      ],
      "stateMutability": "view",
      "type": "function"
    },
    {
      "inputs": [],
      "name": "getContractStats",
      "outputs": [
        {
          "internalType": "uint256",
          "name": "totalNFTs",
          "type": "uint256"
        },
        {
          "internalType": "uint256",
          "name": "totalActiveReviews",
          "type": "uint256"
        },
        {
          "internalType": "uint256",
          "name": "nextToken",
          "type": "uint256"
        }
      ],
      "stateMutability": "view",
      "type": "function"
    },
    {
      "inputs": [
        {
          "internalType": "address",
          "name": "_restaurant",
          "type": "address"
        }
      ],
      "name": "getRestaurantStats",
      "outputs": [
        {
          "components": [
            {
              "internalType": "uint256",
              "name": "totalReviews",
              "type": "uint256"
            },
            {
              "internalType": "uint256",
              "name": "totalRating",
              "type": "uint256"
            },
            {
              "internalType": "uint256",
              "name": "averageRating",
              "type": "uint256"
            }
          ],
          "internalType": "struct ReviewNFT.RestaurantStats",
          "name": "",
          "type": "tuple"
        }
      ],
      "stateMutability": "view",
      "type": "function"
    },
    {
      "inputs": [
        {
          "internalType": "uint256",
          "name": "_tokenId",
          "type": "uint256"
        }
      ],
      "name": "getReview",
      "outputs": [
        {
          "components": [
            {
              "internalType": "uint256",
              "name": "tokenId",
              "type": "uint256"
            },
            {
              "internalType": "address",
              "name": "reviewer",
              "type": "address"
            },
            {
              "internalType": "address",
              "name": "restaurant",
              "type": "address"
            },
            {
              "internalType": "uint256",
              "name": "billId",
              "type": "uint256"
            },
            {
              "internalType": "uint8",
              "name": "rating",
              "type": "uint8"
            },
            {
              "internalType": "string",
              "name": "reviewText",
              "type": "string"
            },
            {
              "internalType": "string",
              "name": "restaurantName",
              "type": "string"
            },
            {
              "internalType": "uint256",
              "name": "timestamp",
              "type": "uint256"
            },
            {
              "internalType": "uint256",
              "name": "totalTips",
              "type": "uint256"
            },
            {
              "internalType": "bool",
              "name": "isActive",
              "type": "bool"
            }
          ],
          "internalType": "struct ReviewNFT.Review",
          "name": "",
          "type": "tuple"
        }
      ],
      "stateMutability": "view",
      "type": "function"
    },
    {
      "inputs": [
        {
          "internalType": "address",
          "name": "_restaurant",
          "type": "address"
        }
      ],
      "name": "getReviewsByRestaurant",
      "outputs": [
        {
          "internalType": "uint256[]",
          "name": "",
          "type": "uint256[]"
        }
      ],
      "stateMutability": "view",
      "type": "function"
    },
    {
      "inputs": [
        {
          "internalType": "address",
          "name": "_reviewer",
          "type": "address"
        }
      ],
      "name": "getReviewsByReviewer",
      "outputs": [
        {
          "internalType": "uint256[]",
          "name": "",
          "type": "uint256[]"
        }
      ],
      "stateMutability": "view",
      "type": "function"
    },
    {
      "inputs": [
        {
          "internalType": "address",
          "name": "owner",
          "type": "address"
        },
        {
          "internalType": "address",
          "name": "operator",
          "type": "address"
        }
      ],
      "name": "isApprovedForAll",
      "outputs": [
        {
          "internalType": "bool",
          "name": "",
          "type": "bool"
        }
      ],
      "stateMutability": "view",
      "type": "function"
    },
    {
      "inputs": [],
      "name": "maximumRating",
      "outputs": [
        {
          "internalType": "uint256",
          "name": "",
          "type": "uint256"
        }
      ],
      "stateMutability": "view",
      "type": "function"
    },
    {
      "inputs": [],
      "name": "minimumRating",
      "outputs": [
        {
          "internalType": "uint256",
          "name": "",
          "type": "uint256"
        }
      ],
      "stateMutability": "view",
      "type": "function"
    },
    {
      "inputs": [],
      "name": "name",
      "outputs": [
        {
          "internalType": "string",
          "name": "",
          "type": "string"
        }
      ],
      "stateMutability": "view",
      "type": "function"
    },
    {
      "inputs": [],
      "name": "owner",
      "outputs": [
        {
          "internalType": "address",
          "name": "",
          "type": "address"
        }
      ],
      "stateMutability": "view",
      "type": "function"
    },
    {
      "inputs": [
        {
          "internalType": "uint256",
          "name": "tokenId",
          "type": "uint256"
        }
      ],
      "name": "ownerOf",
      "outputs": [
        {
          "internalType": "address",
          "name": "",
          "type": "address"
        }
      ],
      "stateMutability": "view",
      "type": "function"
    },
    {
      "inputs": [],
      "name": "pause",
      "outputs": [],
      "stateMutability": "nonpayable",
      "type": "function"
    },
    {
      "inputs": [],
      "name": "paused",
      "outputs": [
        {
          "internalType": "bool",
          "name": "",
          "type": "bool"
        }
      ],
      "stateMutability": "view",
      "type": "function"
    },
    {
      "inputs": [],
      "name": "paymentProcessor",
      "outputs": [
        {
          "internalType": "address",
          "name": "",
          "type": "address"
        }
      ],
      "stateMutability": "view",
      "type": "function"
    },
    {
      "inputs": [],
      "name": "renounceOwnership",
      "outputs": [],
      "stateMutability": "nonpayable",
      "type": "function"
    },
    {
      "inputs": [
        {
          "internalType": "uint256",
          "name": "_tokenId",
          "type": "uint256"
        },
        {
          "internalType": "string",
          "name": "_reason",
          "type": "string"
        }
      ],
      "name": "reportReview",
      "outputs": [],
      "stateMutability": "nonpayable",
      "type": "function"
    },
    {
      "inputs": [
        {
          "internalType": "address",
          "name": "",
          "type": "address"
        },
        {
          "internalType": "uint256",
          "name": "",
          "type": "uint256"
        }
      ],
      "name": "restaurantReviews",
      "outputs": [
        {
          "internalType": "uint256",
          "name": "",
          "type": "uint256"
        }
      ],
      "stateMutability": "view",
      "type": "function"
    },
    {
      "inputs": [
        {
          "internalType": "address",
          "name": "",
          "type": "address"
        }
      ],
      "name": "restaurantStats",
      "outputs": [
        {
          "internalType": "uint256",
          "name": "totalReviews",
          "type": "uint256"
        },
        {
          "internalType": "uint256",
          "name": "totalRating",
          "type": "uint256"
        },
        {
          "internalType": "uint256",
          "name": "averageRating",
          "type": "uint256"
        }
      ],
      "stateMutability": "view",
      "type": "function"
    },
    {
      "inputs": [
        {
          "internalType": "uint256",
          "name": "",
          "type": "uint256"
        },
        {
          "internalType": "address",
          "name": "",
          "type": "address"
        }
      ],
      "name": "reviewTips",
      "outputs": [
        {
          "internalType": "uint256",
          "name": "",
          "type": "uint256"
        }
      ],
      "stateMutability": "view",
      "type": "function"
    },
    {
      "inputs": [
        {
          "internalType": "address",
          "name": "",
          "type": "address"
        },
        {
          "internalType": "uint256",
          "name": "",
          "type": "uint256"
        }
      ],
      "name": "reviewerTokens",
      "outputs": [
        {
          "internalType": "uint256",
          "name": "",
          "type": "uint256"
        }
      ],
      "stateMutability": "view",
      "type": "function"
    },
    {
      "inputs": [
        {
          "internalType": "uint256",
          "name": "",
          "type": "uint256"
        }
      ],
      "name": "reviews",
      "outputs": [
        {
          "internalType": "uint256",
          "name": "tokenId",
          "type": "uint256"
        },
        {
          "internalType": "address",
          "name": "reviewer",
          "type": "address"
        },
        {
          "internalType": "address",
          "name": "restaurant",
          "type": "address"
        },
        {
          "internalType": "uint256",
          "name": "billId",
          "type": "uint256"
        },
        {
          "internalType": "uint8",
          "name": "rating",
          "type": "uint8"
        },
        {
          "internalType": "string",
          "name": "reviewText",
          "type": "string"
        },
        {
          "internalType": "string",
          "name": "restaurantName",
          "type": "string"
        },
        {
          "internalType": "uint256",
          "name": "timestamp",
          "type": "uint256"
        },
        {
          "internalType": "uint256",
          "name": "totalTips",
          "type": "uint256"
        },
        {
          "internalType": "bool",
          "name": "isActive",
          "type": "bool"
        }
      ],
      "stateMutability": "view",
      "type": "function"
    },
    {
      "inputs": [
        {
          "internalType": "address",
          "name": "from",
          "type": "address"
        },
        {
          "internalType": "address",
          "name": "to",
          "type": "address"
        },
        {
          "internalType": "uint256",
          "name": "tokenId",
          "type": "uint256"
        }
      ],
      "name": "safeTransferFrom",
      "outputs": [],
      "stateMutability": "nonpayable",
      "type": "function"
    },
    {
      "inputs": [
        {
          "internalType": "address",
          "name": "from",
          "type": "address"
        },
        {
          "internalType": "address",
          "name": "to",
          "type": "address"
        },
        {
          "internalType": "uint256",
          "name": "tokenId",
          "type": "uint256"
        },
        {
          "internalType": "bytes",
          "name": "data",
          "type": "bytes"
        }
      ],
      "name": "safeTransferFrom",
      "outputs": [],
      "stateMutability": "nonpayable",
      "type": "function"
    },
    {
      "inputs": [
        {
          "internalType": "address",
          "name": "operator",
          "type": "address"
        },
        {
          "internalType": "bool",
          "name": "approved",
          "type": "bool"
        }
      ],
      "name": "setApprovalForAll",
      "outputs": [],
      "stateMutability": "nonpayable",
      "type": "function"
    },
    {
      "inputs": [
        {
          "internalType": "string",
          "name": "_baseImageURI",
          "type": "string"
        }
      ],
      "name": "setBaseImageURI",
      "outputs": [],
      "stateMutability": "nonpayable",
      "type": "function"
    },
    {
      "inputs": [
        {
          "internalType": "address",
          "name": "_paymentProcessor",
          "type": "address"
        }
      ],
      "name": "setPaymentProcessor",
      "outputs": [],
      "stateMutability": "nonpayable",
      "type": "function"
    },
    {
      "inputs": [
        {
          "internalType": "bytes4",
          "name": "interfaceId",
          "type": "bytes4"
        }
      ],
      "name": "supportsInterface",
      "outputs": [
        {
          "internalType": "bool",
          "name": "",
          "type": "bool"
        }
      ],
      "stateMutability": "view",
      "type": "function"
    },
    {
      "inputs": [],
      "name": "symbol",
      "outputs": [
        {
          "internalType": "string",
          "name": "",
          "type": "string"
        }
      ],
      "stateMutability": "view",
      "type": "function"
    },
    {
      "inputs": [
        {
          "internalType": "uint256",
          "name": "_tokenId",
          "type": "uint256"
        }
      ],
      "name": "tipReview",
      "outputs": [],
      "stateMutability": "payable",
      "type": "function"
    },
    {
      "inputs": [
        {
          "internalType": "uint256",
          "name": "tokenId",
          "type": "uint256"
        }
      ],
      "name": "tokenURI",
      "outputs": [
        {
          "internalType": "string",
          "name": "",
          "type": "string"
        }
      ],
      "stateMutability": "view",
      "type": "function"
    },
    {
      "inputs": [],
      "name": "totalReviews",
      "outputs": [
        {
          "internalType": "uint256",
          "name": "",
          "type": "uint256"
        }
      ],
      "stateMutability": "view",
      "type": "function"
    },
    {
      "inputs": [
        {
          "internalType": "address",
          "name": "from",
          "type": "address"
        },
        {
          "internalType": "address",
          "name": "to",
          "type": "address"
        },
        {
          "internalType": "uint256",
          "name": "tokenId",
          "type": "uint256"
        }
      ],
      "name": "transferFrom",
      "outputs": [],
      "stateMutability": "nonpayable",
      "type": "function"
    },
    {
      "inputs": [
        {
          "internalType": "address",
          "name": "newOwner",
          "type": "address"
        }
      ],
      "name": "transferOwnership",
      "outputs": [],
      "stateMutability": "nonpayable",
      "type": "function"
    },
    {
      "inputs": [],
      "name": "unpause",
      "outputs": [],
      "stateMutability": "nonpayable",
      "type": "function"
    }
  ],
  "bytecode": "0x60806040523462000464576200334e803803806200001d816200049f565b928339810190604081830312620004645780516001600160a01b03928382169291839003620004645760208281015190926001600160401b03919082821162000464570191601f9080828501121562000464578351908382116200046957601f199462000090838501871688016200049f565b91838352878483010111620004645790869160005b8481106200044f575050600092010152620000bf6200047f565b93601585527f52657374617572616e7420526576696577204e4654000000000000000000000081860152620000f36200047f565b90600494858352631493919560e21b8284015286518581116200043a57600054976001988981811c911680156200042f575b858210146200041a57908187849311620003c4575b5084908783116001146200035f5760009262000353575b5050600019600383901b1c191690881b176000555b82519485116200033e5786548781811c9116801562000333575b838210146200031e57908185879695949311620002c2575b50819385116001146200025a5750506000926200024e575b5050600019600383901b1c191690831b1782555b3315620002365750600780546001600160a01b0319808216339081179093556040519590939291167f8be0079c531659141344cd1fd0a4f28419497f9722a3daafe3b4186f6b6457e0600080a3806008558060105560145560056015556013541617601355612e889081620004c68239f35b602490600060405191631e4fbdf760e01b8352820152fd5b015190503880620001b0565b879593929193168560005283600020936000905b828210620002a857505084116200028e575b505050811b018255620001c4565b015160001960f88460031b161c1916905538808062000280565b84840151865589979095019493840193908101906200026e565b90919293945087600052826000208580880160051c82019285891062000314575b9188978b9297969594930160051c01915b8281106200030457505062000198565b600081558897508a9101620002f4565b92508192620002e3565b602287634e487b7160e01b6000525260246000fd5b90607f169062000180565b604186634e487b7160e01b6000525260246000fd5b01519050388062000151565b90848b94169160008052866000209260005b88828210620003ad575050841162000393575b505050811b0160005562000166565b015160001960f88460031b161c1916905538808062000384565b8385015186558e9790950194938401930162000371565b90915060008052846000208780850160051c82019287861062000410575b918c91869594930160051c01915b828110620004005750506200013a565b600081558594508c9101620003f0565b92508192620003e2565b602289634e487b7160e01b6000525260246000fd5b90607f169062000125565b604187634e487b7160e01b6000525260246000fd5b818101840151838201850152889301620000a5565b600080fd5b634e487b7160e01b600052604160045260246000fd5b60408051919082016001600160401b038111838210176200046957604052565b6040519190601f01601f191682016001600160401b03811183821017620004695760405256fe608080604052600436101561001357600080fd5b60003560e01c90816301ffc9a71461242257508063038642ba1461240457806306fdde0314612359578063081812fc1461231b578063088b0d751461229c578063095ea7b3146121b557806309d1dbf41461216d57806322f1f94b14611fcd57806323b872dd14611fb65780632a7bd27914611f3b5780632c89494a14611eb45780632fd8030b14611e5a57806336967ebc14611e295780633f4ba83a14611dbf57806342842e0e14611d91578063436efd5c14611d095780635c975abb14611ce65780636352211e14611cb6578063682738c414611c5b57806370a0823114611c02578063715018a614611ba55780638456cb5914611b4b5780638647ca7614611b115780638da5cb5b14611ae857806395d89b4114611a05578063990581b614611847578063a22cb46514611799578063a3c40f9c14611689578063b69ae9f81461163f578063b88d4fde146115d2578063baff8bf1146115b4578063c1b2ecac146104fa578063c87b56dd146104a1578063dfe6b5d61461042a578063e23678901461040c578063e83ddcea1461033c578063e985e9c5146102e6578063f1c6bdf8146102bd578063f2fde38b146102345763f7621815146101d757600080fd5b3461022f57604036600319011261022f576101f06124ef565b6001600160a01b03166000908152600b602052604090208054602435919082101561022f57602091610221916125b9565b90546040519160031b1c8152f35b600080fd5b3461022f57602036600319011261022f5761024d6124ef565b610255612a72565b6001600160a01b039081169081156102a457600754826001600160601b0360a01b821617600755167f8be0079c531659141344cd1fd0a4f28419497f9722a3daafe3b4186f6b6457e0600080a3005b604051631e4fbdf760e01b815260006004820152602490fd5b3461022f57600036600319011261022f576013546040516001600160a01b039091168152602090f35b3461022f57604036600319011261022f576102ff6124ef565b610307612505565b9060018060a01b03809116600052600560205260406000209116600052602052602060ff604060002054166040519015158152f35b3461022f57602036600319011261022f57600435600052600a6020526040600020805460018060a01b03908160018401541691600284015416926003810154906103f460ff600483015416936103e6610397600585016126e6565b6103a3600686016126e6565b9260078601549760ff6009600889015498015416976040519b8c9b610140948d5260208d015260408c015260608b015260808a01528060a08a01528801906124ca565b9086820360c08801526124ca565b9260e085015261010084015215156101208301520390f35b3461022f57600036600319011261022f576020601154604051908152f35b3461022f57600036600319011261022f576000600180601054915b82811061046d57505060115460408051918252602082019390935291820152606090f35b0390f35b80600052600a60205260ff6009604060002001541661048e575b8101610445565b9261049982916129ee565b939050610487565b3461022f57602036600319011261022f576004356104be81612a37565b5060005260066020526104696104d760406000206126e6565b60006040516104e58161261e565b526040519182916020835260208301906124ca565b3461022f5760c036600319011261022f576105136124ef565b61051b612505565b906064359060ff8216820361022f576084356001600160401b03811161022f5761054990369060040161258c565b60a4939193356001600160401b03811161022f5761056b90369060040161258c565b6013549091906001600160a01b0316330361157657610588612a9e565b60145460ff8516101580611567575b15611531576001600160a01b038516156114ec576001600160a01b038716156114a757821561146b57811561142657604435600052600f60205260ff604060002054166113d55761064091610634601054976105f2896129ee565b6010556040519561060287612602565b8987526001600160a01b0389811660208901528b166040880152604435606088015260ff881660808801523691612675565b60a08501523691612675565b60c08201524260e08201526000610100820152600161012082015283600052600a602052604060002090805182556001820160018060a01b036020830151166001600160601b0360a01b8254161790556002820160018060a01b036040830151166001600160601b0360a01b825416179055606081015160038301556004820160ff60808301511660ff1982541617905560a08101518051906001600160401b038211610f6f5781906106f660058601546126ac565b601f8111611382575b50602090601f831160011461131057600092611305575b50508160011b916000199060031b1c19161760058301555b60c08101518051906001600160401b038211610f6f5761075160068501546126ac565b601f81116112be575b50602090601f8311600114611244579282600993610120936107c39796600092611239575b50508160011b916000199060031b1c19161760068501555b60e0810151600785015561010081015160088501550151151591019060ff801983541691151516179055565b60018060a01b038216600052600b6020526107e28360406000206129fd565b60018060a01b038416600052600c6020526108018360406000206129fd565b604435600052600f6020526040600020600160ff1982541617905560018060a01b038416600052600d602052604060002061083c81546129ee565b808255600182019061085260ff85168354612812565b8092558160648102046064148215171561122357801561120d57606460029202049101556040516108828161261e565b6000808252848152600260205260409020546001600160a01b0316801515908590826111d6575b6001600160a01b0386166000818152600360209081526040808320805460010190558583526002909152812080546001600160a01b031916831790559091907fddf252ad1be2c89b69c2b068fc378daa952ba7f163c4a11628f55a4df523b3ef9080a46111bd57823b61109f575b5082600052600a602052604060002060ff60096040519261093784612602565b8054845260018101546001600160a01b03908116602086015260028201541660408501526003810154606085015260048101548316608085015261097d600582016126e6565b60a085015261098e600682016126e6565b60c0850152600781015460e0850152600881015461010085015201541615156101208201526040516109bf8161261e565b600081529060005b6005811061100a57506109d985612c0b565b9160c0820151906109e987612c0b565b9260c081015191610a0060ff608084015116612c0b565b93610a1c610100610a1460e0860151612c0b565b940151612c0b565b9560405197717b226e616d65223a2022526576696577202360701b60208a0152610a5081518092602060328d0191016124a7565b8801916201016960ed1b6032840152610ac281516020830194610a778260358301886124a7565b01917f222c20226465736372697074696f6e223a202252657374617572616e7420726560358401526c03b34b2bb9027232a103337b91609d1b605584015251809460628401906124a7565b6c1116101134b6b0b3b2911d101160991b818401606201526012546000939091610aeb836126ac565b9260018116908115610fe55750600114610f85575b5050509387969293610d479894602084610b2689610ce59b9760e39b51948592016124a7565b0192752e706e67222c202261747472696275746573223a205b60501b84527f7b2274726169745f74797065223a202252657374617572616e74222c20227661601685015266363ab2911d101160c91b93846036820152610b90825180936020603d850191016124a7565b0193630113e96160e51b9485603d8201527f7b2274726169745f74797065223a2022526174696e67222c202276616c7565226041820152621d101160e91b6061820152610be78251809360206064850191016124a7565b018460648201527f7b2274726169745f74797065223a20225374617273222c202276616c7565223a606882015261101160f11b6088820152610c33825180936020608a850191016124a7565b0183608a8201527f7b2274726169745f74797065223a202254696d657374616d70222c202276616c608e820152653ab2911d101160d11b60ae820152610c8382518093602060b4850191016124a7565b019160b48301527f7b2274726169745f74797065223a2022546f74616c2054697073222c2022766160b883015260d8820152610cc982518093602060df850191016124a7565b0163227d5d7d60e01b60df8201520360c3810184520182612639565b60405190610cf2826125e7565b604082527f4142434445464748494a4b4c4d4e4f505152535455565758595a61626364656660208301527f6768696a6b6c6d6e6f707172737475767778797a303132333435363738392b2f6040830152612d4f565b610d9a603d60405180937f646174613a6170706c69636174696f6e2f6a736f6e3b6261736536342c0000006020830152610d8a81518092602086860191016124a7565b810103601d810184520182612639565b8360005260066020526040600020908051906001600160401b038211610f6f57610dc483546126ac565b601f8111610f27575b50916020969186938890601f8311600114610e99579180606094927f65dcce91a0f0430ead9b21fcf02b509cfa1f097c453ef6235bb03b918a9383e99694600092610e8e575b50508160011b916000199060031b1c19161790555b7ff8e1a15aba9398e019f0b49df1a4fde98ee17ae345cb5f6b5e2c27f5033e8ce788604051868152a1610e5c6011546129ee565b60115560408051604435815260ff969096168987015242908601526001600160a01b03908116951693a4604051908152f35b015190508b80610e13565b90601f19831691846000528a6000209260005b818110610f0d57509260019285927f65dcce91a0f0430ead9b21fcf02b509cfa1f097c453ef6235bb03b918a9383e998966060989610610ef4575b505050811b019055610e28565b015160001960f88460031b161c191690558b8080610ee7565b8284015185558b9850600190940193928c01928c01610eac565b836000526020600020601f840160051c81019160208510610f65575b601f0160051c01905b818110610f595750610dcd565b60008155600101610f4c565b9091508190610f43565b634e487b7160e01b600052604160045260246000fd5b909192935060126000527fbb8a6a4669ba250d26cd7a459eca9d215f8307e33aebe50379bc5a3617ec34446000905b848210610fcc5750500101606f019083836020610b00565b60018160209254606f8588880101015201910190610fb4565b60ff1916606f9290930182810193909352508215159092020101915083836020610b00565b9160019060ff60808401511684106000146110605761105860236040518361103c8295518092602080860191016124a7565b8101620e2ad960ec1b6020820152036003810184520182612639565b925b016109c7565b61109960236040518361107d8295518092602080860191016124a7565b810162714c4360e91b6020820152036003810184520182612639565b9261105a565b60206110de916040969594965180938192630a85bd0160e11b8352336004840152600060248401528760448401526080606484015260848301906124ca565b038160006001600160a01b038a165af160009181611178575b50611136578461110561281f565b805191908261112f57604051633250574960e11b81526001600160a01b0383166004820152602490fd5b9050602001fd5b929391926001600160e01b03191663757a42ff60e11b016111575784610917565b604051633250574960e11b81526001600160a01b0383166004820152602490fd5b9091506020813d6020116111b5575b8161119460209383612639565b8101031261022f57516001600160e01b03198116810361022f5790866110f7565b3d9150611187565b6040516339e3563760e11b815260006004820152602490fd5b600082815260046020526040902080546001600160a01b0319169055806000526003602052604060002060001981540190556108a9565b634e487b7160e01b600052601260045260246000fd5b634e487b7160e01b600052601160045260246000fd5b015190508b8061077f565b906006850160005260206000209160005b601f19851681106112a6575083610120936107c3979693600193600997601f1981161061128d575b505050811b016006850155610797565b015160001960f88460031b161c191690558b808061127d565b91926020600181928685015181550194019201611255565b600685016000526020600020601f840160051c8101602085106112fe575b601f830160051c820181106112f257505061075a565b600081556001016112dc565b50806112dc565b015190508880610716565b9250600585016000526020600020906000935b601f1984168510611367576001945083601f1981161061134e575b505050811b01600583015561072e565b015160001960f88460031b161c1916905588808061133e565b81810151835560209485019460019093019290910190611323565b909150600585016000526020600020601f840160051c8101602085106113ce575b90849392915b601f830160051c820181106113bf5750506106ff565b600081558594506001016113a9565b50806113a3565b60405162461bcd60e51b815260206004820152602360248201527f52657669657720616c72656164792065786973747320666f72207468697320626044820152621a5b1b60ea1b6064820152608490fd5b60405162461bcd60e51b815260206004820152601860248201527f52657374617572616e74206e616d6520726571756972656400000000000000006044820152606490fd5b60405162461bcd60e51b815260206004820152601460248201527314995d9a595dc81d195e1d081c995c5d5a5c995960621b6044820152606490fd5b60405162461bcd60e51b815260206004820152601a60248201527f496e76616c69642072657374617572616e7420616464726573730000000000006044820152606490fd5b60405162461bcd60e51b815260206004820152601860248201527f496e76616c6964207265766965776572206164647265737300000000000000006044820152606490fd5b60405162461bcd60e51b815260206004820152600e60248201526d496e76616c696420726174696e6760901b6044820152606490fd5b5060155460ff85161115610597565b60405162461bcd60e51b815260206004820152601660248201527527b7363c903830bcb6b2b73a10383937b1b2b9b9b7b960511b6044820152606490fd5b3461022f57600036600319011261022f576020601454604051908152f35b3461022f57608036600319011261022f576115eb6124ef565b6115f3612505565b90604435606435926001600160401b03841161022f573660238501121561022f5761162b61163d943690602481600401359101612675565b9261163783838361284f565b33612abc565b005b3461022f57604036600319011261022f576116586124ef565b6001600160a01b03166000908152600c602052604090208054602435919082101561022f57602091610221916125b9565b3461022f57604036600319011261022f576004356024356001600160401b03811161022f576116bc90369060040161258c565b91908160005260026020526116df60018060a01b0360406000205416151561278b565b821561175b577fff3f74cbc8e2959657130eb7396f3fff29ca8e98c6cf44cf702c409827b2300e9082600052600a60205261172460ff600960406000200154166127cf565b83604051916040835281604084015260608301376000606085830101524260208201526060813395601f80199101168101030190a3005b60405162461bcd60e51b815260206004820152601660248201527514995c1bdc9d081c99585cdbdb881c995c5d5a5c995960521b6044820152606490fd5b3461022f57604036600319011261022f576117b26124ef565b602435908115159081830361022f576001600160a01b031691821561182e576118009033600052600560205260406000208460005260205260406000209060ff801983541691151516179055565b6040519081527f17307eab39ab6107e8899845ad3d59bd9653f200f220920489ca2b5937696c3160203392a3005b604051630b61174360e31b815260048101849052602490fd5b3461022f57602036600319011261022f57600435600061012060405161186c81612602565b828152826020820152826040820152826060820152826080820152606060a0820152606060c08201528260e08201528261010082015201528060005260026020526118c560018060a01b0360406000205416151561278b565b600052600a602052604060002060ff6009604051926118e384612602565b8054845260018101546001600160a01b039081166020860152600282015416604085015260038101546060850152600481015483166080850152611929600582016126e6565b60a085015261193a600682016126e6565b60c0850152600781015460e0850152600881015461010085015201541615156101208201526040518091602082528051602083015260018060a01b03602082015116604083015260018060a01b0360408201511660608301526060810151608083015260ff60808201511660a083015260a08101516101206119e36119cd610140938460c08801526101608701906124ca565b60c0850151868203601f190160e08801526124ca565b9260e08101516101008601526101008101518286015201511515908301520390f35b3461022f57600036600319011261022f57604051600060018260015492611a2b846126ac565b9283835260209485600182169182600014611ac8575050600114611a6b575b50611a5792500383612639565b6104696040519282849384528301906124ca565b84915060016000527fb10e2d527612073b26eecdfd717e6a320cf44b4afac2b0732d9fcbe2b7fa0cf6906000915b858310611ab0575050611a57935082010185611a4a565b80548389018501528794508693909201918101611a99565b60ff191685820152611a5795151560051b8501019250879150611a4a9050565b3461022f57600036600319011261022f576007546040516001600160a01b039091168152602090f35b3461022f57602036600319011261022f576004356001600160401b03811161022f57611b4190369060040161258c565b505061163d612a72565b3461022f57600036600319011261022f57611b64612a72565b611b6c612a9e565b600160ff1960095416176009557f62e78cea01bee320cd4e420270b5ea74000d11b0c9f74754ebdbfc544b05a2586020604051338152a1005b3461022f57600036600319011261022f57611bbe612a72565b600780546001600160a01b031981169091556000906001600160a01b03167f8be0079c531659141344cd1fd0a4f28419497f9722a3daafe3b4186f6b6457e08280a3005b3461022f57602036600319011261022f576001600160a01b03611c236124ef565b168015611c425760005260036020526020604060002054604051908152f35b6040516322718ad960e21b815260006004820152602490fd5b3461022f57602036600319011261022f576001600160a01b03611c7c6124ef565b16600052600d6020526040600020805461046960026001840154930154604051938493846040919493926060820195825260208201520152565b3461022f57602036600319011261022f576020611cd4600435612a37565b6040516001600160a01b039091168152f35b3461022f57600036600319011261022f57602060ff600954166040519015158152f35b3461022f57602036600319011261022f57611d226124ef565b600060408051611d31816125e7565b828152826020820152015260018060a01b0316600052600d60205260606040600020604051611d5f816125e7565b815491828252604060026001830154926020850193845201549201918252604051928352516020830152516040820152f35b3461022f5761163d611da23661251b565b9060405192611db08461261e565b6000845261163783838361284f565b3461022f57600036600319011261022f57611dd8612a72565b60095460ff811615611e175760ff19166009557f5db9ee0a495bf2e6ff9c91a7834c1ba4fdd244a5e8aa4e537bd38aeae4b073aa6020604051338152a1005b604051638dfc202b60e01b8152600490fd5b3461022f57602036600319011261022f57600435600052600f602052602060ff604060002054166040519015158152f35b3461022f57602036600319011261022f57600435611e76612a72565b600081815260026020526040902054611e99906001600160a01b0316151561278b565b6000908152600a60205260409020600901805460ff19169055005b3461022f5760208060031936011261022f576001600160a01b03611ed66124ef565b16600052600c6020526040600020906040519081602084549182815201936000526020600020916000905b828210611f245761046985611f1881890382612639565b60405191829182612550565b835486529485019460019384019390910190611f01565b3461022f5760208060031936011261022f576001600160a01b03611f5d6124ef565b16600052600b6020526040600020906040519081602084549182815201936000526020600020916000905b828210611f9f5761046985611f1881890382612639565b835486529485019460019384019390910190611f88565b3461022f5761163d611fc73661251b565b9161284f565b60208060031936011261022f5760043560026008541461215b576002600855611ff4612a9e565b60008181526002835260409020546001600160a01b0390612018908216151561278b565b341561210c57600080808093858252600a875261203e60ff6009604085200154166127cf565b858252600a87526040822090600861205588612a37565b92888552600e8a52604085203386528a5260408520612075348254612812565b905501612083348254612812565b90553491165af161209261281f565b50156120d1576040519134835242908301527fc07e11eb2321c2c805c8443a6adc437b65d8dfa24956afa1c8c0f28e6ac927e360403393a36001600855005b60405162461bcd60e51b8152600481018390526013602482015272151a5c081d1c985b9cd9995c8819985a5b1959606a1b6044820152606490fd5b60405162461bcd60e51b815260048101849052602160248201527f54697020616d6f756e74206d7573742062652067726561746572207468616e206044820152600360fc1b6064820152608490fd5b604051633ee5aeb560e01b8152600490fd5b3461022f57604036600319011261022f57612186612505565b600435600052600e60205260406000209060018060a01b03166000526020526020604060002054604051908152f35b3461022f57604036600319011261022f576121ce6124ef565b6024356121da81612a37565b33151580612289575b8061225c575b612244576001600160a01b039283169282918491167f8c5be1e5ebec7d5bd14f71427d1e84f3dd0314c0f7b2291e5b200ac8c7c3b925600080a4600090815260046020526040902080546001600160a01b0319169091179055005b60405163a9fbf51f60e01b8152336004820152602490fd5b5060018060a01b038116600052600560205260406000203360005260205260ff60406000205416156121e9565b506001600160a01b0381163314156121e3565b3461022f57602036600319011261022f576122b56124ef565b6122bd612a72565b6001600160a01b031680156122e4576001600160601b0360a01b6013541617601355600080f35b60405162461bcd60e51b815260206004820152600f60248201526e496e76616c6964206164647265737360881b6044820152606490fd5b3461022f57602036600319011261022f5760043561233881612a37565b506000526004602052602060018060a01b0360406000205416604051908152f35b3461022f57600036600319011261022f5760405160008054908261237c836126ac565b9182825260209360019085600182169182600014611ac85750506001146123aa5750611a5792500383612639565b6000808052859250907f290decd9548b62a8d60345a988386fc84ba6bc95484008f6362f93160ef3e5635b8583106123ec575050611a57935082010185611a4a565b805483890185015287945086939092019181016123d5565b3461022f57600036600319011261022f576020601554604051908152f35b3461022f57602036600319011261022f576004359063ffffffff60e01b821680920361022f57602091632483248360e11b8114908115612464575b5015158152f35b6380ac58cd60e01b811491508115612496575b8115612485575b508361245d565b6301ffc9a760e01b1490508361247e565b635b5e139f60e01b81149150612477565b60005b8381106124ba5750506000910152565b81810151838201526020016124aa565b906020916124e3815180928185528580860191016124a7565b601f01601f1916010190565b600435906001600160a01b038216820361022f57565b602435906001600160a01b038216820361022f57565b606090600319011261022f576001600160a01b0390600435828116810361022f5791602435908116810361022f579060443590565b602090602060408183019282815285518094520193019160005b828110612578575050505090565b83518552938101939281019260010161256a565b9181601f8401121561022f578235916001600160401b03831161022f576020838186019501011161022f57565b80548210156125d15760005260206000200190600090565b634e487b7160e01b600052603260045260246000fd5b606081019081106001600160401b03821117610f6f57604052565b61014081019081106001600160401b03821117610f6f57604052565b602081019081106001600160401b03821117610f6f57604052565b90601f801991011681019081106001600160401b03821117610f6f57604052565b6001600160401b038111610f6f57601f01601f191660200190565b9291926126818261265a565b9161268f6040519384612639565b82948184528183011161022f578281602093846000960137010152565b90600182811c921680156126dc575b60208310146126c657565b634e487b7160e01b600052602260045260246000fd5b91607f16916126bb565b906040519182600082546126f9816126ac565b90818452602094600191600181169081600014612769575060011461272a575b50505061272892500383612639565b565b600090815285812095935091905b8183106127515750506127289350820101388080612719565b85548884018501529485019487945091830191612738565b9250505061272894925060ff191682840152151560051b820101388080612719565b1561279257565b60405162461bcd60e51b815260206004820152601560248201527414995d9a595dc8191bd95cc81b9bdd08195e1a5cdd605a1b6044820152606490fd5b156127d657565b60405162461bcd60e51b8152602060048201526014602482015273526576696577206973206e6f742061637469766560601b6044820152606490fd5b9190820180921161122357565b3d1561284a573d906128308261265a565b9161283e6040519384612639565b82523d6000602084013e565b606090565b6001600160a01b0391821692909183156129d55760009282845282602095600287526040968488882054169687913315158061293f575b509060027fddf252ad1be2c89b69c2b068fc378daa952ba7f163c4a11628f55a4df523b3ef928461290c575b858352600381528b8320805460010190558683525289812080546001600160a01b0319168517905580a416928383036128eb5750505050565b6064945051926364283d7b60e01b8452600484015260248301526044820152fd5b600087815260046020526040902080546001600160a01b0319169055848352600381528b832080546000190190556128b2565b91939450915080612994575b1561295b57859291879138612886565b878688612978576024915190637e27328960e01b82526004820152fd5b604491519063177e802f60e01b82523360048301526024820152fd5b5033871480156129b9575b8061294b575085825260048152338589842054161461294b565b5086825260058152878220338352815260ff888320541661299f565b604051633250574960e11b815260006004820152602490fd5b60001981146112235760010190565b805468010000000000000000811015610f6f57612a1f916001820181556125b9565b819291549060031b91821b91600019901b1916179055565b6000818152600260205260409020546001600160a01b0316908115612a5a575090565b60249060405190637e27328960e01b82526004820152fd5b6007546001600160a01b03163303612a8657565b60405163118cdaa760e01b8152336004820152602490fd5b60ff60095416612aaa57565b60405163d93c066560e01b8152600490fd5b9293823b612acc575b5050505050565b612b109060018060a01b038094169560405194859481630a85bd0160e11b9889885216600487015216602485015260448401526080606484015260848301906124ca565b03906020816000938185885af190829082612b89575b5050612b575782612b3561281f565b805191908261112f57604051633250574960e11b815260048101839052602490fd5b6001600160e01b03191603612b7157503880808080612ac5565b60249060405190633250574960e11b82526004820152fd5b909192506020813d602011612bd1575b81612ba660209383612639565b81010312612bcd5751906001600160e01b031982168203612bca5750903880612b26565b80fd5b5080fd5b3d9150612b99565b90612be38261265a565b612bf06040519182612639565b8281528092612c01601f199161265a565b0190602036910137565b806000917a184f03e93ff9f4daa797ed6e38ed64bf6a1f01000000000000000080821015612d41575b506d04ee2d6d415b85acef810000000080831015612d32575b50662386f26fc1000080831015612d23575b506305f5e10080831015612d14575b5061271080831015612d05575b506064821015612cf5575b600a80921015612ceb575b600190816021612ca360018701612bd9565b95860101905b612cb5575b5050505090565b600019019083906f181899199a1a9b1b9c1cb0b131b232b360811b8282061a835304918215612ce657919082612ca9565b612cae565b9160010191612c91565b9190606460029104910191612c86565b60049193920491019138612c7b565b60089193920491019138612c6e565b60109193920491019138612c5f565b60209193920491019138612c4d565b604093508104915038612c34565b919091805115612e3c5780519260029160028501809511611223576003948590046001600160fe1b038116810361122357612d8f9060029694961b612bd9565b926020840192829183518401976020890192835194600085525b8a8110612def57505050506003939495965052510680600114612ddc57600214612dd1575090565b603d90600019015390565b50603d9081600019820153600119015390565b836004919b989b019a8b51600190603f9082828260121c16870101518453828282600c1c16870101518385015382828260061c168701015187850153168401015185820153019699612da9565b509050604051612e4b8161261e565b600081529056fea2646970667358221220a8fd81d0e85351237971442006330108da41dea47558a20be177b15e623c918764736f6c63430008180033",
  "linkReferences": {},
  "deployedLinkReferences": {}
}