{"contracts/ReviewNFT.sol":{"ReviewNFT":{"abi":[{"inputs":[{"internalType":"address","name":"_paymentProcessor","type":"address"},{"internalType":"string","name":"_baseImageURI","type":"string"}],"stateMutability":"nonpayable","type":"constructor"},{"inputs":[{"internalType":"address","name":"sender","type":"address"},{"internalType":"uint256","name":"tokenId","type":"uint256"},{"internalType":"address","name":"owner","type":"address"}],"name":"ERC721IncorrectOwner","type":"error"},{"inputs":[{"internalType":"address","name":"operator","type":"address"},{"internalType":"uint256","name":"tokenId","type":"uint256"}],"name":"ERC721InsufficientApproval","type":"error"},{"inputs":[{"internalType":"address","name":"approver","type":"address"}],"name":"ERC721InvalidApprover","type":"error"},{"inputs":[{"internalType":"address","name":"operator","type":"address"}],"name":"ERC721InvalidOperator","type":"error"},{"inputs":[{"internalType":"address","name":"owner","type":"address"}],"name":"ERC721InvalidOwner","type":"error"},{"inputs":[{"internalType":"address","name":"receiver","type":"address"}],"name":"ERC721InvalidReceiver","type":"error"},{"inputs":[{"internalType":"address","name":"sender","type":"address"}],"name":"ERC721InvalidSender","type":"error"},{"inputs":[{"internalType":"uint256","name":"tokenId","type":"uint256"}],"name":"ERC721NonexistentToken","type":"error"},{"inputs":[],"name":"EnforcedPause","type":"error"},{"inputs":[],"name":"ExpectedPause","type":"error"},{"inputs":[{"internalType":"address","name":"owner","type":"address"}],"name":"OwnableInvalidOwner","type":"error"},{"inputs":[{"internalType":"address","name":"account","type":"address"}],"name":"OwnableUnauthorizedAccount","type":"error"},{"inputs":[],"name":"ReentrancyGuardReentrantCall","type":"error"},{"anonymous":false,"inputs":[{"indexed":true,"internalType":"address","name":"owner","type":"address"},{"indexed":true,"internalType":"address","name":"approved","type":"address"},{"indexed":true,"internalType":"uint256","name":"tokenId","type":"uint256"}],"name":"Approval","type":"event"},{"anonymous":false,"inputs":[{"indexed":true,"internalType":"address","name":"owner","type":"address"},{"indexed":true,"internalType":"address","name":"operator","type":"address"},{"indexed":false,"internalType":"bool","name":"approved","type":"bool"}],"name":"ApprovalForAll","type":"event"},{"anonymous":false,"inputs":[{"indexed":false,"internalType":"uint256","name":"_fromTokenId","type":"uint256"},{"indexed":false,"internalType":"uint256","name":"_toTokenId","type":"uint256"}],"name":"BatchMetadataUpdate","type":"event"},{"anonymous":false,"inputs":[{"indexed":false,"internalType":"uint256","name":"_tokenId","type":"uint256"}],"name":"MetadataUpdate","type":"event"},{"anonymous":false,"inputs":[{"indexed":true,"internalType":"address","name":"previousOwner","type":"address"},{"indexed":true,"internalType":"address","name":"newOwner","type":"address"}],"name":"OwnershipTransferred","type":"event"},{"anonymous":false,"inputs":[{"indexed":false,"internalType":"address","name":"account","type":"address"}],"name":"Paused","type":"event"},{"anonymous":false,"inputs":[{"indexed":true,"internalType":"uint256","name":"tokenId","type":"uint256"},{"indexed":true,"internalType":"address","name":"reviewer","type":"address"},{"indexed":true,"internalType":"address","name":"restaurant","type":"address"},{"indexed":false,"internalType":"uint256","name":"billId","type":"uint256"},{"indexed":false,"internalType":"uint8","name":"rating","type":"uint8"},{"indexed":false,"internalType":"uint256","name":"timestamp","type":"uint256"}],"name":"ReviewCreated","type":"event"},{"anonymous":false,"inputs":[{"indexed":true,"internalType":"uint256","name":"tokenId","type":"uint256"},{"indexed":true,"internalType":"address","name":"reporter","type":"address"},{"indexed":false,"internalType":"string","name":"reason","type":"string"},{"indexed":false,"internalType":"uint256","name":"timestamp","type":"uint256"}],"name":"ReviewReported","type":"event"},{"anonymous":false,"inputs":[{"indexed":true,"internalType":"uint256","name":"tokenId","type":"uint256"},{"indexed":true,"internalType":"address","name":"tipper","type":"address"},{"indexed":false,"internalType":"uint256","name":"amount","type":"uint256"},{"indexed":false,"internalType":"uint256","name":"timestamp","type":"uint256"}],"name":"ReviewTipped","type":"event"},{"anonymous":false,"inputs":[{"indexed":true,"internalType":"address","name":"from","type":"address"},{"indexed":true,"internalType":"address","name":"to","type":"address"},{"indexed":true,"internalType":"uint256","name":"tokenId","type":"uint256"}],"name":"Transfer","type":"event"},{"anonymous":false,"inputs":[{"indexed":false,"internalType":"address","name":"account","type":"address"}],"name":"Unpaused","type":"event"},{"inputs":[{"internalType":"address","name":"to","type":"address"},{"internalType":"uint256","name":"tokenId","type":"uint256"}],"name":"approve","outputs":[],"stateMutability":"nonpayable","type":"function"},{"inputs":[{"internalType":"address","name":"owner","type":"address"}],"name":"balanceOf","outputs":[{"internalType":"uint256","name":"","type":"uint256"}],"stateMutability":"view","type":"function"},{"inputs":[{"internalType":"uint256","name":"","type":"uint256"}],"name":"billIdUsed","outputs":[{"internalType":"bool","name":"","type":"bool"}],"stateMutability":"view","type":"function"},{"inputs":[{"internalType":"address","name":"_reviewer","type":"address"},{"internalType":"address","name":"_restaurant","type":"address"},{"internalType":"uint256","name":"_billId","type":"uint256"},{"internalType":"uint8","name":"_rating","type":"uint8"},{"internalType":"string","name":"_reviewText","type":"string"},{"internalType":"string","name":"_restaurantName","type":"string"}],"name":"createReview","outputs":[{"internalType":"uint256","name":"","type":"uint256"}],"stateMutability":"nonpayable","type":"function"},{"inputs":[{"internalType":"uint256","name":"_tokenId","type":"uint256"}],"name":"deactivateReview","outputs":[],"stateMutability":"nonpayable","type":"function"},{"inputs":[{"internalType":"uint256","name":"tokenId","type":"uint256"}],"name":"getApproved","outputs":[{"internalType":"address","name":"","type":"address"}],"stateMutability":"view","type":"function"},{"inputs":[],"name":"getContractStats","outputs":[{"internalType":"uint256","name":"totalNFTs","type":"uint256"},{"internalType":"uint256","name":"totalActiveReviews","type":"uint256"},{"internalType":"uint256","name":"nextToken","type":"uint256"}],"stateMutability":"view","type":"function"},{"inputs":[{"internalType":"address","name":"_restaurant","type":"address"}],"name":"getRestaurantStats","outputs":[{"components":[{"internalType":"uint256","name":"totalReviews","type":"uint256"},{"internalType":"uint256","name":"totalRating","type":"uint256"},{"internalType":"uint256","name":"averageRating","type":"uint256"}],"internalType":"struct ReviewNFT.RestaurantStats","name":"","type":"tuple"}],"stateMutability":"view","type":"function"},{"inputs":[{"internalType":"uint256","name":"_tokenId","type":"uint256"}],"name":"getReview","outputs":[{"components":[{"internalType":"uint256","name":"tokenId","type":"uint256"},{"internalType":"address","name":"reviewer","type":"address"},{"internalType":"address","name":"restaurant","type":"address"},{"internalType":"uint256","name":"billId","type":"uint256"},{"internalType":"uint8","name":"rating","type":"uint8"},{"internalType":"string","name":"reviewText","type":"string"},{"internalType":"string","name":"restaurantName","type":"string"},{"internalType":"uint256","name":"timestamp","type":"uint256"},{"internalType":"uint256","name":"totalTips","type":"uint256"},{"internalType":"bool","name":"isActive","type":"bool"}],"internalType":"struct ReviewNFT.Review","name":"","type":"tuple"}],"stateMutability":"view","type":"function"},{"inputs":[{"internalType":"address","name":"_restaurant","type":"address"}],"name":"getReviewsByRestaurant","outputs":[{"internalType":"uint256[]","name":"","type":"uint256[]"}],"stateMutability":"view","type":"function"},{"inputs":[{"internalType":"address","name":"_reviewer","type":"address"}],"name":"getReviewsByReviewer","outputs":[{"internalType":"uint256[]","name":"","type":"uint256[]"}],"stateMutability":"view","type":"function"},{"inputs":[{"internalType":"address","name":"owner","type":"address"},{"internalType":"address","name":"operator","type":"address"}],"name":"isApprovedForAll","outputs":[{"internalType":"bool","name":"","type":"bool"}],"stateMutability":"view","type":"function"},{"inputs":[],"name":"maximumRating","outputs":[{"internalType":"uint256","name":"","type":"uint256"}],"stateMutability":"view","type":"function"},{"inputs":[],"name":"minimumRating","outputs":[{"internalType":"uint256","name":"","type":"uint256"}],"stateMutability":"view","type":"function"},{"inputs":[],"name":"name","outputs":[{"internalType":"string","name":"","type":"string"}],"stateMutability":"view","type":"function"},{"inputs":[],"name":"owner","outputs":[{"internalType":"address","name":"","type":"address"}],"stateMutability":"view","type":"function"},{"inputs":[{"internalType":"uint256","name":"tokenId","type":"uint256"}],"name":"ownerOf","outputs":[{"internalType":"address","name":"","type":"address"}],"stateMutability":"view","type":"function"},{"inputs":[],"name":"pause","outputs":[],"stateMutability":"nonpayable","type":"function"},{"inputs":[],"name":"paused","outputs":[{"internalType":"bool","name":"","type":"bool"}],"stateMutability":"view","type":"function"},{"inputs":[],"name":"paymentProcessor","outputs":[{"internalType":"address","name":"","type":"address"}],"stateMutability":"view","type":"function"},{"inputs":[],"name":"renounceOwnership","outputs":[],"stateMutability":"nonpayable","type":"function"},{"inputs":[{"internalType":"uint256","name":"_tokenId","type":"uint256"},{"internalType":"string","name":"_reason","type":"string"}],"name":"reportReview","outputs":[],"stateMutability":"nonpayable","type":"function"},{"inputs":[{"internalType":"address","name":"","type":"address"},{"internalType":"uint256","name":"","type":"uint256"}],"name":"restaurantReviews","outputs":[{"internalType":"uint256","name":"","type":"uint256"}],"stateMutability":"view","type":"function"},{"inputs":[{"internalType":"address","name":"","type":"address"}],"name":"restaurantStats","outputs":[{"internalType":"uint256","name":"totalReviews","type":"uint256"},{"internalType":"uint256","name":"totalRating","type":"uint256"},{"internalType":"uint256","name":"averageRating","type":"uint256"}],"stateMutability":"view","type":"function"},{"inputs":[{"internalType":"uint256","name":"","type":"uint256"},{"internalType":"address","name":"","type":"address"}],"name":"reviewTips","outputs":[{"internalType":"uint256","name":"","type":"uint256"}],"stateMutability":"view","type":"function"},{"inputs":[{"internalType":"address","name":"","type":"address"},{"internalType":"uint256","name":"","type":"uint256"}],"name":"reviewerTokens","outputs":[{"internalType":"uint256","name":"","type":"uint256"}],"stateMutability":"view","type":"function"},{"inputs":[{"internalType":"uint256","name":"","type":"uint256"}],"name":"reviews","outputs":[{"internalType":"uint256","name":"tokenId","type":"uint256"},{"internalType":"address","name":"reviewer","type":"address"},{"internalType":"address","name":"restaurant","type":"address"},{"internalType":"uint256","name":"billId","type":"uint256"},{"internalType":"uint8","name":"rating","type":"uint8"},{"internalType":"string","name":"reviewText","type":"string"},{"internalType":"string","name":"restaurantName","type":"string"},{"internalType":"uint256","name":"timestamp","type":"uint256"},{"internalType":"uint256","name":"totalTips","type":"uint256"},{"internalType":"bool","name":"isActive","type":"bool"}],"stateMutability":"view","type":"function"},{"inputs":[{"internalType":"address","name":"from","type":"address"},{"internalType":"address","name":"to","type":"address"},{"internalType":"uint256","name":"tokenId","type":"uint256"}],"name":"safeTransferFrom","outputs":[],"stateMutability":"nonpayable","type":"function"},{"inputs":[{"internalType":"address","name":"from","type":"address"},{"internalType":"address","name":"to","type":"address"},{"internalType":"uint256","name":"tokenId","type":"uint256"},{"internalType":"bytes","name":"data","type":"bytes"}],"name":"safeTransferFrom","outputs":[],"stateMutability":"nonpayable","type":"function"},{"inputs":[{"internalType":"address","name":"operator","type":"address"},{"internalType":"bool","name":"approved","type":"bool"}],"name":"setApprovalForAll","outputs":[],"stateMutability":"nonpayable","type":"function"},{"inputs":[{"internalType":"string","name":"_baseImageURI","type":"string"}],"name":"setBaseImageURI","outputs":[],"stateMutability":"nonpayable","type":"function"},{"inputs":[{"internalType":"address","name":"_paymentProcessor","type":"address"}],"name":"setPaymentProcessor","outputs":[],"stateMutability":"nonpayable","type":"function"},{"inputs":[{"internalType":"bytes4","name":"interfaceId","type":"bytes4"}],"name":"supportsInterface","outputs":[{"internalType":"bool","name":"","type":"bool"}],"stateMutability":"view","type":"function"},{"inputs":[],"name":"symbol","outputs":[{"internalType":"string","name":"","type":"string"}],"stateMutability":"view","type":"function"},{"inputs":[{"internalType":"uint256","name":"_tokenId","type":"uint256"}],"name":"tipReview","outputs":[],"stateMutability":"payable","type":"function"},{"inputs":[{"internalType":"uint256","name":"tokenId","type":"uint256"}],"name":"tokenURI","outputs":[{"internalType":"string","name":"","type":"string"}],"stateMutability":"view","type":"function"},{"inputs":[],"name":"totalReviews","outputs":[{"internalType":"uint256","name":"","type":"uint256"}],"stateMutability":"view","type":"function"},{"inputs":[{"internalType":"address","name":"from","type":"address"},{"internalType":"address","name":"to","type":"address"},{"internalType":"uint256","name":"tokenId","type":"uint256"}],"name":"transferFrom","outputs":[],"stateMutability":"nonpayable","type":"function"},{"inputs":[{"internalType":"address","name":"newOwner","type":"address"}],"name":"transferOwnership","outputs":[],"stateMutability":"nonpayable","type":"function"},{"inputs":[],"name":"unpause","outputs":[],"stateMutability":"nonpayable","type":"function"}],"evm":{"bytecode":{"linkReferences":{},"object":"60806040523462000464576200334e803803806200001d816200049f565b928339810190604081830312620004645780516001600160a01b03928382169291839003620004645760208281015190926001600160401b03919082821162000464570191601f9080828501121562000464578351908382116200046957601f199462000090838501871688016200049f565b91838352878483010111620004645790869160005b8481106200044f575050600092010152620000bf6200047f565b93601585527f52657374617572616e7420526576696577204e4654000000000000000000000081860152620000f36200047f565b90600494858352631493919560e21b8284015286518581116200043a57600054976001988981811c911680156200042f575b858210146200041a57908187849311620003c4575b5084908783116001146200035f5760009262000353575b5050600019600383901b1c191690881b176000555b82519485116200033e5786548781811c9116801562000333575b838210146200031e57908185879695949311620002c2575b50819385116001146200025a5750506000926200024e575b5050600019600383901b1c191690831b1782555b3315620002365750600780546001600160a01b0319808216339081179093556040519590939291167f8be0079c531659141344cd1fd0a4f28419497f9722a3daafe3b4186f6b6457e0600080a3806008558060105560145560056015556013541617601355612e889081620004c68239f35b602490600060405191631e4fbdf760e01b8352820152fd5b015190503880620001b0565b879593929193168560005283600020936000905b828210620002a857505084116200028e575b505050811b018255620001c4565b015160001960f88460031b161c1916905538808062000280565b84840151865589979095019493840193908101906200026e565b90919293945087600052826000208580880160051c82019285891062000314575b9188978b9297969594930160051c01915b8281106200030457505062000198565b600081558897508a9101620002f4565b92508192620002e3565b602287634e487b7160e01b6000525260246000fd5b90607f169062000180565b604186634e487b7160e01b6000525260246000fd5b01519050388062000151565b90848b94169160008052866000209260005b88828210620003ad575050841162000393575b505050811b0160005562000166565b015160001960f88460031b161c1916905538808062000384565b8385015186558e9790950194938401930162000371565b90915060008052846000208780850160051c82019287861062000410575b918c91869594930160051c01915b828110620004005750506200013a565b600081558594508c9101620003f0565b92508192620003e2565b602289634e487b7160e01b6000525260246000fd5b90607f169062000125565b604187634e487b7160e01b6000525260246000fd5b818101840151838201850152889301620000a5565b600080fd5b634e487b7160e01b600052604160045260246000fd5b60408051919082016001600160401b038111838210176200046957604052565b6040519190601f01601f191682016001600160401b03811183821017620004695760405256fe608080604052600436101561001357600080fd5b60003560e01c90816301ffc9a71461242257508063038642ba1461240457806306fdde0314612359578063081812fc1461231b578063088b0d751461229c578063095ea7b3146121b557806309d1dbf41461216d57806322f1f94b14611fcd57806323b872dd14611fb65780632a7bd27914611f3b5780632c89494a14611eb45780632fd8030b14611e5a57806336967ebc14611e295780633f4ba83a14611dbf57806342842e0e14611d91578063436efd5c14611d095780635c975abb14611ce65780636352211e14611cb6578063682738c414611c5b57806370a0823114611c02578063715018a614611ba55780638456cb5914611b4b5780638647ca7614611b115780638da5cb5b14611ae857806395d89b4114611a05578063990581b614611847578063a22cb46514611799578063a3c40f9c14611689578063b69ae9f81461163f578063b88d4fde146115d2578063baff8bf1146115b4578063c1b2ecac146104fa578063c87b56dd146104a1578063dfe6b5d61461042a578063e23678901461040c578063e83ddcea1461033c578063e985e9c5146102e6578063f1c6bdf8146102bd578063f2fde38b146102345763f7621815146101d757600080fd5b3461022f57604036600319011261022f576101f06124ef565b6001600160a01b03166000908152600b602052604090208054602435919082101561022f57602091610221916125b9565b90546040519160031b1c8152f35b600080fd5b3461022f57602036600319011261022f5761024d6124ef565b610255612a72565b6001600160a01b039081169081156102a457600754826001600160601b0360a01b821617600755167f8be0079c531659141344cd1fd0a4f28419497f9722a3daafe3b4186f6b6457e0600080a3005b604051631e4fbdf760e01b815260006004820152602490fd5b3461022f57600036600319011261022f576013546040516001600160a01b039091168152602090f35b3461022f57604036600319011261022f576102ff6124ef565b610307612505565b9060018060a01b03809116600052600560205260406000209116600052602052602060ff604060002054166040519015158152f35b3461022f57602036600319011261022f57600435600052600a6020526040600020805460018060a01b03908160018401541691600284015416926003810154906103f460ff600483015416936103e6610397600585016126e6565b6103a3600686016126e6565b9260078601549760ff6009600889015498015416976040519b8c9b610140948d5260208d015260408c015260608b015260808a01528060a08a01528801906124ca565b9086820360c08801526124ca565b9260e085015261010084015215156101208301520390f35b3461022f57600036600319011261022f576020601154604051908152f35b3461022f57600036600319011261022f576000600180601054915b82811061046d57505060115460408051918252602082019390935291820152606090f35b0390f35b80600052600a60205260ff6009604060002001541661048e575b8101610445565b9261049982916129ee565b939050610487565b3461022f57602036600319011261022f576004356104be81612a37565b5060005260066020526104696104d760406000206126e6565b60006040516104e58161261e565b526040519182916020835260208301906124ca565b3461022f5760c036600319011261022f576105136124ef565b61051b612505565b906064359060ff8216820361022f576084356001600160401b03811161022f5761054990369060040161258c565b60a4939193356001600160401b03811161022f5761056b90369060040161258c565b6013549091906001600160a01b0316330361157657610588612a9e565b60145460ff8516101580611567575b15611531576001600160a01b038516156114ec576001600160a01b038716156114a757821561146b57811561142657604435600052600f60205260ff604060002054166113d55761064091610634601054976105f2896129ee565b6010556040519561060287612602565b8987526001600160a01b0389811660208901528b166040880152604435606088015260ff881660808801523691612675565b60a08501523691612675565b60c08201524260e08201526000610100820152600161012082015283600052600a602052604060002090805182556001820160018060a01b036020830151166001600160601b0360a01b8254161790556002820160018060a01b036040830151166001600160601b0360a01b825416179055606081015160038301556004820160ff60808301511660ff1982541617905560a08101518051906001600160401b038211610f6f5781906106f660058601546126ac565b601f8111611382575b50602090601f831160011461131057600092611305575b50508160011b916000199060031b1c19161760058301555b60c08101518051906001600160401b038211610f6f5761075160068501546126ac565b601f81116112be575b50602090601f8311600114611244579282600993610120936107c39796600092611239575b50508160011b916000199060031b1c19161760068501555b60e0810151600785015561010081015160088501550151151591019060ff801983541691151516179055565b60018060a01b038216600052600b6020526107e28360406000206129fd565b60018060a01b038416600052600c6020526108018360406000206129fd565b604435600052600f6020526040600020600160ff1982541617905560018060a01b038416600052600d602052604060002061083c81546129ee565b808255600182019061085260ff85168354612812565b8092558160648102046064148215171561122357801561120d57606460029202049101556040516108828161261e565b6000808252848152600260205260409020546001600160a01b0316801515908590826111d6575b6001600160a01b0386166000818152600360209081526040808320805460010190558583526002909152812080546001600160a01b031916831790559091907fddf252ad1be2c89b69c2b068fc378daa952ba7f163c4a11628f55a4df523b3ef9080a46111bd57823b61109f575b5082600052600a602052604060002060ff60096040519261093784612602565b8054845260018101546001600160a01b03908116602086015260028201541660408501526003810154606085015260048101548316608085015261097d600582016126e6565b60a085015261098e600682016126e6565b60c0850152600781015460e0850152600881015461010085015201541615156101208201526040516109bf8161261e565b600081529060005b6005811061100a57506109d985612c0b565b9160c0820151906109e987612c0b565b9260c081015191610a0060ff608084015116612c0b565b93610a1c610100610a1460e0860151612c0b565b940151612c0b565b9560405197717b226e616d65223a2022526576696577202360701b60208a0152610a5081518092602060328d0191016124a7565b8801916201016960ed1b6032840152610ac281516020830194610a778260358301886124a7565b01917f222c20226465736372697074696f6e223a202252657374617572616e7420726560358401526c03b34b2bb9027232a103337b91609d1b605584015251809460628401906124a7565b6c1116101134b6b0b3b2911d101160991b818401606201526012546000939091610aeb836126ac565b9260018116908115610fe55750600114610f85575b5050509387969293610d479894602084610b2689610ce59b9760e39b51948592016124a7565b0192752e706e67222c202261747472696275746573223a205b60501b84527f7b2274726169745f74797065223a202252657374617572616e74222c20227661601685015266363ab2911d101160c91b93846036820152610b90825180936020603d850191016124a7565b0193630113e96160e51b9485603d8201527f7b2274726169745f74797065223a2022526174696e67222c202276616c7565226041820152621d101160e91b6061820152610be78251809360206064850191016124a7565b018460648201527f7b2274726169745f74797065223a20225374617273222c202276616c7565223a606882015261101160f11b6088820152610c33825180936020608a850191016124a7565b0183608a8201527f7b2274726169745f74797065223a202254696d657374616d70222c202276616c608e820152653ab2911d101160d11b60ae820152610c8382518093602060b4850191016124a7565b019160b48301527f7b2274726169745f74797065223a2022546f74616c2054697073222c2022766160b883015260d8820152610cc982518093602060df850191016124a7565b0163227d5d7d60e01b60df8201520360c3810184520182612639565b60405190610cf2826125e7565b604082527f4142434445464748494a4b4c4d4e4f505152535455565758595a61626364656660208301527f6768696a6b6c6d6e6f707172737475767778797a303132333435363738392b2f6040830152612d4f565b610d9a603d60405180937f646174613a6170706c69636174696f6e2f6a736f6e3b6261736536342c0000006020830152610d8a81518092602086860191016124a7565b810103601d810184520182612639565b8360005260066020526040600020908051906001600160401b038211610f6f57610dc483546126ac565b601f8111610f27575b50916020969186938890601f8311600114610e99579180606094927f65dcce91a0f0430ead9b21fcf02b509cfa1f097c453ef6235bb03b918a9383e99694600092610e8e575b50508160011b916000199060031b1c19161790555b7ff8e1a15aba9398e019f0b49df1a4fde98ee17ae345cb5f6b5e2c27f5033e8ce788604051868152a1610e5c6011546129ee565b60115560408051604435815260ff969096168987015242908601526001600160a01b03908116951693a4604051908152f35b015190508b80610e13565b90601f19831691846000528a6000209260005b818110610f0d57509260019285927f65dcce91a0f0430ead9b21fcf02b509cfa1f097c453ef6235bb03b918a9383e998966060989610610ef4575b505050811b019055610e28565b015160001960f88460031b161c191690558b8080610ee7565b8284015185558b9850600190940193928c01928c01610eac565b836000526020600020601f840160051c81019160208510610f65575b601f0160051c01905b818110610f595750610dcd565b60008155600101610f4c565b9091508190610f43565b634e487b7160e01b600052604160045260246000fd5b909192935060126000527fbb8a6a4669ba250d26cd7a459eca9d215f8307e33aebe50379bc5a3617ec34446000905b848210610fcc5750500101606f019083836020610b00565b60018160209254606f8588880101015201910190610fb4565b60ff1916606f9290930182810193909352508215159092020101915083836020610b00565b9160019060ff60808401511684106000146110605761105860236040518361103c8295518092602080860191016124a7565b8101620e2ad960ec1b6020820152036003810184520182612639565b925b016109c7565b61109960236040518361107d8295518092602080860191016124a7565b810162714c4360e91b6020820152036003810184520182612639565b9261105a565b60206110de916040969594965180938192630a85bd0160e11b8352336004840152600060248401528760448401526080606484015260848301906124ca565b038160006001600160a01b038a165af160009181611178575b50611136578461110561281f565b805191908261112f57604051633250574960e11b81526001600160a01b0383166004820152602490fd5b9050602001fd5b929391926001600160e01b03191663757a42ff60e11b016111575784610917565b604051633250574960e11b81526001600160a01b0383166004820152602490fd5b9091506020813d6020116111b5575b8161119460209383612639565b8101031261022f57516001600160e01b03198116810361022f5790866110f7565b3d9150611187565b6040516339e3563760e11b815260006004820152602490fd5b600082815260046020526040902080546001600160a01b0319169055806000526003602052604060002060001981540190556108a9565b634e487b7160e01b600052601260045260246000fd5b634e487b7160e01b600052601160045260246000fd5b015190508b8061077f565b906006850160005260206000209160005b601f19851681106112a6575083610120936107c3979693600193600997601f1981161061128d575b505050811b016006850155610797565b015160001960f88460031b161c191690558b808061127d565b91926020600181928685015181550194019201611255565b600685016000526020600020601f840160051c8101602085106112fe575b601f830160051c820181106112f257505061075a565b600081556001016112dc565b50806112dc565b015190508880610716565b9250600585016000526020600020906000935b601f1984168510611367576001945083601f1981161061134e575b505050811b01600583015561072e565b015160001960f88460031b161c1916905588808061133e565b81810151835560209485019460019093019290910190611323565b909150600585016000526020600020601f840160051c8101602085106113ce575b90849392915b601f830160051c820181106113bf5750506106ff565b600081558594506001016113a9565b50806113a3565b60405162461bcd60e51b815260206004820152602360248201527f52657669657720616c72656164792065786973747320666f72207468697320626044820152621a5b1b60ea1b6064820152608490fd5b60405162461bcd60e51b815260206004820152601860248201527f52657374617572616e74206e616d6520726571756972656400000000000000006044820152606490fd5b60405162461bcd60e51b815260206004820152601460248201527314995d9a595dc81d195e1d081c995c5d5a5c995960621b6044820152606490fd5b60405162461bcd60e51b815260206004820152601a60248201527f496e76616c69642072657374617572616e7420616464726573730000000000006044820152606490fd5b60405162461bcd60e51b815260206004820152601860248201527f496e76616c6964207265766965776572206164647265737300000000000000006044820152606490fd5b60405162461bcd60e51b815260206004820152600e60248201526d496e76616c696420726174696e6760901b6044820152606490fd5b5060155460ff85161115610597565b60405162461bcd60e51b815260206004820152601660248201527527b7363c903830bcb6b2b73a10383937b1b2b9b9b7b960511b6044820152606490fd5b3461022f57600036600319011261022f576020601454604051908152f35b3461022f57608036600319011261022f576115eb6124ef565b6115f3612505565b90604435606435926001600160401b03841161022f573660238501121561022f5761162b61163d943690602481600401359101612675565b9261163783838361284f565b33612abc565b005b3461022f57604036600319011261022f576116586124ef565b6001600160a01b03166000908152600c602052604090208054602435919082101561022f57602091610221916125b9565b3461022f57604036600319011261022f576004356024356001600160401b03811161022f576116bc90369060040161258c565b91908160005260026020526116df60018060a01b0360406000205416151561278b565b821561175b577fff3f74cbc8e2959657130eb7396f3fff29ca8e98c6cf44cf702c409827b2300e9082600052600a60205261172460ff600960406000200154166127cf565b83604051916040835281604084015260608301376000606085830101524260208201526060813395601f80199101168101030190a3005b60405162461bcd60e51b815260206004820152601660248201527514995c1bdc9d081c99585cdbdb881c995c5d5a5c995960521b6044820152606490fd5b3461022f57604036600319011261022f576117b26124ef565b602435908115159081830361022f576001600160a01b031691821561182e576118009033600052600560205260406000208460005260205260406000209060ff801983541691151516179055565b6040519081527f17307eab39ab6107e8899845ad3d59bd9653f200f220920489ca2b5937696c3160203392a3005b604051630b61174360e31b815260048101849052602490fd5b3461022f57602036600319011261022f57600435600061012060405161186c81612602565b828152826020820152826040820152826060820152826080820152606060a0820152606060c08201528260e08201528261010082015201528060005260026020526118c560018060a01b0360406000205416151561278b565b600052600a602052604060002060ff6009604051926118e384612602565b8054845260018101546001600160a01b039081166020860152600282015416604085015260038101546060850152600481015483166080850152611929600582016126e6565b60a085015261193a600682016126e6565b60c0850152600781015460e0850152600881015461010085015201541615156101208201526040518091602082528051602083015260018060a01b03602082015116604083015260018060a01b0360408201511660608301526060810151608083015260ff60808201511660a083015260a08101516101206119e36119cd610140938460c08801526101608701906124ca565b60c0850151868203601f190160e08801526124ca565b9260e08101516101008601526101008101518286015201511515908301520390f35b3461022f57600036600319011261022f57604051600060018260015492611a2b846126ac565b9283835260209485600182169182600014611ac8575050600114611a6b575b50611a5792500383612639565b6104696040519282849384528301906124ca565b84915060016000527fb10e2d527612073b26eecdfd717e6a320cf44b4afac2b0732d9fcbe2b7fa0cf6906000915b858310611ab0575050611a57935082010185611a4a565b80548389018501528794508693909201918101611a99565b60ff191685820152611a5795151560051b8501019250879150611a4a9050565b3461022f57600036600319011261022f576007546040516001600160a01b039091168152602090f35b3461022f57602036600319011261022f576004356001600160401b03811161022f57611b4190369060040161258c565b505061163d612a72565b3461022f57600036600319011261022f57611b64612a72565b611b6c612a9e565b600160ff1960095416176009557f62e78cea01bee320cd4e420270b5ea74000d11b0c9f74754ebdbfc544b05a2586020604051338152a1005b3461022f57600036600319011261022f57611bbe612a72565b600780546001600160a01b031981169091556000906001600160a01b03167f8be0079c531659141344cd1fd0a4f28419497f9722a3daafe3b4186f6b6457e08280a3005b3461022f57602036600319011261022f576001600160a01b03611c236124ef565b168015611c425760005260036020526020604060002054604051908152f35b6040516322718ad960e21b815260006004820152602490fd5b3461022f57602036600319011261022f576001600160a01b03611c7c6124ef565b16600052600d6020526040600020805461046960026001840154930154604051938493846040919493926060820195825260208201520152565b3461022f57602036600319011261022f576020611cd4600435612a37565b6040516001600160a01b039091168152f35b3461022f57600036600319011261022f57602060ff600954166040519015158152f35b3461022f57602036600319011261022f57611d226124ef565b600060408051611d31816125e7565b828152826020820152015260018060a01b0316600052600d60205260606040600020604051611d5f816125e7565b815491828252604060026001830154926020850193845201549201918252604051928352516020830152516040820152f35b3461022f5761163d611da23661251b565b9060405192611db08461261e565b6000845261163783838361284f565b3461022f57600036600319011261022f57611dd8612a72565b60095460ff811615611e175760ff19166009557f5db9ee0a495bf2e6ff9c91a7834c1ba4fdd244a5e8aa4e537bd38aeae4b073aa6020604051338152a1005b604051638dfc202b60e01b8152600490fd5b3461022f57602036600319011261022f57600435600052600f602052602060ff604060002054166040519015158152f35b3461022f57602036600319011261022f57600435611e76612a72565b600081815260026020526040902054611e99906001600160a01b0316151561278b565b6000908152600a60205260409020600901805460ff19169055005b3461022f5760208060031936011261022f576001600160a01b03611ed66124ef565b16600052600c6020526040600020906040519081602084549182815201936000526020600020916000905b828210611f245761046985611f1881890382612639565b60405191829182612550565b835486529485019460019384019390910190611f01565b3461022f5760208060031936011261022f576001600160a01b03611f5d6124ef565b16600052600b6020526040600020906040519081602084549182815201936000526020600020916000905b828210611f9f5761046985611f1881890382612639565b835486529485019460019384019390910190611f88565b3461022f5761163d611fc73661251b565b9161284f565b60208060031936011261022f5760043560026008541461215b576002600855611ff4612a9e565b60008181526002835260409020546001600160a01b0390612018908216151561278b565b341561210c57600080808093858252600a875261203e60ff6009604085200154166127cf565b858252600a87526040822090600861205588612a37565b92888552600e8a52604085203386528a5260408520612075348254612812565b905501612083348254612812565b90553491165af161209261281f565b50156120d1576040519134835242908301527fc07e11eb2321c2c805c8443a6adc437b65d8dfa24956afa1c8c0f28e6ac927e360403393a36001600855005b60405162461bcd60e51b8152600481018390526013602482015272151a5c081d1c985b9cd9995c8819985a5b1959606a1b6044820152606490fd5b60405162461bcd60e51b815260048101849052602160248201527f54697020616d6f756e74206d7573742062652067726561746572207468616e206044820152600360fc1b6064820152608490fd5b604051633ee5aeb560e01b8152600490fd5b3461022f57604036600319011261022f57612186612505565b600435600052600e60205260406000209060018060a01b03166000526020526020604060002054604051908152f35b3461022f57604036600319011261022f576121ce6124ef565b6024356121da81612a37565b33151580612289575b8061225c575b612244576001600160a01b039283169282918491167f8c5be1e5ebec7d5bd14f71427d1e84f3dd0314c0f7b2291e5b200ac8c7c3b925600080a4600090815260046020526040902080546001600160a01b0319169091179055005b60405163a9fbf51f60e01b8152336004820152602490fd5b5060018060a01b038116600052600560205260406000203360005260205260ff60406000205416156121e9565b506001600160a01b0381163314156121e3565b3461022f57602036600319011261022f576122b56124ef565b6122bd612a72565b6001600160a01b031680156122e4576001600160601b0360a01b6013541617601355600080f35b60405162461bcd60e51b815260206004820152600f60248201526e496e76616c6964206164647265737360881b6044820152606490fd5b3461022f57602036600319011261022f5760043561233881612a37565b506000526004602052602060018060a01b0360406000205416604051908152f35b3461022f57600036600319011261022f5760405160008054908261237c836126ac565b9182825260209360019085600182169182600014611ac85750506001146123aa5750611a5792500383612639565b6000808052859250907f290decd9548b62a8d60345a988386fc84ba6bc95484008f6362f93160ef3e5635b8583106123ec575050611a57935082010185611a4a565b805483890185015287945086939092019181016123d5565b3461022f57600036600319011261022f576020601554604051908152f35b3461022f57602036600319011261022f576004359063ffffffff60e01b821680920361022f57602091632483248360e11b8114908115612464575b5015158152f35b6380ac58cd60e01b811491508115612496575b8115612485575b508361245d565b6301ffc9a760e01b1490508361247e565b635b5e139f60e01b81149150612477565b60005b8381106124ba5750506000910152565b81810151838201526020016124aa565b906020916124e3815180928185528580860191016124a7565b601f01601f1916010190565b600435906001600160a01b038216820361022f57565b602435906001600160a01b038216820361022f57565b606090600319011261022f576001600160a01b0390600435828116810361022f5791602435908116810361022f579060443590565b602090602060408183019282815285518094520193019160005b828110612578575050505090565b83518552938101939281019260010161256a565b9181601f8401121561022f578235916001600160401b03831161022f576020838186019501011161022f57565b80548210156125d15760005260206000200190600090565b634e487b7160e01b600052603260045260246000fd5b606081019081106001600160401b03821117610f6f57604052565b61014081019081106001600160401b03821117610f6f57604052565b602081019081106001600160401b03821117610f6f57604052565b90601f801991011681019081106001600160401b03821117610f6f57604052565b6001600160401b038111610f6f57601f01601f191660200190565b9291926126818261265a565b9161268f6040519384612639565b82948184528183011161022f578281602093846000960137010152565b90600182811c921680156126dc575b60208310146126c657565b634e487b7160e01b600052602260045260246000fd5b91607f16916126bb565b906040519182600082546126f9816126ac565b90818452602094600191600181169081600014612769575060011461272a575b50505061272892500383612639565b565b600090815285812095935091905b8183106127515750506127289350820101388080612719565b85548884018501529485019487945091830191612738565b9250505061272894925060ff191682840152151560051b820101388080612719565b1561279257565b60405162461bcd60e51b815260206004820152601560248201527414995d9a595dc8191bd95cc81b9bdd08195e1a5cdd605a1b6044820152606490fd5b156127d657565b60405162461bcd60e51b8152602060048201526014602482015273526576696577206973206e6f742061637469766560601b6044820152606490fd5b9190820180921161122357565b3d1561284a573d906128308261265a565b9161283e6040519384612639565b82523d6000602084013e565b606090565b6001600160a01b0391821692909183156129d55760009282845282602095600287526040968488882054169687913315158061293f575b509060027fddf252ad1be2c89b69c2b068fc378daa952ba7f163c4a11628f55a4df523b3ef928461290c575b858352600381528b8320805460010190558683525289812080546001600160a01b0319168517905580a416928383036128eb5750505050565b6064945051926364283d7b60e01b8452600484015260248301526044820152fd5b600087815260046020526040902080546001600160a01b0319169055848352600381528b832080546000190190556128b2565b91939450915080612994575b1561295b57859291879138612886565b878688612978576024915190637e27328960e01b82526004820152fd5b604491519063177e802f60e01b82523360048301526024820152fd5b5033871480156129b9575b8061294b575085825260048152338589842054161461294b565b5086825260058152878220338352815260ff888320541661299f565b604051633250574960e11b815260006004820152602490fd5b60001981146112235760010190565b805468010000000000000000811015610f6f57612a1f916001820181556125b9565b819291549060031b91821b91600019901b1916179055565b6000818152600260205260409020546001600160a01b0316908115612a5a575090565b60249060405190637e27328960e01b82526004820152fd5b6007546001600160a01b03163303612a8657565b60405163118cdaa760e01b8152336004820152602490fd5b60ff60095416612aaa57565b60405163d93c066560e01b8152600490fd5b9293823b612acc575b5050505050565b612b109060018060a01b038094169560405194859481630a85bd0160e11b9889885216600487015216602485015260448401526080606484015260848301906124ca565b03906020816000938185885af190829082612b89575b5050612b575782612b3561281f565b805191908261112f57604051633250574960e11b815260048101839052602490fd5b6001600160e01b03191603612b7157503880808080612ac5565b60249060405190633250574960e11b82526004820152fd5b909192506020813d602011612bd1575b81612ba660209383612639565b81010312612bcd5751906001600160e01b031982168203612bca5750903880612b26565b80fd5b5080fd5b3d9150612b99565b90612be38261265a565b612bf06040519182612639565b8281528092612c01601f199161265a565b0190602036910137565b806000917a184f03e93ff9f4daa797ed6e38ed64bf6a1f01000000000000000080821015612d41575b506d04ee2d6d415b85acef810000000080831015612d32575b50662386f26fc1000080831015612d23575b506305f5e10080831015612d14575b5061271080831015612d05575b506064821015612cf5575b600a80921015612ceb575b600190816021612ca360018701612bd9565b95860101905b612cb5575b5050505090565b600019019083906f181899199a1a9b1b9c1cb0b131b232b360811b8282061a835304918215612ce657919082612ca9565b612cae565b9160010191612c91565b9190606460029104910191612c86565b60049193920491019138612c7b565b60089193920491019138612c6e565b60109193920491019138612c5f565b60209193920491019138612c4d565b604093508104915038612c34565b919091805115612e3c5780519260029160028501809511611223576003948590046001600160fe1b038116810361122357612d8f9060029694961b612bd9565b926020840192829183518401976020890192835194600085525b8a8110612def57505050506003939495965052510680600114612ddc57600214612dd1575090565b603d90600019015390565b50603d9081600019820153600119015390565b836004919b989b019a8b51600190603f9082828260121c16870101518453828282600c1c16870101518385015382828260061c168701015187850153168401015185820153019699612da9565b509050604051612e4b8161261e565b600081529056fea2646970667358221220a8fd81d0e85351237971442006330108da41dea47558a20be177b15e623c918764736f6c63430008180033","opcodes":"PUSH1 0x80 PUSH1 0x40 MSTORE CALLVALUE PUSH3 0x464 JUMPI PUSH3 0x334E DUP1 CODESIZE SUB DUP1 PUSH3 0x1D DUP2 PUSH3 0x49F JUMP JUMPDEST SWAP3 DUP4 CODECOPY DUP2 ADD SWAP1 PUSH1 0x40 DUP2 DUP4 SUB SLT PUSH3 0x464 JUMPI DUP1 MLOAD PUSH1 0x1 PUSH1 0x1 PUSH1 0xA0 SHL SUB SWAP3 DUP4 DUP3 AND SWAP3 SWAP2 DUP4 SWAP1 SUB PUSH3 0x464 JUMPI PUSH1 0x20 DUP3 DUP2 ADD MLOAD SWAP1 SWAP3 PUSH1 0x1 PUSH1 0x1 PUSH1 0x40 SHL SUB SWAP2 SWAP1 DUP3 DUP3 GT PUSH3 0x464 JUMPI ADD SWAP2 PUSH1 0x1F SWAP1 DUP1 DUP3 DUP6 ADD SLT ISZERO PUSH3 0x464 JUMPI DUP4 MLOAD SWAP1 DUP4 DUP3 GT PUSH3 0x469 JUMPI PUSH1 0x1F NOT SWAP5 PUSH3 0x90 DUP4 DUP6 ADD DUP8 AND DUP9 ADD PUSH3 0x49F JUMP JUMPDEST SWAP2 DUP4 DUP4 MSTORE DUP8 DUP5 DUP4 ADD ADD GT PUSH3 0x464 JUMPI SWAP1 DUP7 SWAP2 PUSH1 0x0 JUMPDEST DUP5 DUP2 LT PUSH3 0x44F JUMPI POP POP PUSH1 0x0 SWAP3 ADD ADD MSTORE PUSH3 0xBF PUSH3 0x47F JUMP JUMPDEST SWAP4 PUSH1 0x15 DUP6 MSTORE PUSH32 0x52657374617572616E7420526576696577204E46540000000000000000000000 DUP2 DUP7 ADD MSTORE PUSH3 0xF3 PUSH3 0x47F JUMP JUMPDEST SWAP1 PUSH1 0x4 SWAP5 DUP6 DUP4 MSTORE PUSH4 0x14939195 PUSH1 0xE2 SHL DUP3 DUP5 ADD MSTORE DUP7 MLOAD DUP6 DUP2 GT PUSH3 0x43A JUMPI PUSH1 0x0 SLOAD SWAP8 PUSH1 0x1 SWAP9 DUP10 DUP2 DUP2 SHR SWAP2 AND DUP1 ISZERO PUSH3 0x42F JUMPI JUMPDEST DUP6 DUP3 LT EQ PUSH3 0x41A JUMPI SWAP1 DUP2 DUP8 DUP5 SWAP4 GT PUSH3 0x3C4 JUMPI JUMPDEST POP DUP5 SWAP1 DUP8 DUP4 GT PUSH1 0x1 EQ PUSH3 0x35F JUMPI PUSH1 0x0 SWAP3 PUSH3 0x353 JUMPI JUMPDEST POP POP PUSH1 0x0 NOT PUSH1 0x3 DUP4 SWAP1 SHL SHR NOT AND SWAP1 DUP9 SHL OR PUSH1 0x0 SSTORE JUMPDEST DUP3 MLOAD SWAP5 DUP6 GT PUSH3 0x33E JUMPI DUP7 SLOAD DUP8 DUP2 DUP2 SHR SWAP2 AND DUP1 ISZERO PUSH3 0x333 JUMPI JUMPDEST DUP4 DUP3 LT EQ PUSH3 0x31E JUMPI SWAP1 DUP2 DUP6 DUP8 SWAP7 SWAP6 SWAP5 SWAP4 GT PUSH3 0x2C2 JUMPI JUMPDEST POP DUP2 SWAP4 DUP6 GT PUSH1 0x1 EQ PUSH3 0x25A JUMPI POP POP PUSH1 0x0 SWAP3 PUSH3 0x24E JUMPI JUMPDEST POP POP PUSH1 0x0 NOT PUSH1 0x3 DUP4 SWAP1 SHL SHR NOT AND SWAP1 DUP4 SHL OR DUP3 SSTORE JUMPDEST CALLER ISZERO PUSH3 0x236 JUMPI POP PUSH1 0x7 DUP1 SLOAD PUSH1 0x1 PUSH1 0x1 PUSH1 0xA0 SHL SUB NOT DUP1 DUP3 AND CALLER SWAP1 DUP2 OR SWAP1 SWAP4 SSTORE PUSH1 0x40 MLOAD SWAP6 SWAP1 SWAP4 SWAP3 SWAP2 AND PUSH32 0x8BE0079C531659141344CD1FD0A4F28419497F9722A3DAAFE3B4186F6B6457E0 PUSH1 0x0 DUP1 LOG3 DUP1 PUSH1 0x8 SSTORE DUP1 PUSH1 0x10 SSTORE PUSH1 0x14 SSTORE PUSH1 0x5 PUSH1 0x15 SSTORE PUSH1 0x13 SLOAD AND OR PUSH1 0x13 SSTORE PUSH2 0x2E88 SWAP1 DUP2 PUSH3 0x4C6 DUP3 CODECOPY RETURN JUMPDEST PUSH1 0x24 SWAP1 PUSH1 0x0 PUSH1 0x40 MLOAD SWAP2 PUSH4 0x1E4FBDF7 PUSH1 0xE0 SHL DUP4 MSTORE DUP3 ADD MSTORE REVERT JUMPDEST ADD MLOAD SWAP1 POP CODESIZE DUP1 PUSH3 0x1B0 JUMP JUMPDEST DUP8 SWAP6 SWAP4 SWAP3 SWAP2 SWAP4 AND DUP6 PUSH1 0x0 MSTORE DUP4 PUSH1 0x0 KECCAK256 SWAP4 PUSH1 0x0 SWAP1 JUMPDEST DUP3 DUP3 LT PUSH3 0x2A8 JUMPI POP POP DUP5 GT PUSH3 0x28E JUMPI JUMPDEST POP POP POP DUP2 SHL ADD DUP3 SSTORE PUSH3 0x1C4 JUMP JUMPDEST ADD MLOAD PUSH1 0x0 NOT PUSH1 0xF8 DUP5 PUSH1 0x3 SHL AND SHR NOT AND SWAP1 SSTORE CODESIZE DUP1 DUP1 PUSH3 0x280 JUMP JUMPDEST DUP5 DUP5 ADD MLOAD DUP7 SSTORE DUP10 SWAP8 SWAP1 SWAP6 ADD SWAP5 SWAP4 DUP5 ADD SWAP4 SWAP1 DUP2 ADD SWAP1 PUSH3 0x26E JUMP JUMPDEST SWAP1 SWAP2 SWAP3 SWAP4 SWAP5 POP DUP8 PUSH1 0x0 MSTORE DUP3 PUSH1 0x0 KECCAK256 DUP6 DUP1 DUP9 ADD PUSH1 0x5 SHR DUP3 ADD SWAP3 DUP6 DUP10 LT PUSH3 0x314 JUMPI JUMPDEST SWAP2 DUP9 SWAP8 DUP12 SWAP3 SWAP8 SWAP7 SWAP6 SWAP5 SWAP4 ADD PUSH1 0x5 SHR ADD SWAP2 JUMPDEST DUP3 DUP2 LT PUSH3 0x304 JUMPI POP POP PUSH3 0x198 JUMP JUMPDEST PUSH1 0x0 DUP2 SSTORE DUP9 SWAP8 POP DUP11 SWAP2 ADD PUSH3 0x2F4 JUMP JUMPDEST SWAP3 POP DUP2 SWAP3 PUSH3 0x2E3 JUMP JUMPDEST PUSH1 0x22 DUP8 PUSH4 0x4E487B71 PUSH1 0xE0 SHL PUSH1 0x0 MSTORE MSTORE PUSH1 0x24 PUSH1 0x0 REVERT JUMPDEST SWAP1 PUSH1 0x7F AND SWAP1 PUSH3 0x180 JUMP JUMPDEST PUSH1 0x41 DUP7 PUSH4 0x4E487B71 PUSH1 0xE0 SHL PUSH1 0x0 MSTORE MSTORE PUSH1 0x24 PUSH1 0x0 REVERT JUMPDEST ADD MLOAD SWAP1 POP CODESIZE DUP1 PUSH3 0x151 JUMP JUMPDEST SWAP1 DUP5 DUP12 SWAP5 AND SWAP2 PUSH1 0x0 DUP1 MSTORE DUP7 PUSH1 0x0 KECCAK256 SWAP3 PUSH1 0x0 JUMPDEST DUP9 DUP3 DUP3 LT PUSH3 0x3AD JUMPI POP POP DUP5 GT PUSH3 0x393 JUMPI JUMPDEST POP POP POP DUP2 SHL ADD PUSH1 0x0 SSTORE PUSH3 0x166 JUMP JUMPDEST ADD MLOAD PUSH1 0x0 NOT PUSH1 0xF8 DUP5 PUSH1 0x3 SHL AND SHR NOT AND SWAP1 SSTORE CODESIZE DUP1 DUP1 PUSH3 0x384 JUMP JUMPDEST DUP4 DUP6 ADD MLOAD DUP7 SSTORE DUP15 SWAP8 SWAP1 SWAP6 ADD SWAP5 SWAP4 DUP5 ADD SWAP4 ADD PUSH3 0x371 JUMP JUMPDEST SWAP1 SWAP2 POP PUSH1 0x0 DUP1 MSTORE DUP5 PUSH1 0x0 KECCAK256 DUP8 DUP1 DUP6 ADD PUSH1 0x5 SHR DUP3 ADD SWAP3 DUP8 DUP7 LT PUSH3 0x410 JUMPI JUMPDEST SWAP2 DUP13 SWAP2 DUP7 SWAP6 SWAP5 SWAP4 ADD PUSH1 0x5 SHR ADD SWAP2 JUMPDEST DUP3 DUP2 LT PUSH3 0x400 JUMPI POP POP PUSH3 0x13A JUMP JUMPDEST PUSH1 0x0 DUP2 SSTORE DUP6 SWAP5 POP DUP13 SWAP2 ADD PUSH3 0x3F0 JUMP JUMPDEST SWAP3 POP DUP2 SWAP3 PUSH3 0x3E2 JUMP JUMPDEST PUSH1 0x22 DUP10 PUSH4 0x4E487B71 PUSH1 0xE0 SHL PUSH1 0x0 MSTORE MSTORE PUSH1 0x24 PUSH1 0x0 REVERT JUMPDEST SWAP1 PUSH1 0x7F AND SWAP1 PUSH3 0x125 JUMP JUMPDEST PUSH1 0x41 DUP8 PUSH4 0x4E487B71 PUSH1 0xE0 SHL PUSH1 0x0 MSTORE MSTORE PUSH1 0x24 PUSH1 0x0 REVERT JUMPDEST DUP2 DUP2 ADD DUP5 ADD MLOAD DUP4 DUP3 ADD DUP6 ADD MSTORE DUP9 SWAP4 ADD PUSH3 0xA5 JUMP JUMPDEST PUSH1 0x0 DUP1 REVERT JUMPDEST PUSH4 0x4E487B71 PUSH1 0xE0 SHL PUSH1 0x0 MSTORE PUSH1 0x41 PUSH1 0x4 MSTORE PUSH1 0x24 PUSH1 0x0 REVERT JUMPDEST PUSH1 0x40 DUP1 MLOAD SWAP2 SWAP1 DUP3 ADD PUSH1 0x1 PUSH1 0x1 PUSH1 0x40 SHL SUB DUP2 GT DUP4 DUP3 LT OR PUSH3 0x469 JUMPI PUSH1 0x40 MSTORE JUMP JUMPDEST PUSH1 0x40 MLOAD SWAP2 SWAP1 PUSH1 0x1F ADD PUSH1 0x1F NOT AND DUP3 ADD PUSH1 0x1 PUSH1 0x1 PUSH1 0x40 SHL SUB DUP2 GT DUP4 DUP3 LT OR PUSH3 0x469 JUMPI PUSH1 0x40 MSTORE JUMP INVALID PUSH1 0x80 DUP1 PUSH1 0x40 MSTORE PUSH1 0x4 CALLDATASIZE LT ISZERO PUSH2 0x13 JUMPI PUSH1 0x0 DUP1 REVERT JUMPDEST PUSH1 0x0 CALLDATALOAD PUSH1 0xE0 SHR SWAP1 DUP2 PUSH4 0x1FFC9A7 EQ PUSH2 0x2422 JUMPI POP DUP1 PUSH4 0x38642BA EQ PUSH2 0x2404 JUMPI DUP1 PUSH4 0x6FDDE03 EQ PUSH2 0x2359 JUMPI DUP1 PUSH4 0x81812FC EQ PUSH2 0x231B JUMPI DUP1 PUSH4 0x88B0D75 EQ PUSH2 0x229C JUMPI DUP1 PUSH4 0x95EA7B3 EQ PUSH2 0x21B5 JUMPI DUP1 PUSH4 0x9D1DBF4 EQ PUSH2 0x216D JUMPI DUP1 PUSH4 0x22F1F94B EQ PUSH2 0x1FCD JUMPI DUP1 PUSH4 0x23B872DD EQ PUSH2 0x1FB6 JUMPI DUP1 PUSH4 0x2A7BD279 EQ PUSH2 0x1F3B JUMPI DUP1 PUSH4 0x2C89494A EQ PUSH2 0x1EB4 JUMPI DUP1 PUSH4 0x2FD8030B EQ PUSH2 0x1E5A JUMPI DUP1 PUSH4 0x36967EBC EQ PUSH2 0x1E29 JUMPI DUP1 PUSH4 0x3F4BA83A EQ PUSH2 0x1DBF JUMPI DUP1 PUSH4 0x42842E0E EQ PUSH2 0x1D91 JUMPI DUP1 PUSH4 0x436EFD5C EQ PUSH2 0x1D09 JUMPI DUP1 PUSH4 0x5C975ABB EQ PUSH2 0x1CE6 JUMPI DUP1 PUSH4 0x6352211E EQ PUSH2 0x1CB6 JUMPI DUP1 PUSH4 0x682738C4 EQ PUSH2 0x1C5B JUMPI DUP1 PUSH4 0x70A08231 EQ PUSH2 0x1C02 JUMPI DUP1 PUSH4 0x715018A6 EQ PUSH2 0x1BA5 JUMPI DUP1 PUSH4 0x8456CB59 EQ PUSH2 0x1B4B JUMPI DUP1 PUSH4 0x8647CA76 EQ PUSH2 0x1B11 JUMPI DUP1 PUSH4 0x8DA5CB5B EQ PUSH2 0x1AE8 JUMPI DUP1 PUSH4 0x95D89B41 EQ PUSH2 0x1A05 JUMPI DUP1 PUSH4 0x990581B6 EQ PUSH2 0x1847 JUMPI DUP1 PUSH4 0xA22CB465 EQ PUSH2 0x1799 JUMPI DUP1 PUSH4 0xA3C40F9C EQ PUSH2 0x1689 JUMPI DUP1 PUSH4 0xB69AE9F8 EQ PUSH2 0x163F JUMPI DUP1 PUSH4 0xB88D4FDE EQ PUSH2 0x15D2 JUMPI DUP1 PUSH4 0xBAFF8BF1 EQ PUSH2 0x15B4 JUMPI DUP1 PUSH4 0xC1B2ECAC EQ PUSH2 0x4FA JUMPI DUP1 PUSH4 0xC87B56DD EQ PUSH2 0x4A1 JUMPI DUP1 PUSH4 0xDFE6B5D6 EQ PUSH2 0x42A JUMPI DUP1 PUSH4 0xE2367890 EQ PUSH2 0x40C JUMPI DUP1 PUSH4 0xE83DDCEA EQ PUSH2 0x33C JUMPI DUP1 PUSH4 0xE985E9C5 EQ PUSH2 0x2E6 JUMPI DUP1 PUSH4 0xF1C6BDF8 EQ PUSH2 0x2BD JUMPI DUP1 PUSH4 0xF2FDE38B EQ PUSH2 0x234 JUMPI PUSH4 0xF7621815 EQ PUSH2 0x1D7 JUMPI PUSH1 0x0 DUP1 REVERT JUMPDEST CALLVALUE PUSH2 0x22F JUMPI PUSH1 0x40 CALLDATASIZE PUSH1 0x3 NOT ADD SLT PUSH2 0x22F JUMPI PUSH2 0x1F0 PUSH2 0x24EF JUMP JUMPDEST PUSH1 0x1 PUSH1 0x1 PUSH1 0xA0 SHL SUB AND PUSH1 0x0 SWAP1 DUP2 MSTORE PUSH1 0xB PUSH1 0x20 MSTORE PUSH1 0x40 SWAP1 KECCAK256 DUP1 SLOAD PUSH1 0x24 CALLDATALOAD SWAP2 SWAP1 DUP3 LT ISZERO PUSH2 0x22F JUMPI PUSH1 0x20 SWAP2 PUSH2 0x221 SWAP2 PUSH2 0x25B9 JUMP JUMPDEST SWAP1 SLOAD PUSH1 0x40 MLOAD SWAP2 PUSH1 0x3 SHL SHR DUP2 MSTORE RETURN JUMPDEST PUSH1 0x0 DUP1 REVERT JUMPDEST CALLVALUE PUSH2 0x22F JUMPI PUSH1 0x20 CALLDATASIZE PUSH1 0x3 NOT ADD SLT PUSH2 0x22F JUMPI PUSH2 0x24D PUSH2 0x24EF JUMP JUMPDEST PUSH2 0x255 PUSH2 0x2A72 JUMP JUMPDEST PUSH1 0x1 PUSH1 0x1 PUSH1 0xA0 SHL SUB SWAP1 DUP2 AND SWAP1 DUP2 ISZERO PUSH2 0x2A4 JUMPI PUSH1 0x7 SLOAD DUP3 PUSH1 0x1 PUSH1 0x1 PUSH1 0x60 SHL SUB PUSH1 0xA0 SHL DUP3 AND OR PUSH1 0x7 SSTORE AND PUSH32 0x8BE0079C531659141344CD1FD0A4F28419497F9722A3DAAFE3B4186F6B6457E0 PUSH1 0x0 DUP1 LOG3 STOP JUMPDEST PUSH1 0x40 MLOAD PUSH4 0x1E4FBDF7 PUSH1 0xE0 SHL DUP2 MSTORE PUSH1 0x0 PUSH1 0x4 DUP3 ADD MSTORE PUSH1 0x24 SWAP1 REVERT JUMPDEST CALLVALUE PUSH2 0x22F JUMPI PUSH1 0x0 CALLDATASIZE PUSH1 0x3 NOT ADD SLT PUSH2 0x22F JUMPI PUSH1 0x13 SLOAD PUSH1 0x40 MLOAD PUSH1 0x1 PUSH1 0x1 PUSH1 0xA0 SHL SUB SWAP1 SWAP2 AND DUP2 MSTORE PUSH1 0x20 SWAP1 RETURN JUMPDEST CALLVALUE PUSH2 0x22F JUMPI PUSH1 0x40 CALLDATASIZE PUSH1 0x3 NOT ADD SLT PUSH2 0x22F JUMPI PUSH2 0x2FF PUSH2 0x24EF JUMP JUMPDEST PUSH2 0x307 PUSH2 0x2505 JUMP JUMPDEST SWAP1 PUSH1 0x1 DUP1 PUSH1 0xA0 SHL SUB DUP1 SWAP2 AND PUSH1 0x0 MSTORE PUSH1 0x5 PUSH1 0x20 MSTORE PUSH1 0x40 PUSH1 0x0 KECCAK256 SWAP2 AND PUSH1 0x0 MSTORE PUSH1 0x20 MSTORE PUSH1 0x20 PUSH1 0xFF PUSH1 0x40 PUSH1 0x0 KECCAK256 SLOAD AND PUSH1 0x40 MLOAD SWAP1 ISZERO ISZERO DUP2 MSTORE RETURN JUMPDEST CALLVALUE PUSH2 0x22F JUMPI PUSH1 0x20 CALLDATASIZE PUSH1 0x3 NOT ADD SLT PUSH2 0x22F JUMPI PUSH1 0x4 CALLDATALOAD PUSH1 0x0 MSTORE PUSH1 0xA PUSH1 0x20 MSTORE PUSH1 0x40 PUSH1 0x0 KECCAK256 DUP1 SLOAD PUSH1 0x1 DUP1 PUSH1 0xA0 SHL SUB SWAP1 DUP2 PUSH1 0x1 DUP5 ADD SLOAD AND SWAP2 PUSH1 0x2 DUP5 ADD SLOAD AND SWAP3 PUSH1 0x3 DUP2 ADD SLOAD SWAP1 PUSH2 0x3F4 PUSH1 0xFF PUSH1 0x4 DUP4 ADD SLOAD AND SWAP4 PUSH2 0x3E6 PUSH2 0x397 PUSH1 0x5 DUP6 ADD PUSH2 0x26E6 JUMP JUMPDEST PUSH2 0x3A3 PUSH1 0x6 DUP7 ADD PUSH2 0x26E6 JUMP JUMPDEST SWAP3 PUSH1 0x7 DUP7 ADD SLOAD SWAP8 PUSH1 0xFF PUSH1 0x9 PUSH1 0x8 DUP10 ADD SLOAD SWAP9 ADD SLOAD AND SWAP8 PUSH1 0x40 MLOAD SWAP12 DUP13 SWAP12 PUSH2 0x140 SWAP5 DUP14 MSTORE PUSH1 0x20 DUP14 ADD MSTORE PUSH1 0x40 DUP13 ADD MSTORE PUSH1 0x60 DUP12 ADD MSTORE PUSH1 0x80 DUP11 ADD MSTORE DUP1 PUSH1 0xA0 DUP11 ADD MSTORE DUP9 ADD SWAP1 PUSH2 0x24CA JUMP JUMPDEST SWAP1 DUP7 DUP3 SUB PUSH1 0xC0 DUP9 ADD MSTORE PUSH2 0x24CA JUMP JUMPDEST SWAP3 PUSH1 0xE0 DUP6 ADD MSTORE PUSH2 0x100 DUP5 ADD MSTORE ISZERO ISZERO PUSH2 0x120 DUP4 ADD MSTORE SUB SWAP1 RETURN JUMPDEST CALLVALUE PUSH2 0x22F JUMPI PUSH1 0x0 CALLDATASIZE PUSH1 0x3 NOT ADD SLT PUSH2 0x22F JUMPI PUSH1 0x20 PUSH1 0x11 SLOAD PUSH1 0x40 MLOAD SWAP1 DUP2 MSTORE RETURN JUMPDEST CALLVALUE PUSH2 0x22F JUMPI PUSH1 0x0 CALLDATASIZE PUSH1 0x3 NOT ADD SLT PUSH2 0x22F JUMPI PUSH1 0x0 PUSH1 0x1 DUP1 PUSH1 0x10 SLOAD SWAP2 JUMPDEST DUP3 DUP2 LT PUSH2 0x46D JUMPI POP POP PUSH1 0x11 SLOAD PUSH1 0x40 DUP1 MLOAD SWAP2 DUP3 MSTORE PUSH1 0x20 DUP3 ADD SWAP4 SWAP1 SWAP4 MSTORE SWAP2 DUP3 ADD MSTORE PUSH1 0x60 SWAP1 RETURN JUMPDEST SUB SWAP1 RETURN JUMPDEST DUP1 PUSH1 0x0 MSTORE PUSH1 0xA PUSH1 0x20 MSTORE PUSH1 0xFF PUSH1 0x9 PUSH1 0x40 PUSH1 0x0 KECCAK256 ADD SLOAD AND PUSH2 0x48E JUMPI JUMPDEST DUP2 ADD PUSH2 0x445 JUMP JUMPDEST SWAP3 PUSH2 0x499 DUP3 SWAP2 PUSH2 0x29EE JUMP JUMPDEST SWAP4 SWAP1 POP PUSH2 0x487 JUMP JUMPDEST CALLVALUE PUSH2 0x22F JUMPI PUSH1 0x20 CALLDATASIZE PUSH1 0x3 NOT ADD SLT PUSH2 0x22F JUMPI PUSH1 0x4 CALLDATALOAD PUSH2 0x4BE DUP2 PUSH2 0x2A37 JUMP JUMPDEST POP PUSH1 0x0 MSTORE PUSH1 0x6 PUSH1 0x20 MSTORE PUSH2 0x469 PUSH2 0x4D7 PUSH1 0x40 PUSH1 0x0 KECCAK256 PUSH2 0x26E6 JUMP JUMPDEST PUSH1 0x0 PUSH1 0x40 MLOAD PUSH2 0x4E5 DUP2 PUSH2 0x261E JUMP JUMPDEST MSTORE PUSH1 0x40 MLOAD SWAP2 DUP3 SWAP2 PUSH1 0x20 DUP4 MSTORE PUSH1 0x20 DUP4 ADD SWAP1 PUSH2 0x24CA JUMP JUMPDEST CALLVALUE PUSH2 0x22F JUMPI PUSH1 0xC0 CALLDATASIZE PUSH1 0x3 NOT ADD SLT PUSH2 0x22F JUMPI PUSH2 0x513 PUSH2 0x24EF JUMP JUMPDEST PUSH2 0x51B PUSH2 0x2505 JUMP JUMPDEST SWAP1 PUSH1 0x64 CALLDATALOAD SWAP1 PUSH1 0xFF DUP3 AND DUP3 SUB PUSH2 0x22F JUMPI PUSH1 0x84 CALLDATALOAD PUSH1 0x1 PUSH1 0x1 PUSH1 0x40 SHL SUB DUP2 GT PUSH2 0x22F JUMPI PUSH2 0x549 SWAP1 CALLDATASIZE SWAP1 PUSH1 0x4 ADD PUSH2 0x258C JUMP JUMPDEST PUSH1 0xA4 SWAP4 SWAP2 SWAP4 CALLDATALOAD PUSH1 0x1 PUSH1 0x1 PUSH1 0x40 SHL SUB DUP2 GT PUSH2 0x22F JUMPI PUSH2 0x56B SWAP1 CALLDATASIZE SWAP1 PUSH1 0x4 ADD PUSH2 0x258C JUMP JUMPDEST PUSH1 0x13 SLOAD SWAP1 SWAP2 SWAP1 PUSH1 0x1 PUSH1 0x1 PUSH1 0xA0 SHL SUB AND CALLER SUB PUSH2 0x1576 JUMPI PUSH2 0x588 PUSH2 0x2A9E JUMP JUMPDEST PUSH1 0x14 SLOAD PUSH1 0xFF DUP6 AND LT ISZERO DUP1 PUSH2 0x1567 JUMPI JUMPDEST ISZERO PUSH2 0x1531 JUMPI PUSH1 0x1 PUSH1 0x1 PUSH1 0xA0 SHL SUB DUP6 AND ISZERO PUSH2 0x14EC JUMPI PUSH1 0x1 PUSH1 0x1 PUSH1 0xA0 SHL SUB DUP8 AND ISZERO PUSH2 0x14A7 JUMPI DUP3 ISZERO PUSH2 0x146B JUMPI DUP2 ISZERO PUSH2 0x1426 JUMPI PUSH1 0x44 CALLDATALOAD PUSH1 0x0 MSTORE PUSH1 0xF PUSH1 0x20 MSTORE PUSH1 0xFF PUSH1 0x40 PUSH1 0x0 KECCAK256 SLOAD AND PUSH2 0x13D5 JUMPI PUSH2 0x640 SWAP2 PUSH2 0x634 PUSH1 0x10 SLOAD SWAP8 PUSH2 0x5F2 DUP10 PUSH2 0x29EE JUMP JUMPDEST PUSH1 0x10 SSTORE PUSH1 0x40 MLOAD SWAP6 PUSH2 0x602 DUP8 PUSH2 0x2602 JUMP JUMPDEST DUP10 DUP8 MSTORE PUSH1 0x1 PUSH1 0x1 PUSH1 0xA0 SHL SUB DUP10 DUP2 AND PUSH1 0x20 DUP10 ADD MSTORE DUP12 AND PUSH1 0x40 DUP9 ADD MSTORE PUSH1 0x44 CALLDATALOAD PUSH1 0x60 DUP9 ADD MSTORE PUSH1 0xFF DUP9 AND PUSH1 0x80 DUP9 ADD MSTORE CALLDATASIZE SWAP2 PUSH2 0x2675 JUMP JUMPDEST PUSH1 0xA0 DUP6 ADD MSTORE CALLDATASIZE SWAP2 PUSH2 0x2675 JUMP JUMPDEST PUSH1 0xC0 DUP3 ADD MSTORE TIMESTAMP PUSH1 0xE0 DUP3 ADD MSTORE PUSH1 0x0 PUSH2 0x100 DUP3 ADD MSTORE PUSH1 0x1 PUSH2 0x120 DUP3 ADD MSTORE DUP4 PUSH1 0x0 MSTORE PUSH1 0xA PUSH1 0x20 MSTORE PUSH1 0x40 PUSH1 0x0 KECCAK256 SWAP1 DUP1 MLOAD DUP3 SSTORE PUSH1 0x1 DUP3 ADD PUSH1 0x1 DUP1 PUSH1 0xA0 SHL SUB PUSH1 0x20 DUP4 ADD MLOAD AND PUSH1 0x1 PUSH1 0x1 PUSH1 0x60 SHL SUB PUSH1 0xA0 SHL DUP3 SLOAD AND OR SWAP1 SSTORE PUSH1 0x2 DUP3 ADD PUSH1 0x1 DUP1 PUSH1 0xA0 SHL SUB PUSH1 0x40 DUP4 ADD MLOAD AND PUSH1 0x1 PUSH1 0x1 PUSH1 0x60 SHL SUB PUSH1 0xA0 SHL DUP3 SLOAD AND OR SWAP1 SSTORE PUSH1 0x60 DUP2 ADD MLOAD PUSH1 0x3 DUP4 ADD SSTORE PUSH1 0x4 DUP3 ADD PUSH1 0xFF PUSH1 0x80 DUP4 ADD MLOAD AND PUSH1 0xFF NOT DUP3 SLOAD AND OR SWAP1 SSTORE PUSH1 0xA0 DUP2 ADD MLOAD DUP1 MLOAD SWAP1 PUSH1 0x1 PUSH1 0x1 PUSH1 0x40 SHL SUB DUP3 GT PUSH2 0xF6F JUMPI DUP2 SWAP1 PUSH2 0x6F6 PUSH1 0x5 DUP7 ADD SLOAD PUSH2 0x26AC JUMP JUMPDEST PUSH1 0x1F DUP2 GT PUSH2 0x1382 JUMPI JUMPDEST POP PUSH1 0x20 SWAP1 PUSH1 0x1F DUP4 GT PUSH1 0x1 EQ PUSH2 0x1310 JUMPI PUSH1 0x0 SWAP3 PUSH2 0x1305 JUMPI JUMPDEST POP POP DUP2 PUSH1 0x1 SHL SWAP2 PUSH1 0x0 NOT SWAP1 PUSH1 0x3 SHL SHR NOT AND OR PUSH1 0x5 DUP4 ADD SSTORE JUMPDEST PUSH1 0xC0 DUP2 ADD MLOAD DUP1 MLOAD SWAP1 PUSH1 0x1 PUSH1 0x1 PUSH1 0x40 SHL SUB DUP3 GT PUSH2 0xF6F JUMPI PUSH2 0x751 PUSH1 0x6 DUP6 ADD SLOAD PUSH2 0x26AC JUMP JUMPDEST PUSH1 0x1F DUP2 GT PUSH2 0x12BE JUMPI JUMPDEST POP PUSH1 0x20 SWAP1 PUSH1 0x1F DUP4 GT PUSH1 0x1 EQ PUSH2 0x1244 JUMPI SWAP3 DUP3 PUSH1 0x9 SWAP4 PUSH2 0x120 SWAP4 PUSH2 0x7C3 SWAP8 SWAP7 PUSH1 0x0 SWAP3 PUSH2 0x1239 JUMPI JUMPDEST POP POP DUP2 PUSH1 0x1 SHL SWAP2 PUSH1 0x0 NOT SWAP1 PUSH1 0x3 SHL SHR NOT AND OR PUSH1 0x6 DUP6 ADD SSTORE JUMPDEST PUSH1 0xE0 DUP2 ADD MLOAD PUSH1 0x7 DUP6 ADD SSTORE PUSH2 0x100 DUP2 ADD MLOAD PUSH1 0x8 DUP6 ADD SSTORE ADD MLOAD ISZERO ISZERO SWAP2 ADD SWAP1 PUSH1 0xFF DUP1 NOT DUP4 SLOAD AND SWAP2 ISZERO ISZERO AND OR SWAP1 SSTORE JUMP JUMPDEST PUSH1 0x1 DUP1 PUSH1 0xA0 SHL SUB DUP3 AND PUSH1 0x0 MSTORE PUSH1 0xB PUSH1 0x20 MSTORE PUSH2 0x7E2 DUP4 PUSH1 0x40 PUSH1 0x0 KECCAK256 PUSH2 0x29FD JUMP JUMPDEST PUSH1 0x1 DUP1 PUSH1 0xA0 SHL SUB DUP5 AND PUSH1 0x0 MSTORE PUSH1 0xC PUSH1 0x20 MSTORE PUSH2 0x801 DUP4 PUSH1 0x40 PUSH1 0x0 KECCAK256 PUSH2 0x29FD JUMP JUMPDEST PUSH1 0x44 CALLDATALOAD PUSH1 0x0 MSTORE PUSH1 0xF PUSH1 0x20 MSTORE PUSH1 0x40 PUSH1 0x0 KECCAK256 PUSH1 0x1 PUSH1 0xFF NOT DUP3 SLOAD AND OR SWAP1 SSTORE PUSH1 0x1 DUP1 PUSH1 0xA0 SHL SUB DUP5 AND PUSH1 0x0 MSTORE PUSH1 0xD PUSH1 0x20 MSTORE PUSH1 0x40 PUSH1 0x0 KECCAK256 PUSH2 0x83C DUP2 SLOAD PUSH2 0x29EE JUMP JUMPDEST DUP1 DUP3 SSTORE PUSH1 0x1 DUP3 ADD SWAP1 PUSH2 0x852 PUSH1 0xFF DUP6 AND DUP4 SLOAD PUSH2 0x2812 JUMP JUMPDEST DUP1 SWAP3 SSTORE DUP2 PUSH1 0x64 DUP2 MUL DIV PUSH1 0x64 EQ DUP3 ISZERO OR ISZERO PUSH2 0x1223 JUMPI DUP1 ISZERO PUSH2 0x120D JUMPI PUSH1 0x64 PUSH1 0x2 SWAP3 MUL DIV SWAP2 ADD SSTORE PUSH1 0x40 MLOAD PUSH2 0x882 DUP2 PUSH2 0x261E JUMP JUMPDEST PUSH1 0x0 DUP1 DUP3 MSTORE DUP5 DUP2 MSTORE PUSH1 0x2 PUSH1 0x20 MSTORE PUSH1 0x40 SWAP1 KECCAK256 SLOAD PUSH1 0x1 PUSH1 0x1 PUSH1 0xA0 SHL SUB AND DUP1 ISZERO ISZERO SWAP1 DUP6 SWAP1 DUP3 PUSH2 0x11D6 JUMPI JUMPDEST PUSH1 0x1 PUSH1 0x1 PUSH1 0xA0 SHL SUB DUP7 AND PUSH1 0x0 DUP2 DUP2 MSTORE PUSH1 0x3 PUSH1 0x20 SWAP1 DUP2 MSTORE PUSH1 0x40 DUP1 DUP4 KECCAK256 DUP1 SLOAD PUSH1 0x1 ADD SWAP1 SSTORE DUP6 DUP4 MSTORE PUSH1 0x2 SWAP1 SWAP2 MSTORE DUP2 KECCAK256 DUP1 SLOAD PUSH1 0x1 PUSH1 0x1 PUSH1 0xA0 SHL SUB NOT AND DUP4 OR SWAP1 SSTORE SWAP1 SWAP2 SWAP1 PUSH32 0xDDF252AD1BE2C89B69C2B068FC378DAA952BA7F163C4A11628F55A4DF523B3EF SWAP1 DUP1 LOG4 PUSH2 0x11BD JUMPI DUP3 EXTCODESIZE PUSH2 0x109F JUMPI JUMPDEST POP DUP3 PUSH1 0x0 MSTORE PUSH1 0xA PUSH1 0x20 MSTORE PUSH1 0x40 PUSH1 0x0 KECCAK256 PUSH1 0xFF PUSH1 0x9 PUSH1 0x40 MLOAD SWAP3 PUSH2 0x937 DUP5 PUSH2 0x2602 JUMP JUMPDEST DUP1 SLOAD DUP5 MSTORE PUSH1 0x1 DUP2 ADD SLOAD PUSH1 0x1 PUSH1 0x1 PUSH1 0xA0 SHL SUB SWAP1 DUP2 AND PUSH1 0x20 DUP7 ADD MSTORE PUSH1 0x2 DUP3 ADD SLOAD AND PUSH1 0x40 DUP6 ADD MSTORE PUSH1 0x3 DUP2 ADD SLOAD PUSH1 0x60 DUP6 ADD MSTORE PUSH1 0x4 DUP2 ADD SLOAD DUP4 AND PUSH1 0x80 DUP6 ADD MSTORE PUSH2 0x97D PUSH1 0x5 DUP3 ADD PUSH2 0x26E6 JUMP JUMPDEST PUSH1 0xA0 DUP6 ADD MSTORE PUSH2 0x98E PUSH1 0x6 DUP3 ADD PUSH2 0x26E6 JUMP JUMPDEST PUSH1 0xC0 DUP6 ADD MSTORE PUSH1 0x7 DUP2 ADD SLOAD PUSH1 0xE0 DUP6 ADD MSTORE PUSH1 0x8 DUP2 ADD SLOAD PUSH2 0x100 DUP6 ADD MSTORE ADD SLOAD AND ISZERO ISZERO PUSH2 0x120 DUP3 ADD MSTORE PUSH1 0x40 MLOAD PUSH2 0x9BF DUP2 PUSH2 0x261E JUMP JUMPDEST PUSH1 0x0 DUP2 MSTORE SWAP1 PUSH1 0x0 JUMPDEST PUSH1 0x5 DUP2 LT PUSH2 0x100A JUMPI POP PUSH2 0x9D9 DUP6 PUSH2 0x2C0B JUMP JUMPDEST SWAP2 PUSH1 0xC0 DUP3 ADD MLOAD SWAP1 PUSH2 0x9E9 DUP8 PUSH2 0x2C0B JUMP JUMPDEST SWAP3 PUSH1 0xC0 DUP2 ADD MLOAD SWAP2 PUSH2 0xA00 PUSH1 0xFF PUSH1 0x80 DUP5 ADD MLOAD AND PUSH2 0x2C0B JUMP JUMPDEST SWAP4 PUSH2 0xA1C PUSH2 0x100 PUSH2 0xA14 PUSH1 0xE0 DUP7 ADD MLOAD PUSH2 0x2C0B JUMP JUMPDEST SWAP5 ADD MLOAD PUSH2 0x2C0B JUMP JUMPDEST SWAP6 PUSH1 0x40 MLOAD SWAP8 PUSH18 0x7B226E616D65223A20225265766965772023 PUSH1 0x70 SHL PUSH1 0x20 DUP11 ADD MSTORE PUSH2 0xA50 DUP2 MLOAD DUP1 SWAP3 PUSH1 0x20 PUSH1 0x32 DUP14 ADD SWAP2 ADD PUSH2 0x24A7 JUMP JUMPDEST DUP9 ADD SWAP2 PUSH3 0x10169 PUSH1 0xED SHL PUSH1 0x32 DUP5 ADD MSTORE PUSH2 0xAC2 DUP2 MLOAD PUSH1 0x20 DUP4 ADD SWAP5 PUSH2 0xA77 DUP3 PUSH1 0x35 DUP4 ADD DUP9 PUSH2 0x24A7 JUMP JUMPDEST ADD SWAP2 PUSH32 0x222C20226465736372697074696F6E223A202252657374617572616E74207265 PUSH1 0x35 DUP5 ADD MSTORE PUSH13 0x3B34B2BB9027232A103337B91 PUSH1 0x9D SHL PUSH1 0x55 DUP5 ADD MSTORE MLOAD DUP1 SWAP5 PUSH1 0x62 DUP5 ADD SWAP1 PUSH2 0x24A7 JUMP JUMPDEST PUSH13 0x1116101134B6B0B3B2911D1011 PUSH1 0x99 SHL DUP2 DUP5 ADD PUSH1 0x62 ADD MSTORE PUSH1 0x12 SLOAD PUSH1 0x0 SWAP4 SWAP1 SWAP2 PUSH2 0xAEB DUP4 PUSH2 0x26AC JUMP JUMPDEST SWAP3 PUSH1 0x1 DUP2 AND SWAP1 DUP2 ISZERO PUSH2 0xFE5 JUMPI POP PUSH1 0x1 EQ PUSH2 0xF85 JUMPI JUMPDEST POP POP POP SWAP4 DUP8 SWAP7 SWAP3 SWAP4 PUSH2 0xD47 SWAP9 SWAP5 PUSH1 0x20 DUP5 PUSH2 0xB26 DUP10 PUSH2 0xCE5 SWAP12 SWAP8 PUSH1 0xE3 SWAP12 MLOAD SWAP5 DUP6 SWAP3 ADD PUSH2 0x24A7 JUMP JUMPDEST ADD SWAP3 PUSH22 0x2E706E67222C202261747472696275746573223A205B PUSH1 0x50 SHL DUP5 MSTORE PUSH32 0x7B2274726169745F74797065223A202252657374617572616E74222C20227661 PUSH1 0x16 DUP6 ADD MSTORE PUSH7 0x363AB2911D1011 PUSH1 0xC9 SHL SWAP4 DUP5 PUSH1 0x36 DUP3 ADD MSTORE PUSH2 0xB90 DUP3 MLOAD DUP1 SWAP4 PUSH1 0x20 PUSH1 0x3D DUP6 ADD SWAP2 ADD PUSH2 0x24A7 JUMP JUMPDEST ADD SWAP4 PUSH4 0x113E961 PUSH1 0xE5 SHL SWAP5 DUP6 PUSH1 0x3D DUP3 ADD MSTORE PUSH32 0x7B2274726169745F74797065223A2022526174696E67222C202276616C756522 PUSH1 0x41 DUP3 ADD MSTORE PUSH3 0x1D1011 PUSH1 0xE9 SHL PUSH1 0x61 DUP3 ADD MSTORE PUSH2 0xBE7 DUP3 MLOAD DUP1 SWAP4 PUSH1 0x20 PUSH1 0x64 DUP6 ADD SWAP2 ADD PUSH2 0x24A7 JUMP JUMPDEST ADD DUP5 PUSH1 0x64 DUP3 ADD MSTORE PUSH32 0x7B2274726169745F74797065223A20225374617273222C202276616C7565223A PUSH1 0x68 DUP3 ADD MSTORE PUSH2 0x1011 PUSH1 0xF1 SHL PUSH1 0x88 DUP3 ADD MSTORE PUSH2 0xC33 DUP3 MLOAD DUP1 SWAP4 PUSH1 0x20 PUSH1 0x8A DUP6 ADD SWAP2 ADD PUSH2 0x24A7 JUMP JUMPDEST ADD DUP4 PUSH1 0x8A DUP3 ADD MSTORE PUSH32 0x7B2274726169745F74797065223A202254696D657374616D70222C202276616C PUSH1 0x8E DUP3 ADD MSTORE PUSH6 0x3AB2911D1011 PUSH1 0xD1 SHL PUSH1 0xAE DUP3 ADD MSTORE PUSH2 0xC83 DUP3 MLOAD DUP1 SWAP4 PUSH1 0x20 PUSH1 0xB4 DUP6 ADD SWAP2 ADD PUSH2 0x24A7 JUMP JUMPDEST ADD SWAP2 PUSH1 0xB4 DUP4 ADD MSTORE PUSH32 0x7B2274726169745F74797065223A2022546F74616C2054697073222C20227661 PUSH1 0xB8 DUP4 ADD MSTORE PUSH1 0xD8 DUP3 ADD MSTORE PUSH2 0xCC9 DUP3 MLOAD DUP1 SWAP4 PUSH1 0x20 PUSH1 0xDF DUP6 ADD SWAP2 ADD PUSH2 0x24A7 JUMP JUMPDEST ADD PUSH4 0x227D5D7D PUSH1 0xE0 SHL PUSH1 0xDF DUP3 ADD MSTORE SUB PUSH1 0xC3 DUP2 ADD DUP5 MSTORE ADD DUP3 PUSH2 0x2639 JUMP JUMPDEST PUSH1 0x40 MLOAD SWAP1 PUSH2 0xCF2 DUP3 PUSH2 0x25E7 JUMP JUMPDEST PUSH1 0x40 DUP3 MSTORE PUSH32 0x4142434445464748494A4B4C4D4E4F505152535455565758595A616263646566 PUSH1 0x20 DUP4 ADD MSTORE PUSH32 0x6768696A6B6C6D6E6F707172737475767778797A303132333435363738392B2F PUSH1 0x40 DUP4 ADD MSTORE PUSH2 0x2D4F JUMP JUMPDEST PUSH2 0xD9A PUSH1 0x3D PUSH1 0x40 MLOAD DUP1 SWAP4 PUSH32 0x646174613A6170706C69636174696F6E2F6A736F6E3B6261736536342C000000 PUSH1 0x20 DUP4 ADD MSTORE PUSH2 0xD8A DUP2 MLOAD DUP1 SWAP3 PUSH1 0x20 DUP7 DUP7 ADD SWAP2 ADD PUSH2 0x24A7 JUMP JUMPDEST DUP2 ADD SUB PUSH1 0x1D DUP2 ADD DUP5 MSTORE ADD DUP3 PUSH2 0x2639 JUMP JUMPDEST DUP4 PUSH1 0x0 MSTORE PUSH1 0x6 PUSH1 0x20 MSTORE PUSH1 0x40 PUSH1 0x0 KECCAK256 SWAP1 DUP1 MLOAD SWAP1 PUSH1 0x1 PUSH1 0x1 PUSH1 0x40 SHL SUB DUP3 GT PUSH2 0xF6F JUMPI PUSH2 0xDC4 DUP4 SLOAD PUSH2 0x26AC JUMP JUMPDEST PUSH1 0x1F DUP2 GT PUSH2 0xF27 JUMPI JUMPDEST POP SWAP2 PUSH1 0x20 SWAP7 SWAP2 DUP7 SWAP4 DUP9 SWAP1 PUSH1 0x1F DUP4 GT PUSH1 0x1 EQ PUSH2 0xE99 JUMPI SWAP2 DUP1 PUSH1 0x60 SWAP5 SWAP3 PUSH32 0x65DCCE91A0F0430EAD9B21FCF02B509CFA1F097C453EF6235BB03B918A9383E9 SWAP7 SWAP5 PUSH1 0x0 SWAP3 PUSH2 0xE8E JUMPI JUMPDEST POP POP DUP2 PUSH1 0x1 SHL SWAP2 PUSH1 0x0 NOT SWAP1 PUSH1 0x3 SHL SHR NOT AND OR SWAP1 SSTORE JUMPDEST PUSH32 0xF8E1A15ABA9398E019F0B49DF1A4FDE98EE17AE345CB5F6B5E2C27F5033E8CE7 DUP9 PUSH1 0x40 MLOAD DUP7 DUP2 MSTORE LOG1 PUSH2 0xE5C PUSH1 0x11 SLOAD PUSH2 0x29EE JUMP JUMPDEST PUSH1 0x11 SSTORE PUSH1 0x40 DUP1 MLOAD PUSH1 0x44 CALLDATALOAD DUP2 MSTORE PUSH1 0xFF SWAP7 SWAP1 SWAP7 AND DUP10 DUP8 ADD MSTORE TIMESTAMP SWAP1 DUP7 ADD MSTORE PUSH1 0x1 PUSH1 0x1 PUSH1 0xA0 SHL SUB SWAP1 DUP2 AND SWAP6 AND SWAP4 LOG4 PUSH1 0x40 MLOAD SWAP1 DUP2 MSTORE RETURN JUMPDEST ADD MLOAD SWAP1 POP DUP12 DUP1 PUSH2 0xE13 JUMP JUMPDEST SWAP1 PUSH1 0x1F NOT DUP4 AND SWAP2 DUP5 PUSH1 0x0 MSTORE DUP11 PUSH1 0x0 KECCAK256 SWAP3 PUSH1 0x0 JUMPDEST DUP2 DUP2 LT PUSH2 0xF0D JUMPI POP SWAP3 PUSH1 0x1 SWAP3 DUP6 SWAP3 PUSH32 0x65DCCE91A0F0430EAD9B21FCF02B509CFA1F097C453EF6235BB03B918A9383E9 SWAP9 SWAP7 PUSH1 0x60 SWAP9 SWAP7 LT PUSH2 0xEF4 JUMPI JUMPDEST POP POP POP DUP2 SHL ADD SWAP1 SSTORE PUSH2 0xE28 JUMP JUMPDEST ADD MLOAD PUSH1 0x0 NOT PUSH1 0xF8 DUP5 PUSH1 0x3 SHL AND SHR NOT AND SWAP1 SSTORE DUP12 DUP1 DUP1 PUSH2 0xEE7 JUMP JUMPDEST DUP3 DUP5 ADD MLOAD DUP6 SSTORE DUP12 SWAP9 POP PUSH1 0x1 SWAP1 SWAP5 ADD SWAP4 SWAP3 DUP13 ADD SWAP3 DUP13 ADD PUSH2 0xEAC JUMP JUMPDEST DUP4 PUSH1 0x0 MSTORE PUSH1 0x20 PUSH1 0x0 KECCAK256 PUSH1 0x1F DUP5 ADD PUSH1 0x5 SHR DUP2 ADD SWAP2 PUSH1 0x20 DUP6 LT PUSH2 0xF65 JUMPI JUMPDEST PUSH1 0x1F ADD PUSH1 0x5 SHR ADD SWAP1 JUMPDEST DUP2 DUP2 LT PUSH2 0xF59 JUMPI POP PUSH2 0xDCD JUMP JUMPDEST PUSH1 0x0 DUP2 SSTORE PUSH1 0x1 ADD PUSH2 0xF4C JUMP JUMPDEST SWAP1 SWAP2 POP DUP2 SWAP1 PUSH2 0xF43 JUMP JUMPDEST PUSH4 0x4E487B71 PUSH1 0xE0 SHL PUSH1 0x0 MSTORE PUSH1 0x41 PUSH1 0x4 MSTORE PUSH1 0x24 PUSH1 0x0 REVERT JUMPDEST SWAP1 SWAP2 SWAP3 SWAP4 POP PUSH1 0x12 PUSH1 0x0 MSTORE PUSH32 0xBB8A6A4669BA250D26CD7A459ECA9D215F8307E33AEBE50379BC5A3617EC3444 PUSH1 0x0 SWAP1 JUMPDEST DUP5 DUP3 LT PUSH2 0xFCC JUMPI POP POP ADD ADD PUSH1 0x6F ADD SWAP1 DUP4 DUP4 PUSH1 0x20 PUSH2 0xB00 JUMP JUMPDEST PUSH1 0x1 DUP2 PUSH1 0x20 SWAP3 SLOAD PUSH1 0x6F DUP6 DUP9 DUP9 ADD ADD ADD MSTORE ADD SWAP2 ADD SWAP1 PUSH2 0xFB4 JUMP JUMPDEST PUSH1 0xFF NOT AND PUSH1 0x6F SWAP3 SWAP1 SWAP4 ADD DUP3 DUP2 ADD SWAP4 SWAP1 SWAP4 MSTORE POP DUP3 ISZERO ISZERO SWAP1 SWAP3 MUL ADD ADD SWAP2 POP DUP4 DUP4 PUSH1 0x20 PUSH2 0xB00 JUMP JUMPDEST SWAP2 PUSH1 0x1 SWAP1 PUSH1 0xFF PUSH1 0x80 DUP5 ADD MLOAD AND DUP5 LT PUSH1 0x0 EQ PUSH2 0x1060 JUMPI PUSH2 0x1058 PUSH1 0x23 PUSH1 0x40 MLOAD DUP4 PUSH2 0x103C DUP3 SWAP6 MLOAD DUP1 SWAP3 PUSH1 0x20 DUP1 DUP7 ADD SWAP2 ADD PUSH2 0x24A7 JUMP JUMPDEST DUP2 ADD PUSH3 0xE2AD9 PUSH1 0xEC SHL PUSH1 0x20 DUP3 ADD MSTORE SUB PUSH1 0x3 DUP2 ADD DUP5 MSTORE ADD DUP3 PUSH2 0x2639 JUMP JUMPDEST SWAP3 JUMPDEST ADD PUSH2 0x9C7 JUMP JUMPDEST PUSH2 0x1099 PUSH1 0x23 PUSH1 0x40 MLOAD DUP4 PUSH2 0x107D DUP3 SWAP6 MLOAD DUP1 SWAP3 PUSH1 0x20 DUP1 DUP7 ADD SWAP2 ADD PUSH2 0x24A7 JUMP JUMPDEST DUP2 ADD PUSH3 0x714C43 PUSH1 0xE9 SHL PUSH1 0x20 DUP3 ADD MSTORE SUB PUSH1 0x3 DUP2 ADD DUP5 MSTORE ADD DUP3 PUSH2 0x2639 JUMP JUMPDEST SWAP3 PUSH2 0x105A JUMP JUMPDEST PUSH1 0x20 PUSH2 0x10DE SWAP2 PUSH1 0x40 SWAP7 SWAP6 SWAP5 SWAP7 MLOAD DUP1 SWAP4 DUP2 SWAP3 PUSH4 0xA85BD01 PUSH1 0xE1 SHL DUP4 MSTORE CALLER PUSH1 0x4 DUP5 ADD MSTORE PUSH1 0x0 PUSH1 0x24 DUP5 ADD MSTORE DUP8 PUSH1 0x44 DUP5 ADD MSTORE PUSH1 0x80 PUSH1 0x64 DUP5 ADD MSTORE PUSH1 0x84 DUP4 ADD SWAP1 PUSH2 0x24CA JUMP JUMPDEST SUB DUP2 PUSH1 0x0 PUSH1 0x1 PUSH1 0x1 PUSH1 0xA0 SHL SUB DUP11 AND GAS CALL PUSH1 0x0 SWAP2 DUP2 PUSH2 0x1178 JUMPI JUMPDEST POP PUSH2 0x1136 JUMPI DUP5 PUSH2 0x1105 PUSH2 0x281F JUMP JUMPDEST DUP1 MLOAD SWAP2 SWAP1 DUP3 PUSH2 0x112F JUMPI PUSH1 0x40 MLOAD PUSH4 0x32505749 PUSH1 0xE1 SHL DUP2 MSTORE PUSH1 0x1 PUSH1 0x1 PUSH1 0xA0 SHL SUB DUP4 AND PUSH1 0x4 DUP3 ADD MSTORE PUSH1 0x24 SWAP1 REVERT JUMPDEST SWAP1 POP PUSH1 0x20 ADD REVERT JUMPDEST SWAP3 SWAP4 SWAP2 SWAP3 PUSH1 0x1 PUSH1 0x1 PUSH1 0xE0 SHL SUB NOT AND PUSH4 0x757A42FF PUSH1 0xE1 SHL ADD PUSH2 0x1157 JUMPI DUP5 PUSH2 0x917 JUMP JUMPDEST PUSH1 0x40 MLOAD PUSH4 0x32505749 PUSH1 0xE1 SHL DUP2 MSTORE PUSH1 0x1 PUSH1 0x1 PUSH1 0xA0 SHL SUB DUP4 AND PUSH1 0x4 DUP3 ADD MSTORE PUSH1 0x24 SWAP1 REVERT JUMPDEST SWAP1 SWAP2 POP PUSH1 0x20 DUP2 RETURNDATASIZE PUSH1 0x20 GT PUSH2 0x11B5 JUMPI JUMPDEST DUP2 PUSH2 0x1194 PUSH1 0x20 SWAP4 DUP4 PUSH2 0x2639 JUMP JUMPDEST DUP2 ADD SUB SLT PUSH2 0x22F JUMPI MLOAD PUSH1 0x1 PUSH1 0x1 PUSH1 0xE0 SHL SUB NOT DUP2 AND DUP2 SUB PUSH2 0x22F JUMPI SWAP1 DUP7 PUSH2 0x10F7 JUMP JUMPDEST RETURNDATASIZE SWAP2 POP PUSH2 0x1187 JUMP JUMPDEST PUSH1 0x40 MLOAD PUSH4 0x39E35637 PUSH1 0xE1 SHL DUP2 MSTORE PUSH1 0x0 PUSH1 0x4 DUP3 ADD MSTORE PUSH1 0x24 SWAP1 REVERT JUMPDEST PUSH1 0x0 DUP3 DUP2 MSTORE PUSH1 0x4 PUSH1 0x20 MSTORE PUSH1 0x40 SWAP1 KECCAK256 DUP1 SLOAD PUSH1 0x1 PUSH1 0x1 PUSH1 0xA0 SHL SUB NOT AND SWAP1 SSTORE DUP1 PUSH1 0x0 MSTORE PUSH1 0x3 PUSH1 0x20 MSTORE PUSH1 0x40 PUSH1 0x0 KECCAK256 PUSH1 0x0 NOT DUP2 SLOAD ADD SWAP1 SSTORE PUSH2 0x8A9 JUMP JUMPDEST PUSH4 0x4E487B71 PUSH1 0xE0 SHL PUSH1 0x0 MSTORE PUSH1 0x12 PUSH1 0x4 MSTORE PUSH1 0x24 PUSH1 0x0 REVERT JUMPDEST PUSH4 0x4E487B71 PUSH1 0xE0 SHL PUSH1 0x0 MSTORE PUSH1 0x11 PUSH1 0x4 MSTORE PUSH1 0x24 PUSH1 0x0 REVERT JUMPDEST ADD MLOAD SWAP1 POP DUP12 DUP1 PUSH2 0x77F JUMP JUMPDEST SWAP1 PUSH1 0x6 DUP6 ADD PUSH1 0x0 MSTORE PUSH1 0x20 PUSH1 0x0 KECCAK256 SWAP2 PUSH1 0x0 JUMPDEST PUSH1 0x1F NOT DUP6 AND DUP2 LT PUSH2 0x12A6 JUMPI POP DUP4 PUSH2 0x120 SWAP4 PUSH2 0x7C3 SWAP8 SWAP7 SWAP4 PUSH1 0x1 SWAP4 PUSH1 0x9 SWAP8 PUSH1 0x1F NOT DUP2 AND LT PUSH2 0x128D JUMPI JUMPDEST POP POP POP DUP2 SHL ADD PUSH1 0x6 DUP6 ADD SSTORE PUSH2 0x797 JUMP JUMPDEST ADD MLOAD PUSH1 0x0 NOT PUSH1 0xF8 DUP5 PUSH1 0x3 SHL AND SHR NOT AND SWAP1 SSTORE DUP12 DUP1 DUP1 PUSH2 0x127D JUMP JUMPDEST SWAP2 SWAP3 PUSH1 0x20 PUSH1 0x1 DUP2 SWAP3 DUP7 DUP6 ADD MLOAD DUP2 SSTORE ADD SWAP5 ADD SWAP3 ADD PUSH2 0x1255 JUMP JUMPDEST PUSH1 0x6 DUP6 ADD PUSH1 0x0 MSTORE PUSH1 0x20 PUSH1 0x0 KECCAK256 PUSH1 0x1F DUP5 ADD PUSH1 0x5 SHR DUP2 ADD PUSH1 0x20 DUP6 LT PUSH2 0x12FE JUMPI JUMPDEST PUSH1 0x1F DUP4 ADD PUSH1 0x5 SHR DUP3 ADD DUP2 LT PUSH2 0x12F2 JUMPI POP POP PUSH2 0x75A JUMP JUMPDEST PUSH1 0x0 DUP2 SSTORE PUSH1 0x1 ADD PUSH2 0x12DC JUMP JUMPDEST POP DUP1 PUSH2 0x12DC JUMP JUMPDEST ADD MLOAD SWAP1 POP DUP9 DUP1 PUSH2 0x716 JUMP JUMPDEST SWAP3 POP PUSH1 0x5 DUP6 ADD PUSH1 0x0 MSTORE PUSH1 0x20 PUSH1 0x0 KECCAK256 SWAP1 PUSH1 0x0 SWAP4 JUMPDEST PUSH1 0x1F NOT DUP5 AND DUP6 LT PUSH2 0x1367 JUMPI PUSH1 0x1 SWAP5 POP DUP4 PUSH1 0x1F NOT DUP2 AND LT PUSH2 0x134E JUMPI JUMPDEST POP POP POP DUP2 SHL ADD PUSH1 0x5 DUP4 ADD SSTORE PUSH2 0x72E JUMP JUMPDEST ADD MLOAD PUSH1 0x0 NOT PUSH1 0xF8 DUP5 PUSH1 0x3 SHL AND SHR NOT AND SWAP1 SSTORE DUP9 DUP1 DUP1 PUSH2 0x133E JUMP JUMPDEST DUP2 DUP2 ADD MLOAD DUP4 SSTORE PUSH1 0x20 SWAP5 DUP6 ADD SWAP5 PUSH1 0x1 SWAP1 SWAP4 ADD SWAP3 SWAP1 SWAP2 ADD SWAP1 PUSH2 0x1323 JUMP JUMPDEST SWAP1 SWAP2 POP PUSH1 0x5 DUP6 ADD PUSH1 0x0 MSTORE PUSH1 0x20 PUSH1 0x0 KECCAK256 PUSH1 0x1F DUP5 ADD PUSH1 0x5 SHR DUP2 ADD PUSH1 0x20 DUP6 LT PUSH2 0x13CE JUMPI JUMPDEST SWAP1 DUP5 SWAP4 SWAP3 SWAP2 JUMPDEST PUSH1 0x1F DUP4 ADD PUSH1 0x5 SHR DUP3 ADD DUP2 LT PUSH2 0x13BF JUMPI POP POP PUSH2 0x6FF JUMP JUMPDEST PUSH1 0x0 DUP2 SSTORE DUP6 SWAP5 POP PUSH1 0x1 ADD PUSH2 0x13A9 JUMP JUMPDEST POP DUP1 PUSH2 0x13A3 JUMP JUMPDEST PUSH1 0x40 MLOAD PUSH3 0x461BCD PUSH1 0xE5 SHL DUP2 MSTORE PUSH1 0x20 PUSH1 0x4 DUP3 ADD MSTORE PUSH1 0x23 PUSH1 0x24 DUP3 ADD MSTORE PUSH32 0x52657669657720616C72656164792065786973747320666F7220746869732062 PUSH1 0x44 DUP3 ADD MSTORE PUSH3 0x1A5B1B PUSH1 0xEA SHL PUSH1 0x64 DUP3 ADD MSTORE PUSH1 0x84 SWAP1 REVERT JUMPDEST PUSH1 0x40 MLOAD PUSH3 0x461BCD PUSH1 0xE5 SHL DUP2 MSTORE PUSH1 0x20 PUSH1 0x4 DUP3 ADD MSTORE PUSH1 0x18 PUSH1 0x24 DUP3 ADD MSTORE PUSH32 0x52657374617572616E74206E616D652072657175697265640000000000000000 PUSH1 0x44 DUP3 ADD MSTORE PUSH1 0x64 SWAP1 REVERT JUMPDEST PUSH1 0x40 MLOAD PUSH3 0x461BCD PUSH1 0xE5 SHL DUP2 MSTORE PUSH1 0x20 PUSH1 0x4 DUP3 ADD MSTORE PUSH1 0x14 PUSH1 0x24 DUP3 ADD MSTORE PUSH20 0x14995D9A595DC81D195E1D081C995C5D5A5C9959 PUSH1 0x62 SHL PUSH1 0x44 DUP3 ADD MSTORE PUSH1 0x64 SWAP1 REVERT JUMPDEST PUSH1 0x40 MLOAD PUSH3 0x461BCD PUSH1 0xE5 SHL DUP2 MSTORE PUSH1 0x20 PUSH1 0x4 DUP3 ADD MSTORE PUSH1 0x1A PUSH1 0x24 DUP3 ADD MSTORE PUSH32 0x496E76616C69642072657374617572616E742061646472657373000000000000 PUSH1 0x44 DUP3 ADD MSTORE PUSH1 0x64 SWAP1 REVERT JUMPDEST PUSH1 0x40 MLOAD PUSH3 0x461BCD PUSH1 0xE5 SHL DUP2 MSTORE PUSH1 0x20 PUSH1 0x4 DUP3 ADD MSTORE PUSH1 0x18 PUSH1 0x24 DUP3 ADD MSTORE PUSH32 0x496E76616C696420726576696577657220616464726573730000000000000000 PUSH1 0x44 DUP3 ADD MSTORE PUSH1 0x64 SWAP1 REVERT JUMPDEST PUSH1 0x40 MLOAD PUSH3 0x461BCD PUSH1 0xE5 SHL DUP2 MSTORE PUSH1 0x20 PUSH1 0x4 DUP3 ADD MSTORE PUSH1 0xE PUSH1 0x24 DUP3 ADD MSTORE PUSH14 0x496E76616C696420726174696E67 PUSH1 0x90 SHL PUSH1 0x44 DUP3 ADD MSTORE PUSH1 0x64 SWAP1 REVERT JUMPDEST POP PUSH1 0x15 SLOAD PUSH1 0xFF DUP6 AND GT ISZERO PUSH2 0x597 JUMP JUMPDEST PUSH1 0x40 MLOAD PUSH3 0x461BCD PUSH1 0xE5 SHL DUP2 MSTORE PUSH1 0x20 PUSH1 0x4 DUP3 ADD MSTORE PUSH1 0x16 PUSH1 0x24 DUP3 ADD MSTORE PUSH22 0x27B7363C903830BCB6B2B73A10383937B1B2B9B9B7B9 PUSH1 0x51 SHL PUSH1 0x44 DUP3 ADD MSTORE PUSH1 0x64 SWAP1 REVERT JUMPDEST CALLVALUE PUSH2 0x22F JUMPI PUSH1 0x0 CALLDATASIZE PUSH1 0x3 NOT ADD SLT PUSH2 0x22F JUMPI PUSH1 0x20 PUSH1 0x14 SLOAD PUSH1 0x40 MLOAD SWAP1 DUP2 MSTORE RETURN JUMPDEST CALLVALUE PUSH2 0x22F JUMPI PUSH1 0x80 CALLDATASIZE PUSH1 0x3 NOT ADD SLT PUSH2 0x22F JUMPI PUSH2 0x15EB PUSH2 0x24EF JUMP JUMPDEST PUSH2 0x15F3 PUSH2 0x2505 JUMP JUMPDEST SWAP1 PUSH1 0x44 CALLDATALOAD PUSH1 0x64 CALLDATALOAD SWAP3 PUSH1 0x1 PUSH1 0x1 PUSH1 0x40 SHL SUB DUP5 GT PUSH2 0x22F JUMPI CALLDATASIZE PUSH1 0x23 DUP6 ADD SLT ISZERO PUSH2 0x22F JUMPI PUSH2 0x162B PUSH2 0x163D SWAP5 CALLDATASIZE SWAP1 PUSH1 0x24 DUP2 PUSH1 0x4 ADD CALLDATALOAD SWAP2 ADD PUSH2 0x2675 JUMP JUMPDEST SWAP3 PUSH2 0x1637 DUP4 DUP4 DUP4 PUSH2 0x284F JUMP JUMPDEST CALLER PUSH2 0x2ABC JUMP JUMPDEST STOP JUMPDEST CALLVALUE PUSH2 0x22F JUMPI PUSH1 0x40 CALLDATASIZE PUSH1 0x3 NOT ADD SLT PUSH2 0x22F JUMPI PUSH2 0x1658 PUSH2 0x24EF JUMP JUMPDEST PUSH1 0x1 PUSH1 0x1 PUSH1 0xA0 SHL SUB AND PUSH1 0x0 SWAP1 DUP2 MSTORE PUSH1 0xC PUSH1 0x20 MSTORE PUSH1 0x40 SWAP1 KECCAK256 DUP1 SLOAD PUSH1 0x24 CALLDATALOAD SWAP2 SWAP1 DUP3 LT ISZERO PUSH2 0x22F JUMPI PUSH1 0x20 SWAP2 PUSH2 0x221 SWAP2 PUSH2 0x25B9 JUMP JUMPDEST CALLVALUE PUSH2 0x22F JUMPI PUSH1 0x40 CALLDATASIZE PUSH1 0x3 NOT ADD SLT PUSH2 0x22F JUMPI PUSH1 0x4 CALLDATALOAD PUSH1 0x24 CALLDATALOAD PUSH1 0x1 PUSH1 0x1 PUSH1 0x40 SHL SUB DUP2 GT PUSH2 0x22F JUMPI PUSH2 0x16BC SWAP1 CALLDATASIZE SWAP1 PUSH1 0x4 ADD PUSH2 0x258C JUMP JUMPDEST SWAP2 SWAP1 DUP2 PUSH1 0x0 MSTORE PUSH1 0x2 PUSH1 0x20 MSTORE PUSH2 0x16DF PUSH1 0x1 DUP1 PUSH1 0xA0 SHL SUB PUSH1 0x40 PUSH1 0x0 KECCAK256 SLOAD AND ISZERO ISZERO PUSH2 0x278B JUMP JUMPDEST DUP3 ISZERO PUSH2 0x175B JUMPI PUSH32 0xFF3F74CBC8E2959657130EB7396F3FFF29CA8E98C6CF44CF702C409827B2300E SWAP1 DUP3 PUSH1 0x0 MSTORE PUSH1 0xA PUSH1 0x20 MSTORE PUSH2 0x1724 PUSH1 0xFF PUSH1 0x9 PUSH1 0x40 PUSH1 0x0 KECCAK256 ADD SLOAD AND PUSH2 0x27CF JUMP JUMPDEST DUP4 PUSH1 0x40 MLOAD SWAP2 PUSH1 0x40 DUP4 MSTORE DUP2 PUSH1 0x40 DUP5 ADD MSTORE PUSH1 0x60 DUP4 ADD CALLDATACOPY PUSH1 0x0 PUSH1 0x60 DUP6 DUP4 ADD ADD MSTORE TIMESTAMP PUSH1 0x20 DUP3 ADD MSTORE PUSH1 0x60 DUP2 CALLER SWAP6 PUSH1 0x1F DUP1 NOT SWAP2 ADD AND DUP2 ADD SUB ADD SWAP1 LOG3 STOP JUMPDEST PUSH1 0x40 MLOAD PUSH3 0x461BCD PUSH1 0xE5 SHL DUP2 MSTORE PUSH1 0x20 PUSH1 0x4 DUP3 ADD MSTORE PUSH1 0x16 PUSH1 0x24 DUP3 ADD MSTORE PUSH22 0x14995C1BDC9D081C99585CDBDB881C995C5D5A5C9959 PUSH1 0x52 SHL PUSH1 0x44 DUP3 ADD MSTORE PUSH1 0x64 SWAP1 REVERT JUMPDEST CALLVALUE PUSH2 0x22F JUMPI PUSH1 0x40 CALLDATASIZE PUSH1 0x3 NOT ADD SLT PUSH2 0x22F JUMPI PUSH2 0x17B2 PUSH2 0x24EF JUMP JUMPDEST PUSH1 0x24 CALLDATALOAD SWAP1 DUP2 ISZERO ISZERO SWAP1 DUP2 DUP4 SUB PUSH2 0x22F JUMPI PUSH1 0x1 PUSH1 0x1 PUSH1 0xA0 SHL SUB AND SWAP2 DUP3 ISZERO PUSH2 0x182E JUMPI PUSH2 0x1800 SWAP1 CALLER PUSH1 0x0 MSTORE PUSH1 0x5 PUSH1 0x20 MSTORE PUSH1 0x40 PUSH1 0x0 KECCAK256 DUP5 PUSH1 0x0 MSTORE PUSH1 0x20 MSTORE PUSH1 0x40 PUSH1 0x0 KECCAK256 SWAP1 PUSH1 0xFF DUP1 NOT DUP4 SLOAD AND SWAP2 ISZERO ISZERO AND OR SWAP1 SSTORE JUMP JUMPDEST PUSH1 0x40 MLOAD SWAP1 DUP2 MSTORE PUSH32 0x17307EAB39AB6107E8899845AD3D59BD9653F200F220920489CA2B5937696C31 PUSH1 0x20 CALLER SWAP3 LOG3 STOP JUMPDEST PUSH1 0x40 MLOAD PUSH4 0xB611743 PUSH1 0xE3 SHL DUP2 MSTORE PUSH1 0x4 DUP2 ADD DUP5 SWAP1 MSTORE PUSH1 0x24 SWAP1 REVERT JUMPDEST CALLVALUE PUSH2 0x22F JUMPI PUSH1 0x20 CALLDATASIZE PUSH1 0x3 NOT ADD SLT PUSH2 0x22F JUMPI PUSH1 0x4 CALLDATALOAD PUSH1 0x0 PUSH2 0x120 PUSH1 0x40 MLOAD PUSH2 0x186C DUP2 PUSH2 0x2602 JUMP JUMPDEST DUP3 DUP2 MSTORE DUP3 PUSH1 0x20 DUP3 ADD MSTORE DUP3 PUSH1 0x40 DUP3 ADD MSTORE DUP3 PUSH1 0x60 DUP3 ADD MSTORE DUP3 PUSH1 0x80 DUP3 ADD MSTORE PUSH1 0x60 PUSH1 0xA0 DUP3 ADD MSTORE PUSH1 0x60 PUSH1 0xC0 DUP3 ADD MSTORE DUP3 PUSH1 0xE0 DUP3 ADD MSTORE DUP3 PUSH2 0x100 DUP3 ADD MSTORE ADD MSTORE DUP1 PUSH1 0x0 MSTORE PUSH1 0x2 PUSH1 0x20 MSTORE PUSH2 0x18C5 PUSH1 0x1 DUP1 PUSH1 0xA0 SHL SUB PUSH1 0x40 PUSH1 0x0 KECCAK256 SLOAD AND ISZERO ISZERO PUSH2 0x278B JUMP JUMPDEST PUSH1 0x0 MSTORE PUSH1 0xA PUSH1 0x20 MSTORE PUSH1 0x40 PUSH1 0x0 KECCAK256 PUSH1 0xFF PUSH1 0x9 PUSH1 0x40 MLOAD SWAP3 PUSH2 0x18E3 DUP5 PUSH2 0x2602 JUMP JUMPDEST DUP1 SLOAD DUP5 MSTORE PUSH1 0x1 DUP2 ADD SLOAD PUSH1 0x1 PUSH1 0x1 PUSH1 0xA0 SHL SUB SWAP1 DUP2 AND PUSH1 0x20 DUP7 ADD MSTORE PUSH1 0x2 DUP3 ADD SLOAD AND PUSH1 0x40 DUP6 ADD MSTORE PUSH1 0x3 DUP2 ADD SLOAD PUSH1 0x60 DUP6 ADD MSTORE PUSH1 0x4 DUP2 ADD SLOAD DUP4 AND PUSH1 0x80 DUP6 ADD MSTORE PUSH2 0x1929 PUSH1 0x5 DUP3 ADD PUSH2 0x26E6 JUMP JUMPDEST PUSH1 0xA0 DUP6 ADD MSTORE PUSH2 0x193A PUSH1 0x6 DUP3 ADD PUSH2 0x26E6 JUMP JUMPDEST PUSH1 0xC0 DUP6 ADD MSTORE PUSH1 0x7 DUP2 ADD SLOAD PUSH1 0xE0 DUP6 ADD MSTORE PUSH1 0x8 DUP2 ADD SLOAD PUSH2 0x100 DUP6 ADD MSTORE ADD SLOAD AND ISZERO ISZERO PUSH2 0x120 DUP3 ADD MSTORE PUSH1 0x40 MLOAD DUP1 SWAP2 PUSH1 0x20 DUP3 MSTORE DUP1 MLOAD PUSH1 0x20 DUP4 ADD MSTORE PUSH1 0x1 DUP1 PUSH1 0xA0 SHL SUB PUSH1 0x20 DUP3 ADD MLOAD AND PUSH1 0x40 DUP4 ADD MSTORE PUSH1 0x1 DUP1 PUSH1 0xA0 SHL SUB PUSH1 0x40 DUP3 ADD MLOAD AND PUSH1 0x60 DUP4 ADD MSTORE PUSH1 0x60 DUP2 ADD MLOAD PUSH1 0x80 DUP4 ADD MSTORE PUSH1 0xFF PUSH1 0x80 DUP3 ADD MLOAD AND PUSH1 0xA0 DUP4 ADD MSTORE PUSH1 0xA0 DUP2 ADD MLOAD PUSH2 0x120 PUSH2 0x19E3 PUSH2 0x19CD PUSH2 0x140 SWAP4 DUP5 PUSH1 0xC0 DUP9 ADD MSTORE PUSH2 0x160 DUP8 ADD SWAP1 PUSH2 0x24CA JUMP JUMPDEST PUSH1 0xC0 DUP6 ADD MLOAD DUP7 DUP3 SUB PUSH1 0x1F NOT ADD PUSH1 0xE0 DUP9 ADD MSTORE PUSH2 0x24CA JUMP JUMPDEST SWAP3 PUSH1 0xE0 DUP2 ADD MLOAD PUSH2 0x100 DUP7 ADD MSTORE PUSH2 0x100 DUP2 ADD MLOAD DUP3 DUP7 ADD MSTORE ADD MLOAD ISZERO ISZERO SWAP1 DUP4 ADD MSTORE SUB SWAP1 RETURN JUMPDEST CALLVALUE PUSH2 0x22F JUMPI PUSH1 0x0 CALLDATASIZE PUSH1 0x3 NOT ADD SLT PUSH2 0x22F JUMPI PUSH1 0x40 MLOAD PUSH1 0x0 PUSH1 0x1 DUP3 PUSH1 0x1 SLOAD SWAP3 PUSH2 0x1A2B DUP5 PUSH2 0x26AC JUMP JUMPDEST SWAP3 DUP4 DUP4 MSTORE PUSH1 0x20 SWAP5 DUP6 PUSH1 0x1 DUP3 AND SWAP2 DUP3 PUSH1 0x0 EQ PUSH2 0x1AC8 JUMPI POP POP PUSH1 0x1 EQ PUSH2 0x1A6B JUMPI JUMPDEST POP PUSH2 0x1A57 SWAP3 POP SUB DUP4 PUSH2 0x2639 JUMP JUMPDEST PUSH2 0x469 PUSH1 0x40 MLOAD SWAP3 DUP3 DUP5 SWAP4 DUP5 MSTORE DUP4 ADD SWAP1 PUSH2 0x24CA JUMP JUMPDEST DUP5 SWAP2 POP PUSH1 0x1 PUSH1 0x0 MSTORE PUSH32 0xB10E2D527612073B26EECDFD717E6A320CF44B4AFAC2B0732D9FCBE2B7FA0CF6 SWAP1 PUSH1 0x0 SWAP2 JUMPDEST DUP6 DUP4 LT PUSH2 0x1AB0 JUMPI POP POP PUSH2 0x1A57 SWAP4 POP DUP3 ADD ADD DUP6 PUSH2 0x1A4A JUMP JUMPDEST DUP1 SLOAD DUP4 DUP10 ADD DUP6 ADD MSTORE DUP8 SWAP5 POP DUP7 SWAP4 SWAP1 SWAP3 ADD SWAP2 DUP2 ADD PUSH2 0x1A99 JUMP JUMPDEST PUSH1 0xFF NOT AND DUP6 DUP3 ADD MSTORE PUSH2 0x1A57 SWAP6 ISZERO ISZERO PUSH1 0x5 SHL DUP6 ADD ADD SWAP3 POP DUP8 SWAP2 POP PUSH2 0x1A4A SWAP1 POP JUMP JUMPDEST CALLVALUE PUSH2 0x22F JUMPI PUSH1 0x0 CALLDATASIZE PUSH1 0x3 NOT ADD SLT PUSH2 0x22F JUMPI PUSH1 0x7 SLOAD PUSH1 0x40 MLOAD PUSH1 0x1 PUSH1 0x1 PUSH1 0xA0 SHL SUB SWAP1 SWAP2 AND DUP2 MSTORE PUSH1 0x20 SWAP1 RETURN JUMPDEST CALLVALUE PUSH2 0x22F JUMPI PUSH1 0x20 CALLDATASIZE PUSH1 0x3 NOT ADD SLT PUSH2 0x22F JUMPI PUSH1 0x4 CALLDATALOAD PUSH1 0x1 PUSH1 0x1 PUSH1 0x40 SHL SUB DUP2 GT PUSH2 0x22F JUMPI PUSH2 0x1B41 SWAP1 CALLDATASIZE SWAP1 PUSH1 0x4 ADD PUSH2 0x258C JUMP JUMPDEST POP POP PUSH2 0x163D PUSH2 0x2A72 JUMP JUMPDEST CALLVALUE PUSH2 0x22F JUMPI PUSH1 0x0 CALLDATASIZE PUSH1 0x3 NOT ADD SLT PUSH2 0x22F JUMPI PUSH2 0x1B64 PUSH2 0x2A72 JUMP JUMPDEST PUSH2 0x1B6C PUSH2 0x2A9E JUMP JUMPDEST PUSH1 0x1 PUSH1 0xFF NOT PUSH1 0x9 SLOAD AND OR PUSH1 0x9 SSTORE PUSH32 0x62E78CEA01BEE320CD4E420270B5EA74000D11B0C9F74754EBDBFC544B05A258 PUSH1 0x20 PUSH1 0x40 MLOAD CALLER DUP2 MSTORE LOG1 STOP JUMPDEST CALLVALUE PUSH2 0x22F JUMPI PUSH1 0x0 CALLDATASIZE PUSH1 0x3 NOT ADD SLT PUSH2 0x22F JUMPI PUSH2 0x1BBE PUSH2 0x2A72 JUMP JUMPDEST PUSH1 0x7 DUP1 SLOAD PUSH1 0x1 PUSH1 0x1 PUSH1 0xA0 SHL SUB NOT DUP2 AND SWAP1 SWAP2 SSTORE PUSH1 0x0 SWAP1 PUSH1 0x1 PUSH1 0x1 PUSH1 0xA0 SHL SUB AND PUSH32 0x8BE0079C531659141344CD1FD0A4F28419497F9722A3DAAFE3B4186F6B6457E0 DUP3 DUP1 LOG3 STOP JUMPDEST CALLVALUE PUSH2 0x22F JUMPI PUSH1 0x20 CALLDATASIZE PUSH1 0x3 NOT ADD SLT PUSH2 0x22F JUMPI PUSH1 0x1 PUSH1 0x1 PUSH1 0xA0 SHL SUB PUSH2 0x1C23 PUSH2 0x24EF JUMP JUMPDEST AND DUP1 ISZERO PUSH2 0x1C42 JUMPI PUSH1 0x0 MSTORE PUSH1 0x3 PUSH1 0x20 MSTORE PUSH1 0x20 PUSH1 0x40 PUSH1 0x0 KECCAK256 SLOAD PUSH1 0x40 MLOAD SWAP1 DUP2 MSTORE RETURN JUMPDEST PUSH1 0x40 MLOAD PUSH4 0x22718AD9 PUSH1 0xE2 SHL DUP2 MSTORE PUSH1 0x0 PUSH1 0x4 DUP3 ADD MSTORE PUSH1 0x24 SWAP1 REVERT JUMPDEST CALLVALUE PUSH2 0x22F JUMPI PUSH1 0x20 CALLDATASIZE PUSH1 0x3 NOT ADD SLT PUSH2 0x22F JUMPI PUSH1 0x1 PUSH1 0x1 PUSH1 0xA0 SHL SUB PUSH2 0x1C7C PUSH2 0x24EF JUMP JUMPDEST AND PUSH1 0x0 MSTORE PUSH1 0xD PUSH1 0x20 MSTORE PUSH1 0x40 PUSH1 0x0 KECCAK256 DUP1 SLOAD PUSH2 0x469 PUSH1 0x2 PUSH1 0x1 DUP5 ADD SLOAD SWAP4 ADD SLOAD PUSH1 0x40 MLOAD SWAP4 DUP5 SWAP4 DUP5 PUSH1 0x40 SWAP2 SWAP5 SWAP4 SWAP3 PUSH1 0x60 DUP3 ADD SWAP6 DUP3 MSTORE PUSH1 0x20 DUP3 ADD MSTORE ADD MSTORE JUMP JUMPDEST CALLVALUE PUSH2 0x22F JUMPI PUSH1 0x20 CALLDATASIZE PUSH1 0x3 NOT ADD SLT PUSH2 0x22F JUMPI PUSH1 0x20 PUSH2 0x1CD4 PUSH1 0x4 CALLDATALOAD PUSH2 0x2A37 JUMP JUMPDEST PUSH1 0x40 MLOAD PUSH1 0x1 PUSH1 0x1 PUSH1 0xA0 SHL SUB SWAP1 SWAP2 AND DUP2 MSTORE RETURN JUMPDEST CALLVALUE PUSH2 0x22F JUMPI PUSH1 0x0 CALLDATASIZE PUSH1 0x3 NOT ADD SLT PUSH2 0x22F JUMPI PUSH1 0x20 PUSH1 0xFF PUSH1 0x9 SLOAD AND PUSH1 0x40 MLOAD SWAP1 ISZERO ISZERO DUP2 MSTORE RETURN JUMPDEST CALLVALUE PUSH2 0x22F JUMPI PUSH1 0x20 CALLDATASIZE PUSH1 0x3 NOT ADD SLT PUSH2 0x22F JUMPI PUSH2 0x1D22 PUSH2 0x24EF JUMP JUMPDEST PUSH1 0x0 PUSH1 0x40 DUP1 MLOAD PUSH2 0x1D31 DUP2 PUSH2 0x25E7 JUMP JUMPDEST DUP3 DUP2 MSTORE DUP3 PUSH1 0x20 DUP3 ADD MSTORE ADD MSTORE PUSH1 0x1 DUP1 PUSH1 0xA0 SHL SUB AND PUSH1 0x0 MSTORE PUSH1 0xD PUSH1 0x20 MSTORE PUSH1 0x60 PUSH1 0x40 PUSH1 0x0 KECCAK256 PUSH1 0x40 MLOAD PUSH2 0x1D5F DUP2 PUSH2 0x25E7 JUMP JUMPDEST DUP2 SLOAD SWAP2 DUP3 DUP3 MSTORE PUSH1 0x40 PUSH1 0x2 PUSH1 0x1 DUP4 ADD SLOAD SWAP3 PUSH1 0x20 DUP6 ADD SWAP4 DUP5 MSTORE ADD SLOAD SWAP3 ADD SWAP2 DUP3 MSTORE PUSH1 0x40 MLOAD SWAP3 DUP4 MSTORE MLOAD PUSH1 0x20 DUP4 ADD MSTORE MLOAD PUSH1 0x40 DUP3 ADD MSTORE RETURN JUMPDEST CALLVALUE PUSH2 0x22F JUMPI PUSH2 0x163D PUSH2 0x1DA2 CALLDATASIZE PUSH2 0x251B JUMP JUMPDEST SWAP1 PUSH1 0x40 MLOAD SWAP3 PUSH2 0x1DB0 DUP5 PUSH2 0x261E JUMP JUMPDEST PUSH1 0x0 DUP5 MSTORE PUSH2 0x1637 DUP4 DUP4 DUP4 PUSH2 0x284F JUMP JUMPDEST CALLVALUE PUSH2 0x22F JUMPI PUSH1 0x0 CALLDATASIZE PUSH1 0x3 NOT ADD SLT PUSH2 0x22F JUMPI PUSH2 0x1DD8 PUSH2 0x2A72 JUMP JUMPDEST PUSH1 0x9 SLOAD PUSH1 0xFF DUP2 AND ISZERO PUSH2 0x1E17 JUMPI PUSH1 0xFF NOT AND PUSH1 0x9 SSTORE PUSH32 0x5DB9EE0A495BF2E6FF9C91A7834C1BA4FDD244A5E8AA4E537BD38AEAE4B073AA PUSH1 0x20 PUSH1 0x40 MLOAD CALLER DUP2 MSTORE LOG1 STOP JUMPDEST PUSH1 0x40 MLOAD PUSH4 0x8DFC202B PUSH1 0xE0 SHL DUP2 MSTORE PUSH1 0x4 SWAP1 REVERT JUMPDEST CALLVALUE PUSH2 0x22F JUMPI PUSH1 0x20 CALLDATASIZE PUSH1 0x3 NOT ADD SLT PUSH2 0x22F JUMPI PUSH1 0x4 CALLDATALOAD PUSH1 0x0 MSTORE PUSH1 0xF PUSH1 0x20 MSTORE PUSH1 0x20 PUSH1 0xFF PUSH1 0x40 PUSH1 0x0 KECCAK256 SLOAD AND PUSH1 0x40 MLOAD SWAP1 ISZERO ISZERO DUP2 MSTORE RETURN JUMPDEST CALLVALUE PUSH2 0x22F JUMPI PUSH1 0x20 CALLDATASIZE PUSH1 0x3 NOT ADD SLT PUSH2 0x22F JUMPI PUSH1 0x4 CALLDATALOAD PUSH2 0x1E76 PUSH2 0x2A72 JUMP JUMPDEST PUSH1 0x0 DUP2 DUP2 MSTORE PUSH1 0x2 PUSH1 0x20 MSTORE PUSH1 0x40 SWAP1 KECCAK256 SLOAD PUSH2 0x1E99 SWAP1 PUSH1 0x1 PUSH1 0x1 PUSH1 0xA0 SHL SUB AND ISZERO ISZERO PUSH2 0x278B JUMP JUMPDEST PUSH1 0x0 SWAP1 DUP2 MSTORE PUSH1 0xA PUSH1 0x20 MSTORE PUSH1 0x40 SWAP1 KECCAK256 PUSH1 0x9 ADD DUP1 SLOAD PUSH1 0xFF NOT AND SWAP1 SSTORE STOP JUMPDEST CALLVALUE PUSH2 0x22F JUMPI PUSH1 0x20 DUP1 PUSH1 0x3 NOT CALLDATASIZE ADD SLT PUSH2 0x22F JUMPI PUSH1 0x1 PUSH1 0x1 PUSH1 0xA0 SHL SUB PUSH2 0x1ED6 PUSH2 0x24EF JUMP JUMPDEST AND PUSH1 0x0 MSTORE PUSH1 0xC PUSH1 0x20 MSTORE PUSH1 0x40 PUSH1 0x0 KECCAK256 SWAP1 PUSH1 0x40 MLOAD SWAP1 DUP2 PUSH1 0x20 DUP5 SLOAD SWAP2 DUP3 DUP2 MSTORE ADD SWAP4 PUSH1 0x0 MSTORE PUSH1 0x20 PUSH1 0x0 KECCAK256 SWAP2 PUSH1 0x0 SWAP1 JUMPDEST DUP3 DUP3 LT PUSH2 0x1F24 JUMPI PUSH2 0x469 DUP6 PUSH2 0x1F18 DUP2 DUP10 SUB DUP3 PUSH2 0x2639 JUMP JUMPDEST PUSH1 0x40 MLOAD SWAP2 DUP3 SWAP2 DUP3 PUSH2 0x2550 JUMP JUMPDEST DUP4 SLOAD DUP7 MSTORE SWAP5 DUP6 ADD SWAP5 PUSH1 0x1 SWAP4 DUP5 ADD SWAP4 SWAP1 SWAP2 ADD SWAP1 PUSH2 0x1F01 JUMP JUMPDEST CALLVALUE PUSH2 0x22F JUMPI PUSH1 0x20 DUP1 PUSH1 0x3 NOT CALLDATASIZE ADD SLT PUSH2 0x22F JUMPI PUSH1 0x1 PUSH1 0x1 PUSH1 0xA0 SHL SUB PUSH2 0x1F5D PUSH2 0x24EF JUMP JUMPDEST AND PUSH1 0x0 MSTORE PUSH1 0xB PUSH1 0x20 MSTORE PUSH1 0x40 PUSH1 0x0 KECCAK256 SWAP1 PUSH1 0x40 MLOAD SWAP1 DUP2 PUSH1 0x20 DUP5 SLOAD SWAP2 DUP3 DUP2 MSTORE ADD SWAP4 PUSH1 0x0 MSTORE PUSH1 0x20 PUSH1 0x0 KECCAK256 SWAP2 PUSH1 0x0 SWAP1 JUMPDEST DUP3 DUP3 LT PUSH2 0x1F9F JUMPI PUSH2 0x469 DUP6 PUSH2 0x1F18 DUP2 DUP10 SUB DUP3 PUSH2 0x2639 JUMP JUMPDEST DUP4 SLOAD DUP7 MSTORE SWAP5 DUP6 ADD SWAP5 PUSH1 0x1 SWAP4 DUP5 ADD SWAP4 SWAP1 SWAP2 ADD SWAP1 PUSH2 0x1F88 JUMP JUMPDEST CALLVALUE PUSH2 0x22F JUMPI PUSH2 0x163D PUSH2 0x1FC7 CALLDATASIZE PUSH2 0x251B JUMP JUMPDEST SWAP2 PUSH2 0x284F JUMP JUMPDEST PUSH1 0x20 DUP1 PUSH1 0x3 NOT CALLDATASIZE ADD SLT PUSH2 0x22F JUMPI PUSH1 0x4 CALLDATALOAD PUSH1 0x2 PUSH1 0x8 SLOAD EQ PUSH2 0x215B JUMPI PUSH1 0x2 PUSH1 0x8 SSTORE PUSH2 0x1FF4 PUSH2 0x2A9E JUMP JUMPDEST PUSH1 0x0 DUP2 DUP2 MSTORE PUSH1 0x2 DUP4 MSTORE PUSH1 0x40 SWAP1 KECCAK256 SLOAD PUSH1 0x1 PUSH1 0x1 PUSH1 0xA0 SHL SUB SWAP1 PUSH2 0x2018 SWAP1 DUP3 AND ISZERO ISZERO PUSH2 0x278B JUMP JUMPDEST CALLVALUE ISZERO PUSH2 0x210C JUMPI PUSH1 0x0 DUP1 DUP1 DUP1 SWAP4 DUP6 DUP3 MSTORE PUSH1 0xA DUP8 MSTORE PUSH2 0x203E PUSH1 0xFF PUSH1 0x9 PUSH1 0x40 DUP6 KECCAK256 ADD SLOAD AND PUSH2 0x27CF JUMP JUMPDEST DUP6 DUP3 MSTORE PUSH1 0xA DUP8 MSTORE PUSH1 0x40 DUP3 KECCAK256 SWAP1 PUSH1 0x8 PUSH2 0x2055 DUP9 PUSH2 0x2A37 JUMP JUMPDEST SWAP3 DUP9 DUP6 MSTORE PUSH1 0xE DUP11 MSTORE PUSH1 0x40 DUP6 KECCAK256 CALLER DUP7 MSTORE DUP11 MSTORE PUSH1 0x40 DUP6 KECCAK256 PUSH2 0x2075 CALLVALUE DUP3 SLOAD PUSH2 0x2812 JUMP JUMPDEST SWAP1 SSTORE ADD PUSH2 0x2083 CALLVALUE DUP3 SLOAD PUSH2 0x2812 JUMP JUMPDEST SWAP1 SSTORE CALLVALUE SWAP2 AND GAS CALL PUSH2 0x2092 PUSH2 0x281F JUMP JUMPDEST POP ISZERO PUSH2 0x20D1 JUMPI PUSH1 0x40 MLOAD SWAP2 CALLVALUE DUP4 MSTORE TIMESTAMP SWAP1 DUP4 ADD MSTORE PUSH32 0xC07E11EB2321C2C805C8443A6ADC437B65D8DFA24956AFA1C8C0F28E6AC927E3 PUSH1 0x40 CALLER SWAP4 LOG3 PUSH1 0x1 PUSH1 0x8 SSTORE STOP JUMPDEST PUSH1 0x40 MLOAD PUSH3 0x461BCD PUSH1 0xE5 SHL DUP2 MSTORE PUSH1 0x4 DUP2 ADD DUP4 SWAP1 MSTORE PUSH1 0x13 PUSH1 0x24 DUP3 ADD MSTORE PUSH19 0x151A5C081D1C985B9CD9995C8819985A5B1959 PUSH1 0x6A SHL PUSH1 0x44 DUP3 ADD MSTORE PUSH1 0x64 SWAP1 REVERT JUMPDEST PUSH1 0x40 MLOAD PUSH3 0x461BCD PUSH1 0xE5 SHL DUP2 MSTORE PUSH1 0x4 DUP2 ADD DUP5 SWAP1 MSTORE PUSH1 0x21 PUSH1 0x24 DUP3 ADD MSTORE PUSH32 0x54697020616D6F756E74206D7573742062652067726561746572207468616E20 PUSH1 0x44 DUP3 ADD MSTORE PUSH1 0x3 PUSH1 0xFC SHL PUSH1 0x64 DUP3 ADD MSTORE PUSH1 0x84 SWAP1 REVERT JUMPDEST PUSH1 0x40 MLOAD PUSH4 0x3EE5AEB5 PUSH1 0xE0 SHL DUP2 MSTORE PUSH1 0x4 SWAP1 REVERT JUMPDEST CALLVALUE PUSH2 0x22F JUMPI PUSH1 0x40 CALLDATASIZE PUSH1 0x3 NOT ADD SLT PUSH2 0x22F JUMPI PUSH2 0x2186 PUSH2 0x2505 JUMP JUMPDEST PUSH1 0x4 CALLDATALOAD PUSH1 0x0 MSTORE PUSH1 0xE PUSH1 0x20 MSTORE PUSH1 0x40 PUSH1 0x0 KECCAK256 SWAP1 PUSH1 0x1 DUP1 PUSH1 0xA0 SHL SUB AND PUSH1 0x0 MSTORE PUSH1 0x20 MSTORE PUSH1 0x20 PUSH1 0x40 PUSH1 0x0 KECCAK256 SLOAD PUSH1 0x40 MLOAD SWAP1 DUP2 MSTORE RETURN JUMPDEST CALLVALUE PUSH2 0x22F JUMPI PUSH1 0x40 CALLDATASIZE PUSH1 0x3 NOT ADD SLT PUSH2 0x22F JUMPI PUSH2 0x21CE PUSH2 0x24EF JUMP JUMPDEST PUSH1 0x24 CALLDATALOAD PUSH2 0x21DA DUP2 PUSH2 0x2A37 JUMP JUMPDEST CALLER ISZERO ISZERO DUP1 PUSH2 0x2289 JUMPI JUMPDEST DUP1 PUSH2 0x225C JUMPI JUMPDEST PUSH2 0x2244 JUMPI PUSH1 0x1 PUSH1 0x1 PUSH1 0xA0 SHL SUB SWAP3 DUP4 AND SWAP3 DUP3 SWAP2 DUP5 SWAP2 AND PUSH32 0x8C5BE1E5EBEC7D5BD14F71427D1E84F3DD0314C0F7B2291E5B200AC8C7C3B925 PUSH1 0x0 DUP1 LOG4 PUSH1 0x0 SWAP1 DUP2 MSTORE PUSH1 0x4 PUSH1 0x20 MSTORE PUSH1 0x40 SWAP1 KECCAK256 DUP1 SLOAD PUSH1 0x1 PUSH1 0x1 PUSH1 0xA0 SHL SUB NOT AND SWAP1 SWAP2 OR SWAP1 SSTORE STOP JUMPDEST PUSH1 0x40 MLOAD PUSH4 0xA9FBF51F PUSH1 0xE0 SHL DUP2 MSTORE CALLER PUSH1 0x4 DUP3 ADD MSTORE PUSH1 0x24 SWAP1 REVERT JUMPDEST POP PUSH1 0x1 DUP1 PUSH1 0xA0 SHL SUB DUP2 AND PUSH1 0x0 MSTORE PUSH1 0x5 PUSH1 0x20 MSTORE PUSH1 0x40 PUSH1 0x0 KECCAK256 CALLER PUSH1 0x0 MSTORE PUSH1 0x20 MSTORE PUSH1 0xFF PUSH1 0x40 PUSH1 0x0 KECCAK256 SLOAD AND ISZERO PUSH2 0x21E9 JUMP JUMPDEST POP PUSH1 0x1 PUSH1 0x1 PUSH1 0xA0 SHL SUB DUP2 AND CALLER EQ ISZERO PUSH2 0x21E3 JUMP JUMPDEST CALLVALUE PUSH2 0x22F JUMPI PUSH1 0x20 CALLDATASIZE PUSH1 0x3 NOT ADD SLT PUSH2 0x22F JUMPI PUSH2 0x22B5 PUSH2 0x24EF JUMP JUMPDEST PUSH2 0x22BD PUSH2 0x2A72 JUMP JUMPDEST PUSH1 0x1 PUSH1 0x1 PUSH1 0xA0 SHL SUB AND DUP1 ISZERO PUSH2 0x22E4 JUMPI PUSH1 0x1 PUSH1 0x1 PUSH1 0x60 SHL SUB PUSH1 0xA0 SHL PUSH1 0x13 SLOAD AND OR PUSH1 0x13 SSTORE PUSH1 0x0 DUP1 RETURN JUMPDEST PUSH1 0x40 MLOAD PUSH3 0x461BCD PUSH1 0xE5 SHL DUP2 MSTORE PUSH1 0x20 PUSH1 0x4 DUP3 ADD MSTORE PUSH1 0xF PUSH1 0x24 DUP3 ADD MSTORE PUSH15 0x496E76616C69642061646472657373 PUSH1 0x88 SHL PUSH1 0x44 DUP3 ADD MSTORE PUSH1 0x64 SWAP1 REVERT JUMPDEST CALLVALUE PUSH2 0x22F JUMPI PUSH1 0x20 CALLDATASIZE PUSH1 0x3 NOT ADD SLT PUSH2 0x22F JUMPI PUSH1 0x4 CALLDATALOAD PUSH2 0x2338 DUP2 PUSH2 0x2A37 JUMP JUMPDEST POP PUSH1 0x0 MSTORE PUSH1 0x4 PUSH1 0x20 MSTORE PUSH1 0x20 PUSH1 0x1 DUP1 PUSH1 0xA0 SHL SUB PUSH1 0x40 PUSH1 0x0 KECCAK256 SLOAD AND PUSH1 0x40 MLOAD SWAP1 DUP2 MSTORE RETURN JUMPDEST CALLVALUE PUSH2 0x22F JUMPI PUSH1 0x0 CALLDATASIZE PUSH1 0x3 NOT ADD SLT PUSH2 0x22F JUMPI PUSH1 0x40 MLOAD PUSH1 0x0 DUP1 SLOAD SWAP1 DUP3 PUSH2 0x237C DUP4 PUSH2 0x26AC JUMP JUMPDEST SWAP2 DUP3 DUP3 MSTORE PUSH1 0x20 SWAP4 PUSH1 0x1 SWAP1 DUP6 PUSH1 0x1 DUP3 AND SWAP2 DUP3 PUSH1 0x0 EQ PUSH2 0x1AC8 JUMPI POP POP PUSH1 0x1 EQ PUSH2 0x23AA JUMPI POP PUSH2 0x1A57 SWAP3 POP SUB DUP4 PUSH2 0x2639 JUMP JUMPDEST PUSH1 0x0 DUP1 DUP1 MSTORE DUP6 SWAP3 POP SWAP1 PUSH32 0x290DECD9548B62A8D60345A988386FC84BA6BC95484008F6362F93160EF3E563 JUMPDEST DUP6 DUP4 LT PUSH2 0x23EC JUMPI POP POP PUSH2 0x1A57 SWAP4 POP DUP3 ADD ADD DUP6 PUSH2 0x1A4A JUMP JUMPDEST DUP1 SLOAD DUP4 DUP10 ADD DUP6 ADD MSTORE DUP8 SWAP5 POP DUP7 SWAP4 SWAP1 SWAP3 ADD SWAP2 DUP2 ADD PUSH2 0x23D5 JUMP JUMPDEST CALLVALUE PUSH2 0x22F JUMPI PUSH1 0x0 CALLDATASIZE PUSH1 0x3 NOT ADD SLT PUSH2 0x22F JUMPI PUSH1 0x20 PUSH1 0x15 SLOAD PUSH1 0x40 MLOAD SWAP1 DUP2 MSTORE RETURN JUMPDEST CALLVALUE PUSH2 0x22F JUMPI PUSH1 0x20 CALLDATASIZE PUSH1 0x3 NOT ADD SLT PUSH2 0x22F JUMPI PUSH1 0x4 CALLDATALOAD SWAP1 PUSH4 0xFFFFFFFF PUSH1 0xE0 SHL DUP3 AND DUP1 SWAP3 SUB PUSH2 0x22F JUMPI PUSH1 0x20 SWAP2 PUSH4 0x24832483 PUSH1 0xE1 SHL DUP2 EQ SWAP1 DUP2 ISZERO PUSH2 0x2464 JUMPI JUMPDEST POP ISZERO ISZERO DUP2 MSTORE RETURN JUMPDEST PUSH4 0x80AC58CD PUSH1 0xE0 SHL DUP2 EQ SWAP2 POP DUP2 ISZERO PUSH2 0x2496 JUMPI JUMPDEST DUP2 ISZERO PUSH2 0x2485 JUMPI JUMPDEST POP DUP4 PUSH2 0x245D JUMP JUMPDEST PUSH4 0x1FFC9A7 PUSH1 0xE0 SHL EQ SWAP1 POP DUP4 PUSH2 0x247E JUMP JUMPDEST PUSH4 0x5B5E139F PUSH1 0xE0 SHL DUP2 EQ SWAP2 POP PUSH2 0x2477 JUMP JUMPDEST PUSH1 0x0 JUMPDEST DUP4 DUP2 LT PUSH2 0x24BA JUMPI POP POP PUSH1 0x0 SWAP2 ADD MSTORE JUMP JUMPDEST DUP2 DUP2 ADD MLOAD DUP4 DUP3 ADD MSTORE PUSH1 0x20 ADD PUSH2 0x24AA JUMP JUMPDEST SWAP1 PUSH1 0x20 SWAP2 PUSH2 0x24E3 DUP2 MLOAD DUP1 SWAP3 DUP2 DUP6 MSTORE DUP6 DUP1 DUP7 ADD SWAP2 ADD PUSH2 0x24A7 JUMP JUMPDEST PUSH1 0x1F ADD PUSH1 0x1F NOT AND ADD ADD SWAP1 JUMP JUMPDEST PUSH1 0x4 CALLDATALOAD SWAP1 PUSH1 0x1 PUSH1 0x1 PUSH1 0xA0 SHL SUB DUP3 AND DUP3 SUB PUSH2 0x22F JUMPI JUMP JUMPDEST PUSH1 0x24 CALLDATALOAD SWAP1 PUSH1 0x1 PUSH1 0x1 PUSH1 0xA0 SHL SUB DUP3 AND DUP3 SUB PUSH2 0x22F JUMPI JUMP JUMPDEST PUSH1 0x60 SWAP1 PUSH1 0x3 NOT ADD SLT PUSH2 0x22F JUMPI PUSH1 0x1 PUSH1 0x1 PUSH1 0xA0 SHL SUB SWAP1 PUSH1 0x4 CALLDATALOAD DUP3 DUP2 AND DUP2 SUB PUSH2 0x22F JUMPI SWAP2 PUSH1 0x24 CALLDATALOAD SWAP1 DUP2 AND DUP2 SUB PUSH2 0x22F JUMPI SWAP1 PUSH1 0x44 CALLDATALOAD SWAP1 JUMP JUMPDEST PUSH1 0x20 SWAP1 PUSH1 0x20 PUSH1 0x40 DUP2 DUP4 ADD SWAP3 DUP3 DUP2 MSTORE DUP6 MLOAD DUP1 SWAP5 MSTORE ADD SWAP4 ADD SWAP2 PUSH1 0x0 JUMPDEST DUP3 DUP2 LT PUSH2 0x2578 JUMPI POP POP POP POP SWAP1 JUMP JUMPDEST DUP4 MLOAD DUP6 MSTORE SWAP4 DUP2 ADD SWAP4 SWAP3 DUP2 ADD SWAP3 PUSH1 0x1 ADD PUSH2 0x256A JUMP JUMPDEST SWAP2 DUP2 PUSH1 0x1F DUP5 ADD SLT ISZERO PUSH2 0x22F JUMPI DUP3 CALLDATALOAD SWAP2 PUSH1 0x1 PUSH1 0x1 PUSH1 0x40 SHL SUB DUP4 GT PUSH2 0x22F JUMPI PUSH1 0x20 DUP4 DUP2 DUP7 ADD SWAP6 ADD ADD GT PUSH2 0x22F JUMPI JUMP JUMPDEST DUP1 SLOAD DUP3 LT ISZERO PUSH2 0x25D1 JUMPI PUSH1 0x0 MSTORE PUSH1 0x20 PUSH1 0x0 KECCAK256 ADD SWAP1 PUSH1 0x0 SWAP1 JUMP JUMPDEST PUSH4 0x4E487B71 PUSH1 0xE0 SHL PUSH1 0x0 MSTORE PUSH1 0x32 PUSH1 0x4 MSTORE PUSH1 0x24 PUSH1 0x0 REVERT JUMPDEST PUSH1 0x60 DUP2 ADD SWAP1 DUP2 LT PUSH1 0x1 PUSH1 0x1 PUSH1 0x40 SHL SUB DUP3 GT OR PUSH2 0xF6F JUMPI PUSH1 0x40 MSTORE JUMP JUMPDEST PUSH2 0x140 DUP2 ADD SWAP1 DUP2 LT PUSH1 0x1 PUSH1 0x1 PUSH1 0x40 SHL SUB DUP3 GT OR PUSH2 0xF6F JUMPI PUSH1 0x40 MSTORE JUMP JUMPDEST PUSH1 0x20 DUP2 ADD SWAP1 DUP2 LT PUSH1 0x1 PUSH1 0x1 PUSH1 0x40 SHL SUB DUP3 GT OR PUSH2 0xF6F JUMPI PUSH1 0x40 MSTORE JUMP JUMPDEST SWAP1 PUSH1 0x1F DUP1 NOT SWAP2 ADD AND DUP2 ADD SWAP1 DUP2 LT PUSH1 0x1 PUSH1 0x1 PUSH1 0x40 SHL SUB DUP3 GT OR PUSH2 0xF6F JUMPI PUSH1 0x40 MSTORE JUMP JUMPDEST PUSH1 0x1 PUSH1 0x1 PUSH1 0x40 SHL SUB DUP2 GT PUSH2 0xF6F JUMPI PUSH1 0x1F ADD PUSH1 0x1F NOT AND PUSH1 0x20 ADD SWAP1 JUMP JUMPDEST SWAP3 SWAP2 SWAP3 PUSH2 0x2681 DUP3 PUSH2 0x265A JUMP JUMPDEST SWAP2 PUSH2 0x268F PUSH1 0x40 MLOAD SWAP4 DUP5 PUSH2 0x2639 JUMP JUMPDEST DUP3 SWAP5 DUP2 DUP5 MSTORE DUP2 DUP4 ADD GT PUSH2 0x22F JUMPI DUP3 DUP2 PUSH1 0x20 SWAP4 DUP5 PUSH1 0x0 SWAP7 ADD CALLDATACOPY ADD ADD MSTORE JUMP JUMPDEST SWAP1 PUSH1 0x1 DUP3 DUP2 SHR SWAP3 AND DUP1 ISZERO PUSH2 0x26DC JUMPI JUMPDEST PUSH1 0x20 DUP4 LT EQ PUSH2 0x26C6 JUMPI JUMP JUMPDEST PUSH4 0x4E487B71 PUSH1 0xE0 SHL PUSH1 0x0 MSTORE PUSH1 0x22 PUSH1 0x4 MSTORE PUSH1 0x24 PUSH1 0x0 REVERT JUMPDEST SWAP2 PUSH1 0x7F AND SWAP2 PUSH2 0x26BB JUMP JUMPDEST SWAP1 PUSH1 0x40 MLOAD SWAP2 DUP3 PUSH1 0x0 DUP3 SLOAD PUSH2 0x26F9 DUP2 PUSH2 0x26AC JUMP JUMPDEST SWAP1 DUP2 DUP5 MSTORE PUSH1 0x20 SWAP5 PUSH1 0x1 SWAP2 PUSH1 0x1 DUP2 AND SWAP1 DUP2 PUSH1 0x0 EQ PUSH2 0x2769 JUMPI POP PUSH1 0x1 EQ PUSH2 0x272A JUMPI JUMPDEST POP POP POP PUSH2 0x2728 SWAP3 POP SUB DUP4 PUSH2 0x2639 JUMP JUMPDEST JUMP JUMPDEST PUSH1 0x0 SWAP1 DUP2 MSTORE DUP6 DUP2 KECCAK256 SWAP6 SWAP4 POP SWAP2 SWAP1 JUMPDEST DUP2 DUP4 LT PUSH2 0x2751 JUMPI POP POP PUSH2 0x2728 SWAP4 POP DUP3 ADD ADD CODESIZE DUP1 DUP1 PUSH2 0x2719 JUMP JUMPDEST DUP6 SLOAD DUP9 DUP5 ADD DUP6 ADD MSTORE SWAP5 DUP6 ADD SWAP5 DUP8 SWAP5 POP SWAP2 DUP4 ADD SWAP2 PUSH2 0x2738 JUMP JUMPDEST SWAP3 POP POP POP PUSH2 0x2728 SWAP5 SWAP3 POP PUSH1 0xFF NOT AND DUP3 DUP5 ADD MSTORE ISZERO ISZERO PUSH1 0x5 SHL DUP3 ADD ADD CODESIZE DUP1 DUP1 PUSH2 0x2719 JUMP JUMPDEST ISZERO PUSH2 0x2792 JUMPI JUMP JUMPDEST PUSH1 0x40 MLOAD PUSH3 0x461BCD PUSH1 0xE5 SHL DUP2 MSTORE PUSH1 0x20 PUSH1 0x4 DUP3 ADD MSTORE PUSH1 0x15 PUSH1 0x24 DUP3 ADD MSTORE PUSH21 0x14995D9A595DC8191BD95CC81B9BDD08195E1A5CDD PUSH1 0x5A SHL PUSH1 0x44 DUP3 ADD MSTORE PUSH1 0x64 SWAP1 REVERT JUMPDEST ISZERO PUSH2 0x27D6 JUMPI JUMP JUMPDEST PUSH1 0x40 MLOAD PUSH3 0x461BCD PUSH1 0xE5 SHL DUP2 MSTORE PUSH1 0x20 PUSH1 0x4 DUP3 ADD MSTORE PUSH1 0x14 PUSH1 0x24 DUP3 ADD MSTORE PUSH20 0x526576696577206973206E6F7420616374697665 PUSH1 0x60 SHL PUSH1 0x44 DUP3 ADD MSTORE PUSH1 0x64 SWAP1 REVERT JUMPDEST SWAP2 SWAP1 DUP3 ADD DUP1 SWAP3 GT PUSH2 0x1223 JUMPI JUMP JUMPDEST RETURNDATASIZE ISZERO PUSH2 0x284A JUMPI RETURNDATASIZE SWAP1 PUSH2 0x2830 DUP3 PUSH2 0x265A JUMP JUMPDEST SWAP2 PUSH2 0x283E PUSH1 0x40 MLOAD SWAP4 DUP5 PUSH2 0x2639 JUMP JUMPDEST DUP3 MSTORE RETURNDATASIZE PUSH1 0x0 PUSH1 0x20 DUP5 ADD RETURNDATACOPY JUMP JUMPDEST PUSH1 0x60 SWAP1 JUMP JUMPDEST PUSH1 0x1 PUSH1 0x1 PUSH1 0xA0 SHL SUB SWAP2 DUP3 AND SWAP3 SWAP1 SWAP2 DUP4 ISZERO PUSH2 0x29D5 JUMPI PUSH1 0x0 SWAP3 DUP3 DUP5 MSTORE DUP3 PUSH1 0x20 SWAP6 PUSH1 0x2 DUP8 MSTORE PUSH1 0x40 SWAP7 DUP5 DUP9 DUP9 KECCAK256 SLOAD AND SWAP7 DUP8 SWAP2 CALLER ISZERO ISZERO DUP1 PUSH2 0x293F JUMPI JUMPDEST POP SWAP1 PUSH1 0x2 PUSH32 0xDDF252AD1BE2C89B69C2B068FC378DAA952BA7F163C4A11628F55A4DF523B3EF SWAP3 DUP5 PUSH2 0x290C JUMPI JUMPDEST DUP6 DUP4 MSTORE PUSH1 0x3 DUP2 MSTORE DUP12 DUP4 KECCAK256 DUP1 SLOAD PUSH1 0x1 ADD SWAP1 SSTORE DUP7 DUP4 MSTORE MSTORE DUP10 DUP2 KECCAK256 DUP1 SLOAD PUSH1 0x1 PUSH1 0x1 PUSH1 0xA0 SHL SUB NOT AND DUP6 OR SWAP1 SSTORE DUP1 LOG4 AND SWAP3 DUP4 DUP4 SUB PUSH2 0x28EB JUMPI POP POP POP POP JUMP JUMPDEST PUSH1 0x64 SWAP5 POP MLOAD SWAP3 PUSH4 0x64283D7B PUSH1 0xE0 SHL DUP5 MSTORE PUSH1 0x4 DUP5 ADD MSTORE PUSH1 0x24 DUP4 ADD MSTORE PUSH1 0x44 DUP3 ADD MSTORE REVERT JUMPDEST PUSH1 0x0 DUP8 DUP2 MSTORE PUSH1 0x4 PUSH1 0x20 MSTORE PUSH1 0x40 SWAP1 KECCAK256 DUP1 SLOAD PUSH1 0x1 PUSH1 0x1 PUSH1 0xA0 SHL SUB NOT AND SWAP1 SSTORE DUP5 DUP4 MSTORE PUSH1 0x3 DUP2 MSTORE DUP12 DUP4 KECCAK256 DUP1 SLOAD PUSH1 0x0 NOT ADD SWAP1 SSTORE PUSH2 0x28B2 JUMP JUMPDEST SWAP2 SWAP4 SWAP5 POP SWAP2 POP DUP1 PUSH2 0x2994 JUMPI JUMPDEST ISZERO PUSH2 0x295B JUMPI DUP6 SWAP3 SWAP2 DUP8 SWAP2 CODESIZE PUSH2 0x2886 JUMP JUMPDEST DUP8 DUP7 DUP9 PUSH2 0x2978 JUMPI PUSH1 0x24 SWAP2 MLOAD SWAP1 PUSH4 0x7E273289 PUSH1 0xE0 SHL DUP3 MSTORE PUSH1 0x4 DUP3 ADD MSTORE REVERT JUMPDEST PUSH1 0x44 SWAP2 MLOAD SWAP1 PUSH4 0x177E802F PUSH1 0xE0 SHL DUP3 MSTORE CALLER PUSH1 0x4 DUP4 ADD MSTORE PUSH1 0x24 DUP3 ADD MSTORE REVERT JUMPDEST POP CALLER DUP8 EQ DUP1 ISZERO PUSH2 0x29B9 JUMPI JUMPDEST DUP1 PUSH2 0x294B JUMPI POP DUP6 DUP3 MSTORE PUSH1 0x4 DUP2 MSTORE CALLER DUP6 DUP10 DUP5 KECCAK256 SLOAD AND EQ PUSH2 0x294B JUMP JUMPDEST POP DUP7 DUP3 MSTORE PUSH1 0x5 DUP2 MSTORE DUP8 DUP3 KECCAK256 CALLER DUP4 MSTORE DUP2 MSTORE PUSH1 0xFF DUP9 DUP4 KECCAK256 SLOAD AND PUSH2 0x299F JUMP JUMPDEST PUSH1 0x40 MLOAD PUSH4 0x32505749 PUSH1 0xE1 SHL DUP2 MSTORE PUSH1 0x0 PUSH1 0x4 DUP3 ADD MSTORE PUSH1 0x24 SWAP1 REVERT JUMPDEST PUSH1 0x0 NOT DUP2 EQ PUSH2 0x1223 JUMPI PUSH1 0x1 ADD SWAP1 JUMP JUMPDEST DUP1 SLOAD PUSH9 0x10000000000000000 DUP2 LT ISZERO PUSH2 0xF6F JUMPI PUSH2 0x2A1F SWAP2 PUSH1 0x1 DUP3 ADD DUP2 SSTORE PUSH2 0x25B9 JUMP JUMPDEST DUP2 SWAP3 SWAP2 SLOAD SWAP1 PUSH1 0x3 SHL SWAP2 DUP3 SHL SWAP2 PUSH1 0x0 NOT SWAP1 SHL NOT AND OR SWAP1 SSTORE JUMP JUMPDEST PUSH1 0x0 DUP2 DUP2 MSTORE PUSH1 0x2 PUSH1 0x20 MSTORE PUSH1 0x40 SWAP1 KECCAK256 SLOAD PUSH1 0x1 PUSH1 0x1 PUSH1 0xA0 SHL SUB AND SWAP1 DUP2 ISZERO PUSH2 0x2A5A JUMPI POP SWAP1 JUMP JUMPDEST PUSH1 0x24 SWAP1 PUSH1 0x40 MLOAD SWAP1 PUSH4 0x7E273289 PUSH1 0xE0 SHL DUP3 MSTORE PUSH1 0x4 DUP3 ADD MSTORE REVERT JUMPDEST PUSH1 0x7 SLOAD PUSH1 0x1 PUSH1 0x1 PUSH1 0xA0 SHL SUB AND CALLER SUB PUSH2 0x2A86 JUMPI JUMP JUMPDEST PUSH1 0x40 MLOAD PUSH4 0x118CDAA7 PUSH1 0xE0 SHL DUP2 MSTORE CALLER PUSH1 0x4 DUP3 ADD MSTORE PUSH1 0x24 SWAP1 REVERT JUMPDEST PUSH1 0xFF PUSH1 0x9 SLOAD AND PUSH2 0x2AAA JUMPI JUMP JUMPDEST PUSH1 0x40 MLOAD PUSH4 0xD93C0665 PUSH1 0xE0 SHL DUP2 MSTORE PUSH1 0x4 SWAP1 REVERT JUMPDEST SWAP3 SWAP4 DUP3 EXTCODESIZE PUSH2 0x2ACC JUMPI JUMPDEST POP POP POP POP POP JUMP JUMPDEST PUSH2 0x2B10 SWAP1 PUSH1 0x1 DUP1 PUSH1 0xA0 SHL SUB DUP1 SWAP5 AND SWAP6 PUSH1 0x40 MLOAD SWAP5 DUP6 SWAP5 DUP2 PUSH4 0xA85BD01 PUSH1 0xE1 SHL SWAP9 DUP10 DUP9 MSTORE AND PUSH1 0x4 DUP8 ADD MSTORE AND PUSH1 0x24 DUP6 ADD MSTORE PUSH1 0x44 DUP5 ADD MSTORE PUSH1 0x80 PUSH1 0x64 DUP5 ADD MSTORE PUSH1 0x84 DUP4 ADD SWAP1 PUSH2 0x24CA JUMP JUMPDEST SUB SWAP1 PUSH1 0x20 DUP2 PUSH1 0x0 SWAP4 DUP2 DUP6 DUP9 GAS CALL SWAP1 DUP3 SWAP1 DUP3 PUSH2 0x2B89 JUMPI JUMPDEST POP POP PUSH2 0x2B57 JUMPI DUP3 PUSH2 0x2B35 PUSH2 0x281F JUMP JUMPDEST DUP1 MLOAD SWAP2 SWAP1 DUP3 PUSH2 0x112F JUMPI PUSH1 0x40 MLOAD PUSH4 0x32505749 PUSH1 0xE1 SHL DUP2 MSTORE PUSH1 0x4 DUP2 ADD DUP4 SWAP1 MSTORE PUSH1 0x24 SWAP1 REVERT JUMPDEST PUSH1 0x1 PUSH1 0x1 PUSH1 0xE0 SHL SUB NOT AND SUB PUSH2 0x2B71 JUMPI POP CODESIZE DUP1 DUP1 DUP1 DUP1 PUSH2 0x2AC5 JUMP JUMPDEST PUSH1 0x24 SWAP1 PUSH1 0x40 MLOAD SWAP1 PUSH4 0x32505749 PUSH1 0xE1 SHL DUP3 MSTORE PUSH1 0x4 DUP3 ADD MSTORE REVERT JUMPDEST SWAP1 SWAP2 SWAP3 POP PUSH1 0x20 DUP2 RETURNDATASIZE PUSH1 0x20 GT PUSH2 0x2BD1 JUMPI JUMPDEST DUP2 PUSH2 0x2BA6 PUSH1 0x20 SWAP4 DUP4 PUSH2 0x2639 JUMP JUMPDEST DUP2 ADD SUB SLT PUSH2 0x2BCD JUMPI MLOAD SWAP1 PUSH1 0x1 PUSH1 0x1 PUSH1 0xE0 SHL SUB NOT DUP3 AND DUP3 SUB PUSH2 0x2BCA JUMPI POP SWAP1 CODESIZE DUP1 PUSH2 0x2B26 JUMP JUMPDEST DUP1 REVERT JUMPDEST POP DUP1 REVERT JUMPDEST RETURNDATASIZE SWAP2 POP PUSH2 0x2B99 JUMP JUMPDEST SWAP1 PUSH2 0x2BE3 DUP3 PUSH2 0x265A JUMP JUMPDEST PUSH2 0x2BF0 PUSH1 0x40 MLOAD SWAP2 DUP3 PUSH2 0x2639 JUMP JUMPDEST DUP3 DUP2 MSTORE DUP1 SWAP3 PUSH2 0x2C01 PUSH1 0x1F NOT SWAP2 PUSH2 0x265A JUMP JUMPDEST ADD SWAP1 PUSH1 0x20 CALLDATASIZE SWAP2 ADD CALLDATACOPY JUMP JUMPDEST DUP1 PUSH1 0x0 SWAP2 PUSH27 0x184F03E93FF9F4DAA797ED6E38ED64BF6A1F010000000000000000 DUP1 DUP3 LT ISZERO PUSH2 0x2D41 JUMPI JUMPDEST POP PUSH14 0x4EE2D6D415B85ACEF8100000000 DUP1 DUP4 LT ISZERO PUSH2 0x2D32 JUMPI JUMPDEST POP PUSH7 0x2386F26FC10000 DUP1 DUP4 LT ISZERO PUSH2 0x2D23 JUMPI JUMPDEST POP PUSH4 0x5F5E100 DUP1 DUP4 LT ISZERO PUSH2 0x2D14 JUMPI JUMPDEST POP PUSH2 0x2710 DUP1 DUP4 LT ISZERO PUSH2 0x2D05 JUMPI JUMPDEST POP PUSH1 0x64 DUP3 LT ISZERO PUSH2 0x2CF5 JUMPI JUMPDEST PUSH1 0xA DUP1 SWAP3 LT ISZERO PUSH2 0x2CEB JUMPI JUMPDEST PUSH1 0x1 SWAP1 DUP2 PUSH1 0x21 PUSH2 0x2CA3 PUSH1 0x1 DUP8 ADD PUSH2 0x2BD9 JUMP JUMPDEST SWAP6 DUP7 ADD ADD SWAP1 JUMPDEST PUSH2 0x2CB5 JUMPI JUMPDEST POP POP POP POP SWAP1 JUMP JUMPDEST PUSH1 0x0 NOT ADD SWAP1 DUP4 SWAP1 PUSH16 0x181899199A1A9B1B9C1CB0B131B232B3 PUSH1 0x81 SHL DUP3 DUP3 MOD BYTE DUP4 MSTORE8 DIV SWAP2 DUP3 ISZERO PUSH2 0x2CE6 JUMPI SWAP2 SWAP1 DUP3 PUSH2 0x2CA9 JUMP JUMPDEST PUSH2 0x2CAE JUMP JUMPDEST SWAP2 PUSH1 0x1 ADD SWAP2 PUSH2 0x2C91 JUMP JUMPDEST SWAP2 SWAP1 PUSH1 0x64 PUSH1 0x2 SWAP2 DIV SWAP2 ADD SWAP2 PUSH2 0x2C86 JUMP JUMPDEST PUSH1 0x4 SWAP2 SWAP4 SWAP3 DIV SWAP2 ADD SWAP2 CODESIZE PUSH2 0x2C7B JUMP JUMPDEST PUSH1 0x8 SWAP2 SWAP4 SWAP3 DIV SWAP2 ADD SWAP2 CODESIZE PUSH2 0x2C6E JUMP JUMPDEST PUSH1 0x10 SWAP2 SWAP4 SWAP3 DIV SWAP2 ADD SWAP2 CODESIZE PUSH2 0x2C5F JUMP JUMPDEST PUSH1 0x20 SWAP2 SWAP4 SWAP3 DIV SWAP2 ADD SWAP2 CODESIZE PUSH2 0x2C4D JUMP JUMPDEST PUSH1 0x40 SWAP4 POP DUP2 DIV SWAP2 POP CODESIZE PUSH2 0x2C34 JUMP JUMPDEST SWAP2 SWAP1 SWAP2 DUP1 MLOAD ISZERO PUSH2 0x2E3C JUMPI DUP1 MLOAD SWAP3 PUSH1 0x2 SWAP2 PUSH1 0x2 DUP6 ADD DUP1 SWAP6 GT PUSH2 0x1223 JUMPI PUSH1 0x3 SWAP5 DUP6 SWAP1 DIV PUSH1 0x1 PUSH1 0x1 PUSH1 0xFE SHL SUB DUP2 AND DUP2 SUB PUSH2 0x1223 JUMPI PUSH2 0x2D8F SWAP1 PUSH1 0x2 SWAP7 SWAP5 SWAP7 SHL PUSH2 0x2BD9 JUMP JUMPDEST SWAP3 PUSH1 0x20 DUP5 ADD SWAP3 DUP3 SWAP2 DUP4 MLOAD DUP5 ADD SWAP8 PUSH1 0x20 DUP10 ADD SWAP3 DUP4 MLOAD SWAP5 PUSH1 0x0 DUP6 MSTORE JUMPDEST DUP11 DUP2 LT PUSH2 0x2DEF JUMPI POP POP POP POP PUSH1 0x3 SWAP4 SWAP5 SWAP6 SWAP7 POP MSTORE MLOAD MOD DUP1 PUSH1 0x1 EQ PUSH2 0x2DDC JUMPI PUSH1 0x2 EQ PUSH2 0x2DD1 JUMPI POP SWAP1 JUMP JUMPDEST PUSH1 0x3D SWAP1 PUSH1 0x0 NOT ADD MSTORE8 SWAP1 JUMP JUMPDEST POP PUSH1 0x3D SWAP1 DUP2 PUSH1 0x0 NOT DUP3 ADD MSTORE8 PUSH1 0x1 NOT ADD MSTORE8 SWAP1 JUMP JUMPDEST DUP4 PUSH1 0x4 SWAP2 SWAP12 SWAP9 SWAP12 ADD SWAP11 DUP12 MLOAD PUSH1 0x1 SWAP1 PUSH1 0x3F SWAP1 DUP3 DUP3 DUP3 PUSH1 0x12 SHR AND DUP8 ADD ADD MLOAD DUP5 MSTORE8 DUP3 DUP3 DUP3 PUSH1 0xC SHR AND DUP8 ADD ADD MLOAD DUP4 DUP6 ADD MSTORE8 DUP3 DUP3 DUP3 PUSH1 0x6 SHR AND DUP8 ADD ADD MLOAD DUP8 DUP6 ADD MSTORE8 AND DUP5 ADD ADD MLOAD DUP6 DUP3 ADD MSTORE8 ADD SWAP7 SWAP10 PUSH2 0x2DA9 JUMP JUMPDEST POP SWAP1 POP PUSH1 0x40 MLOAD PUSH2 0x2E4B DUP2 PUSH2 0x261E JUMP JUMPDEST PUSH1 0x0 DUP2 MSTORE SWAP1 JUMP INVALID LOG2 PUSH5 0x6970667358 0x22 SLT KECCAK256 0xA8 REVERT DUP2 0xD0 0xE8 MSTORE8 MLOAD 0x23 PUSH26 0x71442006330108DA41DEA47558A20BE177B15E623C918764736F PUSH13 0x63430008180033000000000000 "},"methodIdentifiers":{"approve(address,uint256)":"095ea7b3","balanceOf(address)":"70a08231","billIdUsed(uint256)":"36967ebc","createReview(address,address,uint256,uint8,string,string)":"c1b2ecac","deactivateReview(uint256)":"2fd8030b","getApproved(uint256)":"081812fc","getContractStats()":"dfe6b5d6","getRestaurantStats(address)":"436efd5c","getReview(uint256)":"990581b6","getReviewsByRestaurant(address)":"2c89494a","getReviewsByReviewer(address)":"2a7bd279","isApprovedForAll(address,address)":"e985e9c5","maximumRating()":"038642ba","minimumRating()":"baff8bf1","name()":"06fdde03","owner()":"8da5cb5b","ownerOf(uint256)":"6352211e","pause()":"8456cb59","paused()":"5c975abb","paymentProcessor()":"f1c6bdf8","renounceOwnership()":"715018a6","reportReview(uint256,string)":"a3c40f9c","restaurantReviews(address,uint256)":"b69ae9f8","restaurantStats(address)":"682738c4","reviewTips(uint256,address)":"09d1dbf4","reviewerTokens(address,uint256)":"f7621815","reviews(uint256)":"e83ddcea","safeTransferFrom(address,address,uint256)":"42842e0e","safeTransferFrom(address,address,uint256,bytes)":"b88d4fde","setApprovalForAll(address,bool)":"a22cb465","setBaseImageURI(string)":"8647ca76","setPaymentProcessor(address)":"088b0d75","supportsInterface(bytes4)":"01ffc9a7","symbol()":"95d89b41","tipReview(uint256)":"22f1f94b","tokenURI(uint256)":"c87b56dd","totalReviews()":"e2367890","transferFrom(address,address,uint256)":"23b872dd","transferOwnership(address)":"f2fde38b","unpause()":"3f4ba83a"}}}}}