{"contracts/test/MockPaymentProcessor.sol":{"MockPaymentProcessor":{"abi":[{"inputs":[{"internalType":"address","name":"_reviewNFT","type":"address"},{"internalType":"address","name":"_reviewer","type":"address"},{"internalType":"address","name":"_restaurant","type":"address"},{"internalType":"uint256","name":"_billId","type":"uint256"},{"internalType":"uint8","name":"_rating","type":"uint8"},{"internalType":"string","name":"_reviewText","type":"string"},{"internalType":"string","name":"_restaurantName","type":"string"}],"name":"createReview","outputs":[{"internalType":"uint256","name":"","type":"uint256"}],"stateMutability":"nonpayable","type":"function"}],"evm":{"bytecode":{"linkReferences":{},"object":"608080604052346100165761023b908161001c8239f35b600080fdfe60808060405260048036101561001457600080fd5b600091823560e01c637823c94e1461002b57600080fd5b3461019d576003199160e0368401126101ad576001600160a01b038135818116908190036101a957602435908282168092036101a5576044359283168093036101a5576084359560ff87168097036101a1578760a4359767ffffffffffffffff9889811161019d576100a090369089016101b1565b91909360c435968b881161019957896101008c99978a989661010f9660209d6100cd8c9a369088016101b1565b97909663306cbb2b60e21b8c528b015260248a015260643560448a0152606489015260c0608489015260c48801916101e4565b928584030160a48601526101e4565b03925af192831561018e57849361012c575b602084604051908152f35b909192506020913d602011610186575b601f8301601f1916840191821184831017610173575060209183916040528101031261016f576020915051388080610121565b5080fd5b634e487b7160e01b855260419052602484fd5b3d925061013c565b6040513d86823e3d90fd5b8480fd5b8280fd5b8780fd5b8680fd5b8580fd5b8380fd5b9181601f840112156101df5782359167ffffffffffffffff83116101df57602083818601950101116101df57565b600080fd5b908060209392818452848401376000828201840152601f01601f191601019056fea26469706673582212203dfcea063573853b9db3d1a4417609d4e5d5e454e552f8eb148d090c1f92029764736f6c63430008180033","opcodes":"PUSH1 0x80 DUP1 PUSH1 0x40 MSTORE CALLVALUE PUSH2 0x16 JUMPI PUSH2 0x23B SWAP1 DUP2 PUSH2 0x1C DUP3 CODECOPY RETURN JUMPDEST PUSH1 0x0 DUP1 REVERT INVALID PUSH1 0x80 DUP1 PUSH1 0x40 MSTORE PUSH1 0x4 DUP1 CALLDATASIZE LT ISZERO PUSH2 0x14 JUMPI PUSH1 0x0 DUP1 REVERT JUMPDEST PUSH1 0x0 SWAP2 DUP3 CALLDATALOAD PUSH1 0xE0 SHR PUSH4 0x7823C94E EQ PUSH2 0x2B JUMPI PUSH1 0x0 DUP1 REVERT JUMPDEST CALLVALUE PUSH2 0x19D JUMPI PUSH1 0x3 NOT SWAP2 PUSH1 0xE0 CALLDATASIZE DUP5 ADD SLT PUSH2 0x1AD JUMPI PUSH1 0x1 PUSH1 0x1 PUSH1 0xA0 SHL SUB DUP2 CALLDATALOAD DUP2 DUP2 AND SWAP1 DUP2 SWAP1 SUB PUSH2 0x1A9 JUMPI PUSH1 0x24 CALLDATALOAD SWAP1 DUP3 DUP3 AND DUP1 SWAP3 SUB PUSH2 0x1A5 JUMPI PUSH1 0x44 CALLDATALOAD SWAP3 DUP4 AND DUP1 SWAP4 SUB PUSH2 0x1A5 JUMPI PUSH1 0x84 CALLDATALOAD SWAP6 PUSH1 0xFF DUP8 AND DUP1 SWAP8 SUB PUSH2 0x1A1 JUMPI DUP8 PUSH1 0xA4 CALLDATALOAD SWAP8 PUSH8 0xFFFFFFFFFFFFFFFF SWAP9 DUP10 DUP2 GT PUSH2 0x19D JUMPI PUSH2 0xA0 SWAP1 CALLDATASIZE SWAP1 DUP10 ADD PUSH2 0x1B1 JUMP JUMPDEST SWAP2 SWAP1 SWAP4 PUSH1 0xC4 CALLDATALOAD SWAP7 DUP12 DUP9 GT PUSH2 0x199 JUMPI DUP10 PUSH2 0x100 DUP13 SWAP10 SWAP8 DUP11 SWAP9 SWAP7 PUSH2 0x10F SWAP7 PUSH1 0x20 SWAP14 PUSH2 0xCD DUP13 SWAP11 CALLDATASIZE SWAP1 DUP9 ADD PUSH2 0x1B1 JUMP JUMPDEST SWAP8 SWAP1 SWAP7 PUSH4 0x306CBB2B PUSH1 0xE2 SHL DUP13 MSTORE DUP12 ADD MSTORE PUSH1 0x24 DUP11 ADD MSTORE PUSH1 0x64 CALLDATALOAD PUSH1 0x44 DUP11 ADD MSTORE PUSH1 0x64 DUP10 ADD MSTORE PUSH1 0xC0 PUSH1 0x84 DUP10 ADD MSTORE PUSH1 0xC4 DUP9 ADD SWAP2 PUSH2 0x1E4 JUMP JUMPDEST SWAP3 DUP6 DUP5 SUB ADD PUSH1 0xA4 DUP7 ADD MSTORE PUSH2 0x1E4 JUMP JUMPDEST SUB SWAP3 GAS CALL SWAP3 DUP4 ISZERO PUSH2 0x18E JUMPI DUP5 SWAP4 PUSH2 0x12C JUMPI JUMPDEST PUSH1 0x20 DUP5 PUSH1 0x40 MLOAD SWAP1 DUP2 MSTORE RETURN JUMPDEST SWAP1 SWAP2 SWAP3 POP PUSH1 0x20 SWAP2 RETURNDATASIZE PUSH1 0x20 GT PUSH2 0x186 JUMPI JUMPDEST PUSH1 0x1F DUP4 ADD PUSH1 0x1F NOT AND DUP5 ADD SWAP2 DUP3 GT DUP5 DUP4 LT OR PUSH2 0x173 JUMPI POP PUSH1 0x20 SWAP2 DUP4 SWAP2 PUSH1 0x40 MSTORE DUP2 ADD SUB SLT PUSH2 0x16F JUMPI PUSH1 0x20 SWAP2 POP MLOAD CODESIZE DUP1 DUP1 PUSH2 0x121 JUMP JUMPDEST POP DUP1 REVERT JUMPDEST PUSH4 0x4E487B71 PUSH1 0xE0 SHL DUP6 MSTORE PUSH1 0x41 SWAP1 MSTORE PUSH1 0x24 DUP5 REVERT JUMPDEST RETURNDATASIZE SWAP3 POP PUSH2 0x13C JUMP JUMPDEST PUSH1 0x40 MLOAD RETURNDATASIZE DUP7 DUP3 RETURNDATACOPY RETURNDATASIZE SWAP1 REVERT JUMPDEST DUP5 DUP1 REVERT JUMPDEST DUP3 DUP1 REVERT JUMPDEST DUP8 DUP1 REVERT JUMPDEST DUP7 DUP1 REVERT JUMPDEST DUP6 DUP1 REVERT JUMPDEST DUP4 DUP1 REVERT JUMPDEST SWAP2 DUP2 PUSH1 0x1F DUP5 ADD SLT ISZERO PUSH2 0x1DF JUMPI DUP3 CALLDATALOAD SWAP2 PUSH8 0xFFFFFFFFFFFFFFFF DUP4 GT PUSH2 0x1DF JUMPI PUSH1 0x20 DUP4 DUP2 DUP7 ADD SWAP6 ADD ADD GT PUSH2 0x1DF JUMPI JUMP JUMPDEST PUSH1 0x0 DUP1 REVERT JUMPDEST SWAP1 DUP1 PUSH1 0x20 SWAP4 SWAP3 DUP2 DUP5 MSTORE DUP5 DUP5 ADD CALLDATACOPY PUSH1 0x0 DUP3 DUP3 ADD DUP5 ADD MSTORE PUSH1 0x1F ADD PUSH1 0x1F NOT AND ADD ADD SWAP1 JUMP INVALID LOG2 PUSH5 0x6970667358 0x22 SLT KECCAK256 RETURNDATASIZE 0xFC 0xEA MOD CALLDATALOAD PUSH20 0x853B9DB3D1A4417609D4E5D5E454E552F8EB148D MULMOD 0xC 0x1F SWAP3 MUL SWAP8 PUSH5 0x736F6C6343 STOP ADDMOD XOR STOP CALLER "},"methodIdentifiers":{"createReview(address,address,address,uint256,uint8,string,string)":"7823c94e"}}}}}