{"contracts/PaymentProcessor.sol":{"PaymentProcessor":{"abi":[{"inputs":[{"internalType":"address","name":"_pyusdToken","type":"address"},{"internalType":"address","name":"_feeRecipient","type":"address"}],"stateMutability":"nonpayable","type":"constructor"},{"inputs":[],"name":"EnforcedPause","type":"error"},{"inputs":[],"name":"ExpectedPause","type":"error"},{"inputs":[{"internalType":"address","name":"owner","type":"address"}],"name":"OwnableInvalidOwner","type":"error"},{"inputs":[{"internalType":"address","name":"account","type":"address"}],"name":"OwnableUnauthorizedAccount","type":"error"},{"inputs":[],"name":"ReentrancyGuardReentrantCall","type":"error"},{"anonymous":false,"inputs":[{"indexed":true,"internalType":"address","name":"restaurant","type":"address"},{"indexed":false,"internalType":"uint256","name":"amount","type":"uint256"},{"indexed":false,"internalType":"uint256","name":"timestamp","type":"uint256"}],"name":"FundsWithdrawn","type":"event"},{"anonymous":false,"inputs":[{"indexed":true,"internalType":"address","name":"previousOwner","type":"address"},{"indexed":true,"internalType":"address","name":"newOwner","type":"address"}],"name":"OwnershipTransferred","type":"event"},{"anonymous":false,"inputs":[{"indexed":false,"internalType":"address","name":"account","type":"address"}],"name":"Paused","type":"event"},{"anonymous":false,"inputs":[{"indexed":true,"internalType":"address","name":"customer","type":"address"},{"indexed":true,"internalType":"address","name":"restaurant","type":"address"},{"indexed":true,"internalType":"uint256","name":"billId","type":"uint256"},{"indexed":false,"internalType":"uint256","name":"amount","type":"uint256"},{"indexed":false,"internalType":"uint256","name":"timestamp","type":"uint256"}],"name":"PaymentProcessed","type":"event"},{"anonymous":false,"inputs":[{"indexed":true,"internalType":"address","name":"restaurant","type":"address"},{"indexed":false,"internalType":"string","name":"name","type":"string"},{"indexed":false,"internalType":"uint256","name":"timestamp","type":"uint256"}],"name":"RestaurantRegistered","type":"event"},{"anonymous":false,"inputs":[{"indexed":false,"internalType":"address","name":"account","type":"address"}],"name":"Unpaused","type":"event"},{"inputs":[],"name":"MAX_PLATFORM_FEE","outputs":[{"internalType":"uint256","name":"","type":"uint256"}],"stateMutability":"view","type":"function"},{"inputs":[{"internalType":"address","name":"","type":"address"},{"internalType":"uint256","name":"","type":"uint256"}],"name":"customerPayments","outputs":[{"internalType":"uint256","name":"","type":"uint256"}],"stateMutability":"view","type":"function"},{"inputs":[{"internalType":"address","name":"_restaurant","type":"address"}],"name":"deactivateRestaurant","outputs":[],"stateMutability":"nonpayable","type":"function"},{"inputs":[{"internalType":"address","name":"_token","type":"address"},{"internalType":"uint256","name":"_amount","type":"uint256"}],"name":"emergencyWithdraw","outputs":[],"stateMutability":"nonpayable","type":"function"},{"inputs":[],"name":"feeRecipient","outputs":[{"internalType":"address","name":"","type":"address"}],"stateMutability":"view","type":"function"},{"inputs":[{"internalType":"address","name":"_customer","type":"address"}],"name":"getCustomerPayments","outputs":[{"internalType":"uint256[]","name":"","type":"uint256[]"}],"stateMutability":"view","type":"function"},{"inputs":[{"internalType":"uint256","name":"_billId","type":"uint256"}],"name":"getPayment","outputs":[{"components":[{"internalType":"address","name":"customer","type":"address"},{"internalType":"address","name":"restaurant","type":"address"},{"internalType":"uint256","name":"amount","type":"uint256"},{"internalType":"uint256","name":"timestamp","type":"uint256"},{"internalType":"string","name":"billDetails","type":"string"}],"internalType":"struct PaymentProcessor.Payment","name":"","type":"tuple"}],"stateMutability":"view","type":"function"},{"inputs":[{"internalType":"address","name":"_restaurant","type":"address"}],"name":"getRestaurant","outputs":[{"components":[{"internalType":"string","name":"name","type":"string"},{"internalType":"address","name":"walletAddress","type":"address"},{"internalType":"bool","name":"isActive","type":"bool"},{"internalType":"uint256","name":"totalReceived","type":"uint256"},{"internalType":"uint256","name":"registeredAt","type":"uint256"}],"internalType":"struct PaymentProcessor.Restaurant","name":"","type":"tuple"}],"stateMutability":"view","type":"function"},{"inputs":[{"internalType":"address","name":"_restaurant","type":"address"}],"name":"getRestaurantPayments","outputs":[{"internalType":"uint256[]","name":"","type":"uint256[]"}],"stateMutability":"view","type":"function"},{"inputs":[],"name":"getStats","outputs":[{"internalType":"uint256","name":"totalPayments","type":"uint256"},{"internalType":"uint256","name":"totalVolume","type":"uint256"},{"internalType":"uint256","name":"currentFee","type":"uint256"},{"internalType":"address","name":"feeRecipientAddress","type":"address"}],"stateMutability":"view","type":"function"},{"inputs":[],"name":"nextBillId","outputs":[{"internalType":"uint256","name":"","type":"uint256"}],"stateMutability":"view","type":"function"},{"inputs":[],"name":"owner","outputs":[{"internalType":"address","name":"","type":"address"}],"stateMutability":"view","type":"function"},{"inputs":[],"name":"pause","outputs":[],"stateMutability":"nonpayable","type":"function"},{"inputs":[],"name":"paused","outputs":[{"internalType":"bool","name":"","type":"bool"}],"stateMutability":"view","type":"function"},{"inputs":[{"internalType":"uint256","name":"","type":"uint256"}],"name":"payments","outputs":[{"internalType":"address","name":"customer","type":"address"},{"internalType":"address","name":"restaurant","type":"address"},{"internalType":"uint256","name":"amount","type":"uint256"},{"internalType":"uint256","name":"timestamp","type":"uint256"},{"internalType":"string","name":"billDetails","type":"string"}],"stateMutability":"view","type":"function"},{"inputs":[],"name":"platformFee","outputs":[{"internalType":"uint256","name":"","type":"uint256"}],"stateMutability":"view","type":"function"},{"inputs":[{"internalType":"address","name":"_restaurant","type":"address"},{"internalType":"uint256","name":"_amount","type":"uint256"},{"internalType":"string","name":"_billDetails","type":"string"}],"name":"processPayment","outputs":[],"stateMutability":"nonpayable","type":"function"},{"inputs":[],"name":"pyusdToken","outputs":[{"internalType":"contract IERC20","name":"","type":"address"}],"stateMutability":"view","type":"function"},{"inputs":[{"internalType":"address","name":"_restaurant","type":"address"},{"internalType":"string","name":"_name","type":"string"}],"name":"registerRestaurant","outputs":[],"stateMutability":"nonpayable","type":"function"},{"inputs":[],"name":"renounceOwnership","outputs":[],"stateMutability":"nonpayable","type":"function"},{"inputs":[{"internalType":"address","name":"","type":"address"},{"internalType":"uint256","name":"","type":"uint256"}],"name":"restaurantPayments","outputs":[{"internalType":"uint256","name":"","type":"uint256"}],"stateMutability":"view","type":"function"},{"inputs":[{"internalType":"address","name":"","type":"address"}],"name":"restaurants","outputs":[{"internalType":"string","name":"name","type":"string"},{"internalType":"address","name":"walletAddress","type":"address"},{"internalType":"bool","name":"isActive","type":"bool"},{"internalType":"uint256","name":"totalReceived","type":"uint256"},{"internalType":"uint256","name":"registeredAt","type":"uint256"}],"stateMutability":"view","type":"function"},{"inputs":[{"internalType":"address","name":"_newRecipient","type":"address"}],"name":"setFeeRecipient","outputs":[],"stateMutability":"nonpayable","type":"function"},{"inputs":[{"internalType":"uint256","name":"_newFee","type":"uint256"}],"name":"setPlatformFee","outputs":[],"stateMutability":"nonpayable","type":"function"},{"inputs":[],"name":"totalPaymentsProcessed","outputs":[{"internalType":"uint256","name":"","type":"uint256"}],"stateMutability":"view","type":"function"},{"inputs":[],"name":"totalVolumeProcessed","outputs":[{"internalType":"uint256","name":"","type":"uint256"}],"stateMutability":"view","type":"function"},{"inputs":[{"internalType":"address","name":"newOwner","type":"address"}],"name":"transferOwnership","outputs":[],"stateMutability":"nonpayable","type":"function"},{"inputs":[],"name":"unpause","outputs":[],"stateMutability":"nonpayable","type":"function"}],"evm":{"bytecode":{"linkReferences":{},"object":"60a034620001a557620019f090601f38839003908101601f19168201906001600160401b03821183831017620001aa5780839160409586948552833981010312620001a5576200005d60206200005583620001c0565b9201620001c0565b9033156200018d576000549160018060a01b03908160018060a01b0319933385871617600055865195823391167f8be0079c531659141344cd1fd0a4f28419497f9722a3daafe3b4186f6b6457e0600080a360018055600160075560fa600a55169384156200014b5750169182156200010757608052600b541617600b555161181a9081620001d682396080518181816108f801528181610e3901528181610eb301526111c00152f35b835162461bcd60e51b815260206004820152601560248201527f496e76616c69642066656520726563697069656e7400000000000000000000006044820152606490fd5b62461bcd60e51b815260206004820152601560248201527f496e76616c6964205059555344206164647265737300000000000000000000006044820152606490fd5b8251631e4fbdf760e01b815260006004820152602490fd5b600080fd5b634e487b7160e01b600052604160045260246000fd5b51906001600160a01b0382168203620001a55756fe6080604052600436101561001257600080fd5b60003560e01c806312e8e2c31461147c578063236cd7dc146113f6578063250cbca314610d6157806326232a2e14610d435780632718c14f14610d255780633280a83614610c4e57806337e32d1d14610c305780633998a68114610c135780633f4ba83a14610ba95780634690484014610b8057806351f5005e14610b055780635c975abb14610ae25780635fcf6e1914610ac4578063715018a614610a6b5780638456cb5914610a1157806385099491146109c757806387d81789146109505780638da5cb5b1461092757806391763009146108e257806395ccea6714610847578063ac9f56eb146107ff578063ade49fcb14610461578063c491b7b6146103d6578063c59d484714610397578063d2fe09161461033f578063dff4a5e81461025d578063e74b981b146101de5763f2fde38b1461015057600080fd5b346101d95760203660031901126101d9576101696114da565b61017161179a565b6001600160a01b039081169081156101c057600054826001600160601b0360a01b821617600055167f8be0079c531659141344cd1fd0a4f28419497f9722a3daafe3b4186f6b6457e0600080a3005b604051631e4fbdf760e01b815260006004820152602490fd5b600080fd5b346101d95760203660031901126101d9576101f76114da565b6101ff61179a565b6001600160a01b03168015610226576001600160601b0360a01b600b541617600b55600080f35b60405162461bcd60e51b815260206004820152600f60248201526e496e76616c6964206164647265737360881b6044820152606490fd5b346101d9576020806003193601126101d95760a09061027a6114da565b6000608060405161028a8161152a565b6060815282858201528260408201528260608201520152600180841b0380911660005260038252604060002091604051926102c48461152a565b6102cd81611568565b8452600181015482850193808216855260ff6040870192881c161515825261031f60036002850154946060890195865201549460808801958652604051988998828a52519189015260c088019061160d565b945116604086015251151560608501525160808401525160a08301520390f35b346101d95760403660031901126101d9576103586114da565b6001600160a01b03166000908152600560205260409020805460243591908210156101d957602091610389916116b7565b90546040519160031b1c8152f35b346101d95760003660031901126101d9576080600854600954600a5460018060a01b03600b541691604051938452602084015260408301526060820152f35b346101d9576020806003193601126101d9576001600160a01b036103f86114da565b1660005260056020526040600020906040519081602084549182815201936000526020600020916000905b82821061044a576104468561043a81890382611546565b6040519182918261167b565b0390f35b835486529485019460019384019390910190610423565b346101d95760403660031901126101d95761047a6114da565b67ffffffffffffffff906024358281116101d95761049c90369060040161164d565b916104a561179a565b6001600160a01b038116156107ba578215610775576001600160a01b03811660009081526003602052604090206001015460a01c60ff16610730576040516104ec8161152a565b6104f736858561170c565b815260018060a01b0382166020820152600160408201526000606082015242608082015260018060a01b0382166000526003602052604060002090805195865190811161071a5761054883546114f0565b96601f88116106d6575b869750600096959650602090601f83116001146106415760609593837fd827e82622fad9ae79927940eb29606c4695f01f399c10109a88e3e0d45808b7999694600394608094600092610636575b50508160011b9160001990861b1c19161784555b6001840160018060a01b0360208301511681549060ff60a01b6040850151151560a01b16916affffffffffffffffffffff60a81b16171790558681015160028501550151910155604051938492604084528160408501528484013760008287018401524260208301526001600160a01b031694601f01601f19168101030190a2005b015190508c806105a0565b90601f198316918560005260206000209260005b8181106106bb57508460039460809460609a98947fd827e82622fad9ae79927940eb29606c4695f01f399c10109a88e3e0d45808b79d9a98600195106106a3575b505050811b0184556105b4565b015160001983881b60f8161c191690558c8080610696565b8284015185558b995060019094019360209384019301610655565b836000526020600020601f830160051c810160208410610713575b601f8a0160051c82018110610707575050610552565b600081556001016106f1565b50806106f1565b634e487b7160e01b600052604160045260246000fd5b60405162461bcd60e51b815260206004820152601d60248201527f52657374617572616e7420616c726561647920726567697374657265640000006044820152606490fd5b60405162461bcd60e51b815260206004820152601860248201527f52657374617572616e74206e616d6520726571756972656400000000000000006044820152606490fd5b60405162461bcd60e51b815260206004820152601a60248201527f496e76616c69642072657374617572616e7420616464726573730000000000006044820152606490fd5b346101d95760203660031901126101d9576108186114da565b61082061179a565b6001600160a01b03166000908152600360205260409020600101805460ff60a01b19169055005b346101d95760403660031901126101d9576108606114da565b61086861179a565b6000805460405163a9059cbb60e01b81526001600160a01b0391821660048201526024803590820152926020928492604492849291165af180156108d6576108ac57005b6108cd9060203d6020116108cf575b6108c58183611546565b8101906116e5565b005b503d6108bb565b6040513d6000823e3d90fd5b346101d95760003660031901126101d9576040517f00000000000000000000000000000000000000000000000000000000000000006001600160a01b03168152602090f35b346101d95760003660031901126101d9576000546040516001600160a01b039091168152602090f35b346101d95760203660031901126101d9576004356000526004602052604060002060018060a01b0361044681835416916001840154169260028101549061099e600460038301549201611568565b91604051958695865260208601526040850152606084015260a0608084015260a083019061160d565b346101d95760403660031901126101d9576109e06114da565b6001600160a01b03166000908152600660205260409020805460243591908210156101d957602091610389916116b7565b346101d95760003660031901126101d957610a2a61179a565b610a326117c6565b600160ff1960025416176002557f62e78cea01bee320cd4e420270b5ea74000d11b0c9f74754ebdbfc544b05a2586020604051338152a1005b346101d95760003660031901126101d957610a8461179a565b600080546001600160a01b0319811682556001600160a01b03167f8be0079c531659141344cd1fd0a4f28419497f9722a3daafe3b4186f6b6457e08280a3005b346101d95760003660031901126101d9576020600754604051908152f35b346101d95760003660031901126101d957602060ff600254166040519015158152f35b346101d9576020806003193601126101d9576001600160a01b03610b276114da565b1660005260066020526040600020906040519081602084549182815201936000526020600020916000905b828210610b69576104468561043a81890382611546565b835486529485019460019384019390910190610b52565b346101d95760003660031901126101d957600b546040516001600160a01b039091168152602090f35b346101d95760003660031901126101d957610bc261179a565b60025460ff811615610c015760ff19166002557f5db9ee0a495bf2e6ff9c91a7834c1ba4fdd244a5e8aa4e537bd38aeae4b073aa6020604051338152a1005b604051638dfc202b60e01b8152600490fd5b346101d95760003660031901126101d95760206040516103e88152f35b346101d95760003660031901126101d9576020600854604051908152f35b346101d9576020806003193601126101d95760606080604051610c708161152a565b600081526000848201526000604082015260008382015201526004356000526004815260406000209061044660405191610ca98361152a565b60018060a01b0393848154168452846001820154168285019081528560028301549160408701928352610cea600460038601549560608a0196875201611568565b9460808801958652604051988998828a52511690880152511660408601525160608501525160808401525160a08084015260c083019061160d565b346101d95760003660031901126101d9576020600954604051908152f35b346101d95760003660031901126101d9576020600a54604051908152f35b346101d95760603660031901126101d957610d7a6114da565b60443567ffffffffffffffff81116101d957610d9a90369060040161164d565b6002600193929354146113e4576002600155610db46117c6565b6001600160a01b03821660009081526003602052604090206001015460a01c60ff16156113aa576024351561136557801561132857600a5490816024350291602435830403611312576024356127108304810311611312576040516323b872dd60e01b81523360048201523060248083019190915235604482015260208160648160007f00000000000000000000000000000000000000000000000000000000000000006001600160a01b03165af19081156108d6576000916112f3575b50156112bc5760405163a9059cbb60e01b81526001600160a01b038416600482015261271083046024803591909103908201526020818060448101038160007f00000000000000000000000000000000000000000000000000000000000000006001600160a01b03165af19081156108d65760009161129d575b5015611258576127108204611188575b610f4360075494610f0c866116fd565b60075560405192610f1c8461152a565b3384526001600160a01b03861660208501526024356040850152426060850152369161170c565b608082015283600052600460205260806004604060002060018060a01b038451166001600160601b0360a01b9081835416178255600182019060018060a01b036020870151169082541617905560408401516002820155606084015160038201550191015180519067ffffffffffffffff821161071a578190610fc684546114f0565b601f8111611135575b50602090601f83116001146110cf576000926110c4575b50508160011b916000199060031b1c19161790555b336000526005602052611012836040600020611753565b60018060a01b0382166000526006602052611031836040600020611753565b60018060a01b038216600052600360205261105d6127106002604060002001920460243503825461178d565b905561106a6008546116fd565b60085561107b60243560095461178d565b6009556040805160243581524260208201526001600160a01b039092169133917f72dd19d9bd6e3cdbe36ecaefc0cdd05baf431df4fbb3957e3781184ce70e394b91a460018055005b015190508680610fe6565b6000858152602081209350601f198516905b81811061111d5750908460019594939210611104575b505050811b019055610ffb565b015160001960f88460031b161c191690558680806110f7565b929360206001819287860151815501950193016110e1565b909150836000526020600020601f840160051c8101916020851061117e575b90601f859493920160051c01905b81811061116f5750610fcf565b60008155849350600101611162565b9091508190611154565b600b5460405163a9059cbb60e01b81526001600160a01b039091166004820152612710830460248201526020818060448101038160007f00000000000000000000000000000000000000000000000000000000000000006001600160a01b03165af19081156108d657600091611239575b50610efc5760405162461bcd60e51b8152602060048201526013602482015272119959481d1c985b9cd9995c8819985a5b1959606a1b6044820152606490fd5b611252915060203d6020116108cf576108c58183611546565b856111f9565b60405162461bcd60e51b815260206004820152601a60248201527f52657374617572616e74207472616e73666572206661696c65640000000000006044820152606490fd5b6112b6915060203d6020116108cf576108c58183611546565b85610eec565b60405162461bcd60e51b815260206004820152600f60248201526e151c985b9cd9995c8819985a5b1959608a1b6044820152606490fd5b61130c915060203d6020116108cf576108c58183611546565b85610e72565b634e487b7160e01b600052601160045260246000fd5b60405162461bcd60e51b8152602060048201526015602482015274109a5b1b0819195d185a5b1cc81c995c5d5a5c9959605a1b6044820152606490fd5b60405162461bcd60e51b815260206004820152601d60248201527f416d6f756e74206d7573742062652067726561746572207468616e20300000006044820152606490fd5b60405162461bcd60e51b8152602060048201526012602482015271125b9d985b1a59081c995cdd185d5c985b9d60721b6044820152606490fd5b604051633ee5aeb560e01b8152600490fd5b346101d95760203660031901126101d95761145b6001600160a01b038061141b6114da565b16600052600360205260406000209061143382611568565b9160018101549060ff600360028301549201549260405196879660a0885260a088019061160d565b948116602087015260a01c1615156040850152606084015260808301520390f35b346101d95760203660031901126101d95760043561149861179a565b6103e881116114a657600a55005b60405162461bcd60e51b815260206004820152600c60248201526b08ccaca40e8dede40d0d2ced60a31b6044820152606490fd5b600435906001600160a01b03821682036101d957565b90600182811c92168015611520575b602083101461150a57565b634e487b7160e01b600052602260045260246000fd5b91607f16916114ff565b60a0810190811067ffffffffffffffff82111761071a57604052565b90601f8019910116810190811067ffffffffffffffff82111761071a57604052565b9060405191826000825461157b816114f0565b908184526020946001916001811690816000146115eb57506001146115ac575b5050506115aa92500383611546565b565b600090815285812095935091905b8183106115d35750506115aa935082010138808061159b565b855488840185015294850194879450918301916115ba565b925050506115aa94925060ff191682840152151560051b82010138808061159b565b919082519283825260005b848110611639575050826000602080949584010152601f8019910116010190565b602081830181015184830182015201611618565b9181601f840112156101d95782359167ffffffffffffffff83116101d957602083818601950101116101d957565b602090602060408183019282815285518094520193019160005b8281106116a3575050505090565b835185529381019392810192600101611695565b80548210156116cf5760005260206000200190600090565b634e487b7160e01b600052603260045260246000fd5b908160209103126101d9575180151581036101d95790565b60001981146113125760010190565b92919267ffffffffffffffff821161071a5760405191611736601f8201601f191660200184611546565b8294818452818301116101d9578281602093846000960137010152565b80546801000000000000000081101561071a57611775916001820181556116b7565b819291549060031b91821b91600019901b1916179055565b9190820180921161131257565b6000546001600160a01b031633036117ae57565b60405163118cdaa760e01b8152336004820152602490fd5b60ff600254166117d257565b60405163d93c066560e01b8152600490fdfea26469706673582212201e3685d6082f3dd18f2b9299cf51c13adf5eca602914084a90f89b0d1d10df0d64736f6c63430008180033","opcodes":"PUSH1 0xA0 CALLVALUE PUSH3 0x1A5 JUMPI PUSH3 0x19F0 SWAP1 PUSH1 0x1F CODESIZE DUP4 SWAP1 SUB SWAP1 DUP2 ADD PUSH1 0x1F NOT AND DUP3 ADD SWAP1 PUSH1 0x1 PUSH1 0x1 PUSH1 0x40 SHL SUB DUP3 GT DUP4 DUP4 LT OR PUSH3 0x1AA JUMPI DUP1 DUP4 SWAP2 PUSH1 0x40 SWAP6 DUP7 SWAP5 DUP6 MSTORE DUP4 CODECOPY DUP2 ADD SUB SLT PUSH3 0x1A5 JUMPI PUSH3 0x5D PUSH1 0x20 PUSH3 0x55 DUP4 PUSH3 0x1C0 JUMP JUMPDEST SWAP3 ADD PUSH3 0x1C0 JUMP JUMPDEST SWAP1 CALLER ISZERO PUSH3 0x18D JUMPI PUSH1 0x0 SLOAD SWAP2 PUSH1 0x1 DUP1 PUSH1 0xA0 SHL SUB SWAP1 DUP2 PUSH1 0x1 DUP1 PUSH1 0xA0 SHL SUB NOT SWAP4 CALLER DUP6 DUP8 AND OR PUSH1 0x0 SSTORE DUP7 MLOAD SWAP6 DUP3 CALLER SWAP2 AND PUSH32 0x8BE0079C531659141344CD1FD0A4F28419497F9722A3DAAFE3B4186F6B6457E0 PUSH1 0x0 DUP1 LOG3 PUSH1 0x1 DUP1 SSTORE PUSH1 0x1 PUSH1 0x7 SSTORE PUSH1 0xFA PUSH1 0xA SSTORE AND SWAP4 DUP5 ISZERO PUSH3 0x14B JUMPI POP AND SWAP2 DUP3 ISZERO PUSH3 0x107 JUMPI PUSH1 0x80 MSTORE PUSH1 0xB SLOAD AND OR PUSH1 0xB SSTORE MLOAD PUSH2 0x181A SWAP1 DUP2 PUSH3 0x1D6 DUP3 CODECOPY PUSH1 0x80 MLOAD DUP2 DUP2 DUP2 PUSH2 0x8F8 ADD MSTORE DUP2 DUP2 PUSH2 0xE39 ADD MSTORE DUP2 DUP2 PUSH2 0xEB3 ADD MSTORE PUSH2 0x11C0 ADD MSTORE RETURN JUMPDEST DUP4 MLOAD PUSH3 0x461BCD PUSH1 0xE5 SHL DUP2 MSTORE PUSH1 0x20 PUSH1 0x4 DUP3 ADD MSTORE PUSH1 0x15 PUSH1 0x24 DUP3 ADD MSTORE PUSH32 0x496E76616C69642066656520726563697069656E740000000000000000000000 PUSH1 0x44 DUP3 ADD MSTORE PUSH1 0x64 SWAP1 REVERT JUMPDEST PUSH3 0x461BCD PUSH1 0xE5 SHL DUP2 MSTORE PUSH1 0x20 PUSH1 0x4 DUP3 ADD MSTORE PUSH1 0x15 PUSH1 0x24 DUP3 ADD MSTORE PUSH32 0x496E76616C696420505955534420616464726573730000000000000000000000 PUSH1 0x44 DUP3 ADD MSTORE PUSH1 0x64 SWAP1 REVERT JUMPDEST DUP3 MLOAD PUSH4 0x1E4FBDF7 PUSH1 0xE0 SHL DUP2 MSTORE PUSH1 0x0 PUSH1 0x4 DUP3 ADD MSTORE PUSH1 0x24 SWAP1 REVERT JUMPDEST PUSH1 0x0 DUP1 REVERT JUMPDEST PUSH4 0x4E487B71 PUSH1 0xE0 SHL PUSH1 0x0 MSTORE PUSH1 0x41 PUSH1 0x4 MSTORE PUSH1 0x24 PUSH1 0x0 REVERT JUMPDEST MLOAD SWAP1 PUSH1 0x1 PUSH1 0x1 PUSH1 0xA0 SHL SUB DUP3 AND DUP3 SUB PUSH3 0x1A5 JUMPI JUMP INVALID PUSH1 0x80 PUSH1 0x40 MSTORE PUSH1 0x4 CALLDATASIZE LT ISZERO PUSH2 0x12 JUMPI PUSH1 0x0 DUP1 REVERT JUMPDEST PUSH1 0x0 CALLDATALOAD PUSH1 0xE0 SHR DUP1 PUSH4 0x12E8E2C3 EQ PUSH2 0x147C JUMPI DUP1 PUSH4 0x236CD7DC EQ PUSH2 0x13F6 JUMPI DUP1 PUSH4 0x250CBCA3 EQ PUSH2 0xD61 JUMPI DUP1 PUSH4 0x26232A2E EQ PUSH2 0xD43 JUMPI DUP1 PUSH4 0x2718C14F EQ PUSH2 0xD25 JUMPI DUP1 PUSH4 0x3280A836 EQ PUSH2 0xC4E JUMPI DUP1 PUSH4 0x37E32D1D EQ PUSH2 0xC30 JUMPI DUP1 PUSH4 0x3998A681 EQ PUSH2 0xC13 JUMPI DUP1 PUSH4 0x3F4BA83A EQ PUSH2 0xBA9 JUMPI DUP1 PUSH4 0x46904840 EQ PUSH2 0xB80 JUMPI DUP1 PUSH4 0x51F5005E EQ PUSH2 0xB05 JUMPI DUP1 PUSH4 0x5C975ABB EQ PUSH2 0xAE2 JUMPI DUP1 PUSH4 0x5FCF6E19 EQ PUSH2 0xAC4 JUMPI DUP1 PUSH4 0x715018A6 EQ PUSH2 0xA6B JUMPI DUP1 PUSH4 0x8456CB59 EQ PUSH2 0xA11 JUMPI DUP1 PUSH4 0x85099491 EQ PUSH2 0x9C7 JUMPI DUP1 PUSH4 0x87D81789 EQ PUSH2 0x950 JUMPI DUP1 PUSH4 0x8DA5CB5B EQ PUSH2 0x927 JUMPI DUP1 PUSH4 0x91763009 EQ PUSH2 0x8E2 JUMPI DUP1 PUSH4 0x95CCEA67 EQ PUSH2 0x847 JUMPI DUP1 PUSH4 0xAC9F56EB EQ PUSH2 0x7FF JUMPI DUP1 PUSH4 0xADE49FCB EQ PUSH2 0x461 JUMPI DUP1 PUSH4 0xC491B7B6 EQ PUSH2 0x3D6 JUMPI DUP1 PUSH4 0xC59D4847 EQ PUSH2 0x397 JUMPI DUP1 PUSH4 0xD2FE0916 EQ PUSH2 0x33F JUMPI DUP1 PUSH4 0xDFF4A5E8 EQ PUSH2 0x25D JUMPI DUP1 PUSH4 0xE74B981B EQ PUSH2 0x1DE JUMPI PUSH4 0xF2FDE38B EQ PUSH2 0x150 JUMPI PUSH1 0x0 DUP1 REVERT JUMPDEST CALLVALUE PUSH2 0x1D9 JUMPI PUSH1 0x20 CALLDATASIZE PUSH1 0x3 NOT ADD SLT PUSH2 0x1D9 JUMPI PUSH2 0x169 PUSH2 0x14DA JUMP JUMPDEST PUSH2 0x171 PUSH2 0x179A JUMP JUMPDEST PUSH1 0x1 PUSH1 0x1 PUSH1 0xA0 SHL SUB SWAP1 DUP2 AND SWAP1 DUP2 ISZERO PUSH2 0x1C0 JUMPI PUSH1 0x0 SLOAD DUP3 PUSH1 0x1 PUSH1 0x1 PUSH1 0x60 SHL SUB PUSH1 0xA0 SHL DUP3 AND OR PUSH1 0x0 SSTORE AND PUSH32 0x8BE0079C531659141344CD1FD0A4F28419497F9722A3DAAFE3B4186F6B6457E0 PUSH1 0x0 DUP1 LOG3 STOP JUMPDEST PUSH1 0x40 MLOAD PUSH4 0x1E4FBDF7 PUSH1 0xE0 SHL DUP2 MSTORE PUSH1 0x0 PUSH1 0x4 DUP3 ADD MSTORE PUSH1 0x24 SWAP1 REVERT JUMPDEST PUSH1 0x0 DUP1 REVERT JUMPDEST CALLVALUE PUSH2 0x1D9 JUMPI PUSH1 0x20 CALLDATASIZE PUSH1 0x3 NOT ADD SLT PUSH2 0x1D9 JUMPI PUSH2 0x1F7 PUSH2 0x14DA JUMP JUMPDEST PUSH2 0x1FF PUSH2 0x179A JUMP JUMPDEST PUSH1 0x1 PUSH1 0x1 PUSH1 0xA0 SHL SUB AND DUP1 ISZERO PUSH2 0x226 JUMPI PUSH1 0x1 PUSH1 0x1 PUSH1 0x60 SHL SUB PUSH1 0xA0 SHL PUSH1 0xB SLOAD AND OR PUSH1 0xB SSTORE PUSH1 0x0 DUP1 RETURN JUMPDEST PUSH1 0x40 MLOAD PUSH3 0x461BCD PUSH1 0xE5 SHL DUP2 MSTORE PUSH1 0x20 PUSH1 0x4 DUP3 ADD MSTORE PUSH1 0xF PUSH1 0x24 DUP3 ADD MSTORE PUSH15 0x496E76616C69642061646472657373 PUSH1 0x88 SHL PUSH1 0x44 DUP3 ADD MSTORE PUSH1 0x64 SWAP1 REVERT JUMPDEST CALLVALUE PUSH2 0x1D9 JUMPI PUSH1 0x20 DUP1 PUSH1 0x3 NOT CALLDATASIZE ADD SLT PUSH2 0x1D9 JUMPI PUSH1 0xA0 SWAP1 PUSH2 0x27A PUSH2 0x14DA JUMP JUMPDEST PUSH1 0x0 PUSH1 0x80 PUSH1 0x40 MLOAD PUSH2 0x28A DUP2 PUSH2 0x152A JUMP JUMPDEST PUSH1 0x60 DUP2 MSTORE DUP3 DUP6 DUP3 ADD MSTORE DUP3 PUSH1 0x40 DUP3 ADD MSTORE DUP3 PUSH1 0x60 DUP3 ADD MSTORE ADD MSTORE PUSH1 0x1 DUP1 DUP5 SHL SUB DUP1 SWAP2 AND PUSH1 0x0 MSTORE PUSH1 0x3 DUP3 MSTORE PUSH1 0x40 PUSH1 0x0 KECCAK256 SWAP2 PUSH1 0x40 MLOAD SWAP3 PUSH2 0x2C4 DUP5 PUSH2 0x152A JUMP JUMPDEST PUSH2 0x2CD DUP2 PUSH2 0x1568 JUMP JUMPDEST DUP5 MSTORE PUSH1 0x1 DUP2 ADD SLOAD DUP3 DUP6 ADD SWAP4 DUP1 DUP3 AND DUP6 MSTORE PUSH1 0xFF PUSH1 0x40 DUP8 ADD SWAP3 DUP9 SHR AND ISZERO ISZERO DUP3 MSTORE PUSH2 0x31F PUSH1 0x3 PUSH1 0x2 DUP6 ADD SLOAD SWAP5 PUSH1 0x60 DUP10 ADD SWAP6 DUP7 MSTORE ADD SLOAD SWAP5 PUSH1 0x80 DUP9 ADD SWAP6 DUP7 MSTORE PUSH1 0x40 MLOAD SWAP9 DUP10 SWAP9 DUP3 DUP11 MSTORE MLOAD SWAP2 DUP10 ADD MSTORE PUSH1 0xC0 DUP9 ADD SWAP1 PUSH2 0x160D JUMP JUMPDEST SWAP5 MLOAD AND PUSH1 0x40 DUP7 ADD MSTORE MLOAD ISZERO ISZERO PUSH1 0x60 DUP6 ADD MSTORE MLOAD PUSH1 0x80 DUP5 ADD MSTORE MLOAD PUSH1 0xA0 DUP4 ADD MSTORE SUB SWAP1 RETURN JUMPDEST CALLVALUE PUSH2 0x1D9 JUMPI PUSH1 0x40 CALLDATASIZE PUSH1 0x3 NOT ADD SLT PUSH2 0x1D9 JUMPI PUSH2 0x358 PUSH2 0x14DA JUMP JUMPDEST PUSH1 0x1 PUSH1 0x1 PUSH1 0xA0 SHL SUB AND PUSH1 0x0 SWAP1 DUP2 MSTORE PUSH1 0x5 PUSH1 0x20 MSTORE PUSH1 0x40 SWAP1 KECCAK256 DUP1 SLOAD PUSH1 0x24 CALLDATALOAD SWAP2 SWAP1 DUP3 LT ISZERO PUSH2 0x1D9 JUMPI PUSH1 0x20 SWAP2 PUSH2 0x389 SWAP2 PUSH2 0x16B7 JUMP JUMPDEST SWAP1 SLOAD PUSH1 0x40 MLOAD SWAP2 PUSH1 0x3 SHL SHR DUP2 MSTORE RETURN JUMPDEST CALLVALUE PUSH2 0x1D9 JUMPI PUSH1 0x0 CALLDATASIZE PUSH1 0x3 NOT ADD SLT PUSH2 0x1D9 JUMPI PUSH1 0x80 PUSH1 0x8 SLOAD PUSH1 0x9 SLOAD PUSH1 0xA SLOAD PUSH1 0x1 DUP1 PUSH1 0xA0 SHL SUB PUSH1 0xB SLOAD AND SWAP2 PUSH1 0x40 MLOAD SWAP4 DUP5 MSTORE PUSH1 0x20 DUP5 ADD MSTORE PUSH1 0x40 DUP4 ADD MSTORE PUSH1 0x60 DUP3 ADD MSTORE RETURN JUMPDEST CALLVALUE PUSH2 0x1D9 JUMPI PUSH1 0x20 DUP1 PUSH1 0x3 NOT CALLDATASIZE ADD SLT PUSH2 0x1D9 JUMPI PUSH1 0x1 PUSH1 0x1 PUSH1 0xA0 SHL SUB PUSH2 0x3F8 PUSH2 0x14DA JUMP JUMPDEST AND PUSH1 0x0 MSTORE PUSH1 0x5 PUSH1 0x20 MSTORE PUSH1 0x40 PUSH1 0x0 KECCAK256 SWAP1 PUSH1 0x40 MLOAD SWAP1 DUP2 PUSH1 0x20 DUP5 SLOAD SWAP2 DUP3 DUP2 MSTORE ADD SWAP4 PUSH1 0x0 MSTORE PUSH1 0x20 PUSH1 0x0 KECCAK256 SWAP2 PUSH1 0x0 SWAP1 JUMPDEST DUP3 DUP3 LT PUSH2 0x44A JUMPI PUSH2 0x446 DUP6 PUSH2 0x43A DUP2 DUP10 SUB DUP3 PUSH2 0x1546 JUMP JUMPDEST PUSH1 0x40 MLOAD SWAP2 DUP3 SWAP2 DUP3 PUSH2 0x167B JUMP JUMPDEST SUB SWAP1 RETURN JUMPDEST DUP4 SLOAD DUP7 MSTORE SWAP5 DUP6 ADD SWAP5 PUSH1 0x1 SWAP4 DUP5 ADD SWAP4 SWAP1 SWAP2 ADD SWAP1 PUSH2 0x423 JUMP JUMPDEST CALLVALUE PUSH2 0x1D9 JUMPI PUSH1 0x40 CALLDATASIZE PUSH1 0x3 NOT ADD SLT PUSH2 0x1D9 JUMPI PUSH2 0x47A PUSH2 0x14DA JUMP JUMPDEST PUSH8 0xFFFFFFFFFFFFFFFF SWAP1 PUSH1 0x24 CALLDATALOAD DUP3 DUP2 GT PUSH2 0x1D9 JUMPI PUSH2 0x49C SWAP1 CALLDATASIZE SWAP1 PUSH1 0x4 ADD PUSH2 0x164D JUMP JUMPDEST SWAP2 PUSH2 0x4A5 PUSH2 0x179A JUMP JUMPDEST PUSH1 0x1 PUSH1 0x1 PUSH1 0xA0 SHL SUB DUP2 AND ISZERO PUSH2 0x7BA JUMPI DUP3 ISZERO PUSH2 0x775 JUMPI PUSH1 0x1 PUSH1 0x1 PUSH1 0xA0 SHL SUB DUP2 AND PUSH1 0x0 SWAP1 DUP2 MSTORE PUSH1 0x3 PUSH1 0x20 MSTORE PUSH1 0x40 SWAP1 KECCAK256 PUSH1 0x1 ADD SLOAD PUSH1 0xA0 SHR PUSH1 0xFF AND PUSH2 0x730 JUMPI PUSH1 0x40 MLOAD PUSH2 0x4EC DUP2 PUSH2 0x152A JUMP JUMPDEST PUSH2 0x4F7 CALLDATASIZE DUP6 DUP6 PUSH2 0x170C JUMP JUMPDEST DUP2 MSTORE PUSH1 0x1 DUP1 PUSH1 0xA0 SHL SUB DUP3 AND PUSH1 0x20 DUP3 ADD MSTORE PUSH1 0x1 PUSH1 0x40 DUP3 ADD MSTORE PUSH1 0x0 PUSH1 0x60 DUP3 ADD MSTORE TIMESTAMP PUSH1 0x80 DUP3 ADD MSTORE PUSH1 0x1 DUP1 PUSH1 0xA0 SHL SUB DUP3 AND PUSH1 0x0 MSTORE PUSH1 0x3 PUSH1 0x20 MSTORE PUSH1 0x40 PUSH1 0x0 KECCAK256 SWAP1 DUP1 MLOAD SWAP6 DUP7 MLOAD SWAP1 DUP2 GT PUSH2 0x71A JUMPI PUSH2 0x548 DUP4 SLOAD PUSH2 0x14F0 JUMP JUMPDEST SWAP7 PUSH1 0x1F DUP9 GT PUSH2 0x6D6 JUMPI JUMPDEST DUP7 SWAP8 POP PUSH1 0x0 SWAP7 SWAP6 SWAP7 POP PUSH1 0x20 SWAP1 PUSH1 0x1F DUP4 GT PUSH1 0x1 EQ PUSH2 0x641 JUMPI PUSH1 0x60 SWAP6 SWAP4 DUP4 PUSH32 0xD827E82622FAD9AE79927940EB29606C4695F01F399C10109A88E3E0D45808B7 SWAP10 SWAP7 SWAP5 PUSH1 0x3 SWAP5 PUSH1 0x80 SWAP5 PUSH1 0x0 SWAP3 PUSH2 0x636 JUMPI JUMPDEST POP POP DUP2 PUSH1 0x1 SHL SWAP2 PUSH1 0x0 NOT SWAP1 DUP7 SHL SHR NOT AND OR DUP5 SSTORE JUMPDEST PUSH1 0x1 DUP5 ADD PUSH1 0x1 DUP1 PUSH1 0xA0 SHL SUB PUSH1 0x20 DUP4 ADD MLOAD AND DUP2 SLOAD SWAP1 PUSH1 0xFF PUSH1 0xA0 SHL PUSH1 0x40 DUP6 ADD MLOAD ISZERO ISZERO PUSH1 0xA0 SHL AND SWAP2 PUSH11 0xFFFFFFFFFFFFFFFFFFFFFF PUSH1 0xA8 SHL AND OR OR SWAP1 SSTORE DUP7 DUP2 ADD MLOAD PUSH1 0x2 DUP6 ADD SSTORE ADD MLOAD SWAP2 ADD SSTORE PUSH1 0x40 MLOAD SWAP4 DUP5 SWAP3 PUSH1 0x40 DUP5 MSTORE DUP2 PUSH1 0x40 DUP6 ADD MSTORE DUP5 DUP5 ADD CALLDATACOPY PUSH1 0x0 DUP3 DUP8 ADD DUP5 ADD MSTORE TIMESTAMP PUSH1 0x20 DUP4 ADD MSTORE PUSH1 0x1 PUSH1 0x1 PUSH1 0xA0 SHL SUB AND SWAP5 PUSH1 0x1F ADD PUSH1 0x1F NOT AND DUP2 ADD SUB ADD SWAP1 LOG2 STOP JUMPDEST ADD MLOAD SWAP1 POP DUP13 DUP1 PUSH2 0x5A0 JUMP JUMPDEST SWAP1 PUSH1 0x1F NOT DUP4 AND SWAP2 DUP6 PUSH1 0x0 MSTORE PUSH1 0x20 PUSH1 0x0 KECCAK256 SWAP3 PUSH1 0x0 JUMPDEST DUP2 DUP2 LT PUSH2 0x6BB JUMPI POP DUP5 PUSH1 0x3 SWAP5 PUSH1 0x80 SWAP5 PUSH1 0x60 SWAP11 SWAP9 SWAP5 PUSH32 0xD827E82622FAD9AE79927940EB29606C4695F01F399C10109A88E3E0D45808B7 SWAP14 SWAP11 SWAP9 PUSH1 0x1 SWAP6 LT PUSH2 0x6A3 JUMPI JUMPDEST POP POP POP DUP2 SHL ADD DUP5 SSTORE PUSH2 0x5B4 JUMP JUMPDEST ADD MLOAD PUSH1 0x0 NOT DUP4 DUP9 SHL PUSH1 0xF8 AND SHR NOT AND SWAP1 SSTORE DUP13 DUP1 DUP1 PUSH2 0x696 JUMP JUMPDEST DUP3 DUP5 ADD MLOAD DUP6 SSTORE DUP12 SWAP10 POP PUSH1 0x1 SWAP1 SWAP5 ADD SWAP4 PUSH1 0x20 SWAP4 DUP5 ADD SWAP4 ADD PUSH2 0x655 JUMP JUMPDEST DUP4 PUSH1 0x0 MSTORE PUSH1 0x20 PUSH1 0x0 KECCAK256 PUSH1 0x1F DUP4 ADD PUSH1 0x5 SHR DUP2 ADD PUSH1 0x20 DUP5 LT PUSH2 0x713 JUMPI JUMPDEST PUSH1 0x1F DUP11 ADD PUSH1 0x5 SHR DUP3 ADD DUP2 LT PUSH2 0x707 JUMPI POP POP PUSH2 0x552 JUMP JUMPDEST PUSH1 0x0 DUP2 SSTORE PUSH1 0x1 ADD PUSH2 0x6F1 JUMP JUMPDEST POP DUP1 PUSH2 0x6F1 JUMP JUMPDEST PUSH4 0x4E487B71 PUSH1 0xE0 SHL PUSH1 0x0 MSTORE PUSH1 0x41 PUSH1 0x4 MSTORE PUSH1 0x24 PUSH1 0x0 REVERT JUMPDEST PUSH1 0x40 MLOAD PUSH3 0x461BCD PUSH1 0xE5 SHL DUP2 MSTORE PUSH1 0x20 PUSH1 0x4 DUP3 ADD MSTORE PUSH1 0x1D PUSH1 0x24 DUP3 ADD MSTORE PUSH32 0x52657374617572616E7420616C72656164792072656769737465726564000000 PUSH1 0x44 DUP3 ADD MSTORE PUSH1 0x64 SWAP1 REVERT JUMPDEST PUSH1 0x40 MLOAD PUSH3 0x461BCD PUSH1 0xE5 SHL DUP2 MSTORE PUSH1 0x20 PUSH1 0x4 DUP3 ADD MSTORE PUSH1 0x18 PUSH1 0x24 DUP3 ADD MSTORE PUSH32 0x52657374617572616E74206E616D652072657175697265640000000000000000 PUSH1 0x44 DUP3 ADD MSTORE PUSH1 0x64 SWAP1 REVERT JUMPDEST PUSH1 0x40 MLOAD PUSH3 0x461BCD PUSH1 0xE5 SHL DUP2 MSTORE PUSH1 0x20 PUSH1 0x4 DUP3 ADD MSTORE PUSH1 0x1A PUSH1 0x24 DUP3 ADD MSTORE PUSH32 0x496E76616C69642072657374617572616E742061646472657373000000000000 PUSH1 0x44 DUP3 ADD MSTORE PUSH1 0x64 SWAP1 REVERT JUMPDEST CALLVALUE PUSH2 0x1D9 JUMPI PUSH1 0x20 CALLDATASIZE PUSH1 0x3 NOT ADD SLT PUSH2 0x1D9 JUMPI PUSH2 0x818 PUSH2 0x14DA JUMP JUMPDEST PUSH2 0x820 PUSH2 0x179A JUMP JUMPDEST PUSH1 0x1 PUSH1 0x1 PUSH1 0xA0 SHL SUB AND PUSH1 0x0 SWAP1 DUP2 MSTORE PUSH1 0x3 PUSH1 0x20 MSTORE PUSH1 0x40 SWAP1 KECCAK256 PUSH1 0x1 ADD DUP1 SLOAD PUSH1 0xFF PUSH1 0xA0 SHL NOT AND SWAP1 SSTORE STOP JUMPDEST CALLVALUE PUSH2 0x1D9 JUMPI PUSH1 0x40 CALLDATASIZE PUSH1 0x3 NOT ADD SLT PUSH2 0x1D9 JUMPI PUSH2 0x860 PUSH2 0x14DA JUMP JUMPDEST PUSH2 0x868 PUSH2 0x179A JUMP JUMPDEST PUSH1 0x0 DUP1 SLOAD PUSH1 0x40 MLOAD PUSH4 0xA9059CBB PUSH1 0xE0 SHL DUP2 MSTORE PUSH1 0x1 PUSH1 0x1 PUSH1 0xA0 SHL SUB SWAP2 DUP3 AND PUSH1 0x4 DUP3 ADD MSTORE PUSH1 0x24 DUP1 CALLDATALOAD SWAP1 DUP3 ADD MSTORE SWAP3 PUSH1 0x20 SWAP3 DUP5 SWAP3 PUSH1 0x44 SWAP3 DUP5 SWAP3 SWAP2 AND GAS CALL DUP1 ISZERO PUSH2 0x8D6 JUMPI PUSH2 0x8AC JUMPI STOP JUMPDEST PUSH2 0x8CD SWAP1 PUSH1 0x20 RETURNDATASIZE PUSH1 0x20 GT PUSH2 0x8CF JUMPI JUMPDEST PUSH2 0x8C5 DUP2 DUP4 PUSH2 0x1546 JUMP JUMPDEST DUP2 ADD SWAP1 PUSH2 0x16E5 JUMP JUMPDEST STOP JUMPDEST POP RETURNDATASIZE PUSH2 0x8BB JUMP JUMPDEST PUSH1 0x40 MLOAD RETURNDATASIZE PUSH1 0x0 DUP3 RETURNDATACOPY RETURNDATASIZE SWAP1 REVERT JUMPDEST CALLVALUE PUSH2 0x1D9 JUMPI PUSH1 0x0 CALLDATASIZE PUSH1 0x3 NOT ADD SLT PUSH2 0x1D9 JUMPI PUSH1 0x40 MLOAD PUSH32 0x0 PUSH1 0x1 PUSH1 0x1 PUSH1 0xA0 SHL SUB AND DUP2 MSTORE PUSH1 0x20 SWAP1 RETURN JUMPDEST CALLVALUE PUSH2 0x1D9 JUMPI PUSH1 0x0 CALLDATASIZE PUSH1 0x3 NOT ADD SLT PUSH2 0x1D9 JUMPI PUSH1 0x0 SLOAD PUSH1 0x40 MLOAD PUSH1 0x1 PUSH1 0x1 PUSH1 0xA0 SHL SUB SWAP1 SWAP2 AND DUP2 MSTORE PUSH1 0x20 SWAP1 RETURN JUMPDEST CALLVALUE PUSH2 0x1D9 JUMPI PUSH1 0x20 CALLDATASIZE PUSH1 0x3 NOT ADD SLT PUSH2 0x1D9 JUMPI PUSH1 0x4 CALLDATALOAD PUSH1 0x0 MSTORE PUSH1 0x4 PUSH1 0x20 MSTORE PUSH1 0x40 PUSH1 0x0 KECCAK256 PUSH1 0x1 DUP1 PUSH1 0xA0 SHL SUB PUSH2 0x446 DUP2 DUP4 SLOAD AND SWAP2 PUSH1 0x1 DUP5 ADD SLOAD AND SWAP3 PUSH1 0x2 DUP2 ADD SLOAD SWAP1 PUSH2 0x99E PUSH1 0x4 PUSH1 0x3 DUP4 ADD SLOAD SWAP3 ADD PUSH2 0x1568 JUMP JUMPDEST SWAP2 PUSH1 0x40 MLOAD SWAP6 DUP7 SWAP6 DUP7 MSTORE PUSH1 0x20 DUP7 ADD MSTORE PUSH1 0x40 DUP6 ADD MSTORE PUSH1 0x60 DUP5 ADD MSTORE PUSH1 0xA0 PUSH1 0x80 DUP5 ADD MSTORE PUSH1 0xA0 DUP4 ADD SWAP1 PUSH2 0x160D JUMP JUMPDEST CALLVALUE PUSH2 0x1D9 JUMPI PUSH1 0x40 CALLDATASIZE PUSH1 0x3 NOT ADD SLT PUSH2 0x1D9 JUMPI PUSH2 0x9E0 PUSH2 0x14DA JUMP JUMPDEST PUSH1 0x1 PUSH1 0x1 PUSH1 0xA0 SHL SUB AND PUSH1 0x0 SWAP1 DUP2 MSTORE PUSH1 0x6 PUSH1 0x20 MSTORE PUSH1 0x40 SWAP1 KECCAK256 DUP1 SLOAD PUSH1 0x24 CALLDATALOAD SWAP2 SWAP1 DUP3 LT ISZERO PUSH2 0x1D9 JUMPI PUSH1 0x20 SWAP2 PUSH2 0x389 SWAP2 PUSH2 0x16B7 JUMP JUMPDEST CALLVALUE PUSH2 0x1D9 JUMPI PUSH1 0x0 CALLDATASIZE PUSH1 0x3 NOT ADD SLT PUSH2 0x1D9 JUMPI PUSH2 0xA2A PUSH2 0x179A JUMP JUMPDEST PUSH2 0xA32 PUSH2 0x17C6 JUMP JUMPDEST PUSH1 0x1 PUSH1 0xFF NOT PUSH1 0x2 SLOAD AND OR PUSH1 0x2 SSTORE PUSH32 0x62E78CEA01BEE320CD4E420270B5EA74000D11B0C9F74754EBDBFC544B05A258 PUSH1 0x20 PUSH1 0x40 MLOAD CALLER DUP2 MSTORE LOG1 STOP JUMPDEST CALLVALUE PUSH2 0x1D9 JUMPI PUSH1 0x0 CALLDATASIZE PUSH1 0x3 NOT ADD SLT PUSH2 0x1D9 JUMPI PUSH2 0xA84 PUSH2 0x179A JUMP JUMPDEST PUSH1 0x0 DUP1 SLOAD PUSH1 0x1 PUSH1 0x1 PUSH1 0xA0 SHL SUB NOT DUP2 AND DUP3 SSTORE PUSH1 0x1 PUSH1 0x1 PUSH1 0xA0 SHL SUB AND PUSH32 0x8BE0079C531659141344CD1FD0A4F28419497F9722A3DAAFE3B4186F6B6457E0 DUP3 DUP1 LOG3 STOP JUMPDEST CALLVALUE PUSH2 0x1D9 JUMPI PUSH1 0x0 CALLDATASIZE PUSH1 0x3 NOT ADD SLT PUSH2 0x1D9 JUMPI PUSH1 0x20 PUSH1 0x7 SLOAD PUSH1 0x40 MLOAD SWAP1 DUP2 MSTORE RETURN JUMPDEST CALLVALUE PUSH2 0x1D9 JUMPI PUSH1 0x0 CALLDATASIZE PUSH1 0x3 NOT ADD SLT PUSH2 0x1D9 JUMPI PUSH1 0x20 PUSH1 0xFF PUSH1 0x2 SLOAD AND PUSH1 0x40 MLOAD SWAP1 ISZERO ISZERO DUP2 MSTORE RETURN JUMPDEST CALLVALUE PUSH2 0x1D9 JUMPI PUSH1 0x20 DUP1 PUSH1 0x3 NOT CALLDATASIZE ADD SLT PUSH2 0x1D9 JUMPI PUSH1 0x1 PUSH1 0x1 PUSH1 0xA0 SHL SUB PUSH2 0xB27 PUSH2 0x14DA JUMP JUMPDEST AND PUSH1 0x0 MSTORE PUSH1 0x6 PUSH1 0x20 MSTORE PUSH1 0x40 PUSH1 0x0 KECCAK256 SWAP1 PUSH1 0x40 MLOAD SWAP1 DUP2 PUSH1 0x20 DUP5 SLOAD SWAP2 DUP3 DUP2 MSTORE ADD SWAP4 PUSH1 0x0 MSTORE PUSH1 0x20 PUSH1 0x0 KECCAK256 SWAP2 PUSH1 0x0 SWAP1 JUMPDEST DUP3 DUP3 LT PUSH2 0xB69 JUMPI PUSH2 0x446 DUP6 PUSH2 0x43A DUP2 DUP10 SUB DUP3 PUSH2 0x1546 JUMP JUMPDEST DUP4 SLOAD DUP7 MSTORE SWAP5 DUP6 ADD SWAP5 PUSH1 0x1 SWAP4 DUP5 ADD SWAP4 SWAP1 SWAP2 ADD SWAP1 PUSH2 0xB52 JUMP JUMPDEST CALLVALUE PUSH2 0x1D9 JUMPI PUSH1 0x0 CALLDATASIZE PUSH1 0x3 NOT ADD SLT PUSH2 0x1D9 JUMPI PUSH1 0xB SLOAD PUSH1 0x40 MLOAD PUSH1 0x1 PUSH1 0x1 PUSH1 0xA0 SHL SUB SWAP1 SWAP2 AND DUP2 MSTORE PUSH1 0x20 SWAP1 RETURN JUMPDEST CALLVALUE PUSH2 0x1D9 JUMPI PUSH1 0x0 CALLDATASIZE PUSH1 0x3 NOT ADD SLT PUSH2 0x1D9 JUMPI PUSH2 0xBC2 PUSH2 0x179A JUMP JUMPDEST PUSH1 0x2 SLOAD PUSH1 0xFF DUP2 AND ISZERO PUSH2 0xC01 JUMPI PUSH1 0xFF NOT AND PUSH1 0x2 SSTORE PUSH32 0x5DB9EE0A495BF2E6FF9C91A7834C1BA4FDD244A5E8AA4E537BD38AEAE4B073AA PUSH1 0x20 PUSH1 0x40 MLOAD CALLER DUP2 MSTORE LOG1 STOP JUMPDEST PUSH1 0x40 MLOAD PUSH4 0x8DFC202B PUSH1 0xE0 SHL DUP2 MSTORE PUSH1 0x4 SWAP1 REVERT JUMPDEST CALLVALUE PUSH2 0x1D9 JUMPI PUSH1 0x0 CALLDATASIZE PUSH1 0x3 NOT ADD SLT PUSH2 0x1D9 JUMPI PUSH1 0x20 PUSH1 0x40 MLOAD PUSH2 0x3E8 DUP2 MSTORE RETURN JUMPDEST CALLVALUE PUSH2 0x1D9 JUMPI PUSH1 0x0 CALLDATASIZE PUSH1 0x3 NOT ADD SLT PUSH2 0x1D9 JUMPI PUSH1 0x20 PUSH1 0x8 SLOAD PUSH1 0x40 MLOAD SWAP1 DUP2 MSTORE RETURN JUMPDEST CALLVALUE PUSH2 0x1D9 JUMPI PUSH1 0x20 DUP1 PUSH1 0x3 NOT CALLDATASIZE ADD SLT PUSH2 0x1D9 JUMPI PUSH1 0x60 PUSH1 0x80 PUSH1 0x40 MLOAD PUSH2 0xC70 DUP2 PUSH2 0x152A JUMP JUMPDEST PUSH1 0x0 DUP2 MSTORE PUSH1 0x0 DUP5 DUP3 ADD MSTORE PUSH1 0x0 PUSH1 0x40 DUP3 ADD MSTORE PUSH1 0x0 DUP4 DUP3 ADD MSTORE ADD MSTORE PUSH1 0x4 CALLDATALOAD PUSH1 0x0 MSTORE PUSH1 0x4 DUP2 MSTORE PUSH1 0x40 PUSH1 0x0 KECCAK256 SWAP1 PUSH2 0x446 PUSH1 0x40 MLOAD SWAP2 PUSH2 0xCA9 DUP4 PUSH2 0x152A JUMP JUMPDEST PUSH1 0x1 DUP1 PUSH1 0xA0 SHL SUB SWAP4 DUP5 DUP2 SLOAD AND DUP5 MSTORE DUP5 PUSH1 0x1 DUP3 ADD SLOAD AND DUP3 DUP6 ADD SWAP1 DUP2 MSTORE DUP6 PUSH1 0x2 DUP4 ADD SLOAD SWAP2 PUSH1 0x40 DUP8 ADD SWAP3 DUP4 MSTORE PUSH2 0xCEA PUSH1 0x4 PUSH1 0x3 DUP7 ADD SLOAD SWAP6 PUSH1 0x60 DUP11 ADD SWAP7 DUP8 MSTORE ADD PUSH2 0x1568 JUMP JUMPDEST SWAP5 PUSH1 0x80 DUP9 ADD SWAP6 DUP7 MSTORE PUSH1 0x40 MLOAD SWAP9 DUP10 SWAP9 DUP3 DUP11 MSTORE MLOAD AND SWAP1 DUP9 ADD MSTORE MLOAD AND PUSH1 0x40 DUP7 ADD MSTORE MLOAD PUSH1 0x60 DUP6 ADD MSTORE MLOAD PUSH1 0x80 DUP5 ADD MSTORE MLOAD PUSH1 0xA0 DUP1 DUP5 ADD MSTORE PUSH1 0xC0 DUP4 ADD SWAP1 PUSH2 0x160D JUMP JUMPDEST CALLVALUE PUSH2 0x1D9 JUMPI PUSH1 0x0 CALLDATASIZE PUSH1 0x3 NOT ADD SLT PUSH2 0x1D9 JUMPI PUSH1 0x20 PUSH1 0x9 SLOAD PUSH1 0x40 MLOAD SWAP1 DUP2 MSTORE RETURN JUMPDEST CALLVALUE PUSH2 0x1D9 JUMPI PUSH1 0x0 CALLDATASIZE PUSH1 0x3 NOT ADD SLT PUSH2 0x1D9 JUMPI PUSH1 0x20 PUSH1 0xA SLOAD PUSH1 0x40 MLOAD SWAP1 DUP2 MSTORE RETURN JUMPDEST CALLVALUE PUSH2 0x1D9 JUMPI PUSH1 0x60 CALLDATASIZE PUSH1 0x3 NOT ADD SLT PUSH2 0x1D9 JUMPI PUSH2 0xD7A PUSH2 0x14DA JUMP JUMPDEST PUSH1 0x44 CALLDATALOAD PUSH8 0xFFFFFFFFFFFFFFFF DUP2 GT PUSH2 0x1D9 JUMPI PUSH2 0xD9A SWAP1 CALLDATASIZE SWAP1 PUSH1 0x4 ADD PUSH2 0x164D JUMP JUMPDEST PUSH1 0x2 PUSH1 0x1 SWAP4 SWAP3 SWAP4 SLOAD EQ PUSH2 0x13E4 JUMPI PUSH1 0x2 PUSH1 0x1 SSTORE PUSH2 0xDB4 PUSH2 0x17C6 JUMP JUMPDEST PUSH1 0x1 PUSH1 0x1 PUSH1 0xA0 SHL SUB DUP3 AND PUSH1 0x0 SWAP1 DUP2 MSTORE PUSH1 0x3 PUSH1 0x20 MSTORE PUSH1 0x40 SWAP1 KECCAK256 PUSH1 0x1 ADD SLOAD PUSH1 0xA0 SHR PUSH1 0xFF AND ISZERO PUSH2 0x13AA JUMPI PUSH1 0x24 CALLDATALOAD ISZERO PUSH2 0x1365 JUMPI DUP1 ISZERO PUSH2 0x1328 JUMPI PUSH1 0xA SLOAD SWAP1 DUP2 PUSH1 0x24 CALLDATALOAD MUL SWAP2 PUSH1 0x24 CALLDATALOAD DUP4 DIV SUB PUSH2 0x1312 JUMPI PUSH1 0x24 CALLDATALOAD PUSH2 0x2710 DUP4 DIV DUP2 SUB GT PUSH2 0x1312 JUMPI PUSH1 0x40 MLOAD PUSH4 0x23B872DD PUSH1 0xE0 SHL DUP2 MSTORE CALLER PUSH1 0x4 DUP3 ADD MSTORE ADDRESS PUSH1 0x24 DUP1 DUP4 ADD SWAP2 SWAP1 SWAP2 MSTORE CALLDATALOAD PUSH1 0x44 DUP3 ADD MSTORE PUSH1 0x20 DUP2 PUSH1 0x64 DUP2 PUSH1 0x0 PUSH32 0x0 PUSH1 0x1 PUSH1 0x1 PUSH1 0xA0 SHL SUB AND GAS CALL SWAP1 DUP2 ISZERO PUSH2 0x8D6 JUMPI PUSH1 0x0 SWAP2 PUSH2 0x12F3 JUMPI JUMPDEST POP ISZERO PUSH2 0x12BC JUMPI PUSH1 0x40 MLOAD PUSH4 0xA9059CBB PUSH1 0xE0 SHL DUP2 MSTORE PUSH1 0x1 PUSH1 0x1 PUSH1 0xA0 SHL SUB DUP5 AND PUSH1 0x4 DUP3 ADD MSTORE PUSH2 0x2710 DUP4 DIV PUSH1 0x24 DUP1 CALLDATALOAD SWAP2 SWAP1 SWAP2 SUB SWAP1 DUP3 ADD MSTORE PUSH1 0x20 DUP2 DUP1 PUSH1 0x44 DUP2 ADD SUB DUP2 PUSH1 0x0 PUSH32 0x0 PUSH1 0x1 PUSH1 0x1 PUSH1 0xA0 SHL SUB AND GAS CALL SWAP1 DUP2 ISZERO PUSH2 0x8D6 JUMPI PUSH1 0x0 SWAP2 PUSH2 0x129D JUMPI JUMPDEST POP ISZERO PUSH2 0x1258 JUMPI PUSH2 0x2710 DUP3 DIV PUSH2 0x1188 JUMPI JUMPDEST PUSH2 0xF43 PUSH1 0x7 SLOAD SWAP5 PUSH2 0xF0C DUP7 PUSH2 0x16FD JUMP JUMPDEST PUSH1 0x7 SSTORE PUSH1 0x40 MLOAD SWAP3 PUSH2 0xF1C DUP5 PUSH2 0x152A JUMP JUMPDEST CALLER DUP5 MSTORE PUSH1 0x1 PUSH1 0x1 PUSH1 0xA0 SHL SUB DUP7 AND PUSH1 0x20 DUP6 ADD MSTORE PUSH1 0x24 CALLDATALOAD PUSH1 0x40 DUP6 ADD MSTORE TIMESTAMP PUSH1 0x60 DUP6 ADD MSTORE CALLDATASIZE SWAP2 PUSH2 0x170C JUMP JUMPDEST PUSH1 0x80 DUP3 ADD MSTORE DUP4 PUSH1 0x0 MSTORE PUSH1 0x4 PUSH1 0x20 MSTORE PUSH1 0x80 PUSH1 0x4 PUSH1 0x40 PUSH1 0x0 KECCAK256 PUSH1 0x1 DUP1 PUSH1 0xA0 SHL SUB DUP5 MLOAD AND PUSH1 0x1 PUSH1 0x1 PUSH1 0x60 SHL SUB PUSH1 0xA0 SHL SWAP1 DUP2 DUP4 SLOAD AND OR DUP3 SSTORE PUSH1 0x1 DUP3 ADD SWAP1 PUSH1 0x1 DUP1 PUSH1 0xA0 SHL SUB PUSH1 0x20 DUP8 ADD MLOAD AND SWAP1 DUP3 SLOAD AND OR SWAP1 SSTORE PUSH1 0x40 DUP5 ADD MLOAD PUSH1 0x2 DUP3 ADD SSTORE PUSH1 0x60 DUP5 ADD MLOAD PUSH1 0x3 DUP3 ADD SSTORE ADD SWAP2 ADD MLOAD DUP1 MLOAD SWAP1 PUSH8 0xFFFFFFFFFFFFFFFF DUP3 GT PUSH2 0x71A JUMPI DUP2 SWAP1 PUSH2 0xFC6 DUP5 SLOAD PUSH2 0x14F0 JUMP JUMPDEST PUSH1 0x1F DUP2 GT PUSH2 0x1135 JUMPI JUMPDEST POP PUSH1 0x20 SWAP1 PUSH1 0x1F DUP4 GT PUSH1 0x1 EQ PUSH2 0x10CF JUMPI PUSH1 0x0 SWAP3 PUSH2 0x10C4 JUMPI JUMPDEST POP POP DUP2 PUSH1 0x1 SHL SWAP2 PUSH1 0x0 NOT SWAP1 PUSH1 0x3 SHL SHR NOT AND OR SWAP1 SSTORE JUMPDEST CALLER PUSH1 0x0 MSTORE PUSH1 0x5 PUSH1 0x20 MSTORE PUSH2 0x1012 DUP4 PUSH1 0x40 PUSH1 0x0 KECCAK256 PUSH2 0x1753 JUMP JUMPDEST PUSH1 0x1 DUP1 PUSH1 0xA0 SHL SUB DUP3 AND PUSH1 0x0 MSTORE PUSH1 0x6 PUSH1 0x20 MSTORE PUSH2 0x1031 DUP4 PUSH1 0x40 PUSH1 0x0 KECCAK256 PUSH2 0x1753 JUMP JUMPDEST PUSH1 0x1 DUP1 PUSH1 0xA0 SHL SUB DUP3 AND PUSH1 0x0 MSTORE PUSH1 0x3 PUSH1 0x20 MSTORE PUSH2 0x105D PUSH2 0x2710 PUSH1 0x2 PUSH1 0x40 PUSH1 0x0 KECCAK256 ADD SWAP3 DIV PUSH1 0x24 CALLDATALOAD SUB DUP3 SLOAD PUSH2 0x178D JUMP JUMPDEST SWAP1 SSTORE PUSH2 0x106A PUSH1 0x8 SLOAD PUSH2 0x16FD JUMP JUMPDEST PUSH1 0x8 SSTORE PUSH2 0x107B PUSH1 0x24 CALLDATALOAD PUSH1 0x9 SLOAD PUSH2 0x178D JUMP JUMPDEST PUSH1 0x9 SSTORE PUSH1 0x40 DUP1 MLOAD PUSH1 0x24 CALLDATALOAD DUP2 MSTORE TIMESTAMP PUSH1 0x20 DUP3 ADD MSTORE PUSH1 0x1 PUSH1 0x1 PUSH1 0xA0 SHL SUB SWAP1 SWAP3 AND SWAP2 CALLER SWAP2 PUSH32 0x72DD19D9BD6E3CDBE36ECAEFC0CDD05BAF431DF4FBB3957E3781184CE70E394B SWAP2 LOG4 PUSH1 0x1 DUP1 SSTORE STOP JUMPDEST ADD MLOAD SWAP1 POP DUP7 DUP1 PUSH2 0xFE6 JUMP JUMPDEST PUSH1 0x0 DUP6 DUP2 MSTORE PUSH1 0x20 DUP2 KECCAK256 SWAP4 POP PUSH1 0x1F NOT DUP6 AND SWAP1 JUMPDEST DUP2 DUP2 LT PUSH2 0x111D JUMPI POP SWAP1 DUP5 PUSH1 0x1 SWAP6 SWAP5 SWAP4 SWAP3 LT PUSH2 0x1104 JUMPI JUMPDEST POP POP POP DUP2 SHL ADD SWAP1 SSTORE PUSH2 0xFFB JUMP JUMPDEST ADD MLOAD PUSH1 0x0 NOT PUSH1 0xF8 DUP5 PUSH1 0x3 SHL AND SHR NOT AND SWAP1 SSTORE DUP7 DUP1 DUP1 PUSH2 0x10F7 JUMP JUMPDEST SWAP3 SWAP4 PUSH1 0x20 PUSH1 0x1 DUP2 SWAP3 DUP8 DUP7 ADD MLOAD DUP2 SSTORE ADD SWAP6 ADD SWAP4 ADD PUSH2 0x10E1 JUMP JUMPDEST SWAP1 SWAP2 POP DUP4 PUSH1 0x0 MSTORE PUSH1 0x20 PUSH1 0x0 KECCAK256 PUSH1 0x1F DUP5 ADD PUSH1 0x5 SHR DUP2 ADD SWAP2 PUSH1 0x20 DUP6 LT PUSH2 0x117E JUMPI JUMPDEST SWAP1 PUSH1 0x1F DUP6 SWAP5 SWAP4 SWAP3 ADD PUSH1 0x5 SHR ADD SWAP1 JUMPDEST DUP2 DUP2 LT PUSH2 0x116F JUMPI POP PUSH2 0xFCF JUMP JUMPDEST PUSH1 0x0 DUP2 SSTORE DUP5 SWAP4 POP PUSH1 0x1 ADD PUSH2 0x1162 JUMP JUMPDEST SWAP1 SWAP2 POP DUP2 SWAP1 PUSH2 0x1154 JUMP JUMPDEST PUSH1 0xB SLOAD PUSH1 0x40 MLOAD PUSH4 0xA9059CBB PUSH1 0xE0 SHL DUP2 MSTORE PUSH1 0x1 PUSH1 0x1 PUSH1 0xA0 SHL SUB SWAP1 SWAP2 AND PUSH1 0x4 DUP3 ADD MSTORE PUSH2 0x2710 DUP4 DIV PUSH1 0x24 DUP3 ADD MSTORE PUSH1 0x20 DUP2 DUP1 PUSH1 0x44 DUP2 ADD SUB DUP2 PUSH1 0x0 PUSH32 0x0 PUSH1 0x1 PUSH1 0x1 PUSH1 0xA0 SHL SUB AND GAS CALL SWAP1 DUP2 ISZERO PUSH2 0x8D6 JUMPI PUSH1 0x0 SWAP2 PUSH2 0x1239 JUMPI JUMPDEST POP PUSH2 0xEFC JUMPI PUSH1 0x40 MLOAD PUSH3 0x461BCD PUSH1 0xE5 SHL DUP2 MSTORE PUSH1 0x20 PUSH1 0x4 DUP3 ADD MSTORE PUSH1 0x13 PUSH1 0x24 DUP3 ADD MSTORE PUSH19 0x119959481D1C985B9CD9995C8819985A5B1959 PUSH1 0x6A SHL PUSH1 0x44 DUP3 ADD MSTORE PUSH1 0x64 SWAP1 REVERT JUMPDEST PUSH2 0x1252 SWAP2 POP PUSH1 0x20 RETURNDATASIZE PUSH1 0x20 GT PUSH2 0x8CF JUMPI PUSH2 0x8C5 DUP2 DUP4 PUSH2 0x1546 JUMP JUMPDEST DUP6 PUSH2 0x11F9 JUMP JUMPDEST PUSH1 0x40 MLOAD PUSH3 0x461BCD PUSH1 0xE5 SHL DUP2 MSTORE PUSH1 0x20 PUSH1 0x4 DUP3 ADD MSTORE PUSH1 0x1A PUSH1 0x24 DUP3 ADD MSTORE PUSH32 0x52657374617572616E74207472616E73666572206661696C6564000000000000 PUSH1 0x44 DUP3 ADD MSTORE PUSH1 0x64 SWAP1 REVERT JUMPDEST PUSH2 0x12B6 SWAP2 POP PUSH1 0x20 RETURNDATASIZE PUSH1 0x20 GT PUSH2 0x8CF JUMPI PUSH2 0x8C5 DUP2 DUP4 PUSH2 0x1546 JUMP JUMPDEST DUP6 PUSH2 0xEEC JUMP JUMPDEST PUSH1 0x40 MLOAD PUSH3 0x461BCD PUSH1 0xE5 SHL DUP2 MSTORE PUSH1 0x20 PUSH1 0x4 DUP3 ADD MSTORE PUSH1 0xF PUSH1 0x24 DUP3 ADD MSTORE PUSH15 0x151C985B9CD9995C8819985A5B1959 PUSH1 0x8A SHL PUSH1 0x44 DUP3 ADD MSTORE PUSH1 0x64 SWAP1 REVERT JUMPDEST PUSH2 0x130C SWAP2 POP PUSH1 0x20 RETURNDATASIZE PUSH1 0x20 GT PUSH2 0x8CF JUMPI PUSH2 0x8C5 DUP2 DUP4 PUSH2 0x1546 JUMP JUMPDEST DUP6 PUSH2 0xE72 JUMP JUMPDEST PUSH4 0x4E487B71 PUSH1 0xE0 SHL PUSH1 0x0 MSTORE PUSH1 0x11 PUSH1 0x4 MSTORE PUSH1 0x24 PUSH1 0x0 REVERT JUMPDEST PUSH1 0x40 MLOAD PUSH3 0x461BCD PUSH1 0xE5 SHL DUP2 MSTORE PUSH1 0x20 PUSH1 0x4 DUP3 ADD MSTORE PUSH1 0x15 PUSH1 0x24 DUP3 ADD MSTORE PUSH21 0x109A5B1B0819195D185A5B1CC81C995C5D5A5C9959 PUSH1 0x5A SHL PUSH1 0x44 DUP3 ADD MSTORE PUSH1 0x64 SWAP1 REVERT JUMPDEST PUSH1 0x40 MLOAD PUSH3 0x461BCD PUSH1 0xE5 SHL DUP2 MSTORE PUSH1 0x20 PUSH1 0x4 DUP3 ADD MSTORE PUSH1 0x1D PUSH1 0x24 DUP3 ADD MSTORE PUSH32 0x416D6F756E74206D7573742062652067726561746572207468616E2030000000 PUSH1 0x44 DUP3 ADD MSTORE PUSH1 0x64 SWAP1 REVERT JUMPDEST PUSH1 0x40 MLOAD PUSH3 0x461BCD PUSH1 0xE5 SHL DUP2 MSTORE PUSH1 0x20 PUSH1 0x4 DUP3 ADD MSTORE PUSH1 0x12 PUSH1 0x24 DUP3 ADD MSTORE PUSH18 0x125B9D985B1A59081C995CDD185D5C985B9D PUSH1 0x72 SHL PUSH1 0x44 DUP3 ADD MSTORE PUSH1 0x64 SWAP1 REVERT JUMPDEST PUSH1 0x40 MLOAD PUSH4 0x3EE5AEB5 PUSH1 0xE0 SHL DUP2 MSTORE PUSH1 0x4 SWAP1 REVERT JUMPDEST CALLVALUE PUSH2 0x1D9 JUMPI PUSH1 0x20 CALLDATASIZE PUSH1 0x3 NOT ADD SLT PUSH2 0x1D9 JUMPI PUSH2 0x145B PUSH1 0x1 PUSH1 0x1 PUSH1 0xA0 SHL SUB DUP1 PUSH2 0x141B PUSH2 0x14DA JUMP JUMPDEST AND PUSH1 0x0 MSTORE PUSH1 0x3 PUSH1 0x20 MSTORE PUSH1 0x40 PUSH1 0x0 KECCAK256 SWAP1 PUSH2 0x1433 DUP3 PUSH2 0x1568 JUMP JUMPDEST SWAP2 PUSH1 0x1 DUP2 ADD SLOAD SWAP1 PUSH1 0xFF PUSH1 0x3 PUSH1 0x2 DUP4 ADD SLOAD SWAP3 ADD SLOAD SWAP3 PUSH1 0x40 MLOAD SWAP7 DUP8 SWAP7 PUSH1 0xA0 DUP9 MSTORE PUSH1 0xA0 DUP9 ADD SWAP1 PUSH2 0x160D JUMP JUMPDEST SWAP5 DUP2 AND PUSH1 0x20 DUP8 ADD MSTORE PUSH1 0xA0 SHR AND ISZERO ISZERO PUSH1 0x40 DUP6 ADD MSTORE PUSH1 0x60 DUP5 ADD MSTORE PUSH1 0x80 DUP4 ADD MSTORE SUB SWAP1 RETURN JUMPDEST CALLVALUE PUSH2 0x1D9 JUMPI PUSH1 0x20 CALLDATASIZE PUSH1 0x3 NOT ADD SLT PUSH2 0x1D9 JUMPI PUSH1 0x4 CALLDATALOAD PUSH2 0x1498 PUSH2 0x179A JUMP JUMPDEST PUSH2 0x3E8 DUP2 GT PUSH2 0x14A6 JUMPI PUSH1 0xA SSTORE STOP JUMPDEST PUSH1 0x40 MLOAD PUSH3 0x461BCD PUSH1 0xE5 SHL DUP2 MSTORE PUSH1 0x20 PUSH1 0x4 DUP3 ADD MSTORE PUSH1 0xC PUSH1 0x24 DUP3 ADD MSTORE PUSH12 0x8CCACA40E8DEDE40D0D2CED PUSH1 0xA3 SHL PUSH1 0x44 DUP3 ADD MSTORE PUSH1 0x64 SWAP1 REVERT JUMPDEST PUSH1 0x4 CALLDATALOAD SWAP1 PUSH1 0x1 PUSH1 0x1 PUSH1 0xA0 SHL SUB DUP3 AND DUP3 SUB PUSH2 0x1D9 JUMPI JUMP JUMPDEST SWAP1 PUSH1 0x1 DUP3 DUP2 SHR SWAP3 AND DUP1 ISZERO PUSH2 0x1520 JUMPI JUMPDEST PUSH1 0x20 DUP4 LT EQ PUSH2 0x150A JUMPI JUMP JUMPDEST PUSH4 0x4E487B71 PUSH1 0xE0 SHL PUSH1 0x0 MSTORE PUSH1 0x22 PUSH1 0x4 MSTORE PUSH1 0x24 PUSH1 0x0 REVERT JUMPDEST SWAP2 PUSH1 0x7F AND SWAP2 PUSH2 0x14FF JUMP JUMPDEST PUSH1 0xA0 DUP2 ADD SWAP1 DUP2 LT PUSH8 0xFFFFFFFFFFFFFFFF DUP3 GT OR PUSH2 0x71A JUMPI PUSH1 0x40 MSTORE JUMP JUMPDEST SWAP1 PUSH1 0x1F DUP1 NOT SWAP2 ADD AND DUP2 ADD SWAP1 DUP2 LT PUSH8 0xFFFFFFFFFFFFFFFF DUP3 GT OR PUSH2 0x71A JUMPI PUSH1 0x40 MSTORE JUMP JUMPDEST SWAP1 PUSH1 0x40 MLOAD SWAP2 DUP3 PUSH1 0x0 DUP3 SLOAD PUSH2 0x157B DUP2 PUSH2 0x14F0 JUMP JUMPDEST SWAP1 DUP2 DUP5 MSTORE PUSH1 0x20 SWAP5 PUSH1 0x1 SWAP2 PUSH1 0x1 DUP2 AND SWAP1 DUP2 PUSH1 0x0 EQ PUSH2 0x15EB JUMPI POP PUSH1 0x1 EQ PUSH2 0x15AC JUMPI JUMPDEST POP POP POP PUSH2 0x15AA SWAP3 POP SUB DUP4 PUSH2 0x1546 JUMP JUMPDEST JUMP JUMPDEST PUSH1 0x0 SWAP1 DUP2 MSTORE DUP6 DUP2 KECCAK256 SWAP6 SWAP4 POP SWAP2 SWAP1 JUMPDEST DUP2 DUP4 LT PUSH2 0x15D3 JUMPI POP POP PUSH2 0x15AA SWAP4 POP DUP3 ADD ADD CODESIZE DUP1 DUP1 PUSH2 0x159B JUMP JUMPDEST DUP6 SLOAD DUP9 DUP5 ADD DUP6 ADD MSTORE SWAP5 DUP6 ADD SWAP5 DUP8 SWAP5 POP SWAP2 DUP4 ADD SWAP2 PUSH2 0x15BA JUMP JUMPDEST SWAP3 POP POP POP PUSH2 0x15AA SWAP5 SWAP3 POP PUSH1 0xFF NOT AND DUP3 DUP5 ADD MSTORE ISZERO ISZERO PUSH1 0x5 SHL DUP3 ADD ADD CODESIZE DUP1 DUP1 PUSH2 0x159B JUMP JUMPDEST SWAP2 SWAP1 DUP3 MLOAD SWAP3 DUP4 DUP3 MSTORE PUSH1 0x0 JUMPDEST DUP5 DUP2 LT PUSH2 0x1639 JUMPI POP POP DUP3 PUSH1 0x0 PUSH1 0x20 DUP1 SWAP5 SWAP6 DUP5 ADD ADD MSTORE PUSH1 0x1F DUP1 NOT SWAP2 ADD AND ADD ADD SWAP1 JUMP JUMPDEST PUSH1 0x20 DUP2 DUP4 ADD DUP2 ADD MLOAD DUP5 DUP4 ADD DUP3 ADD MSTORE ADD PUSH2 0x1618 JUMP JUMPDEST SWAP2 DUP2 PUSH1 0x1F DUP5 ADD SLT ISZERO PUSH2 0x1D9 JUMPI DUP3 CALLDATALOAD SWAP2 PUSH8 0xFFFFFFFFFFFFFFFF DUP4 GT PUSH2 0x1D9 JUMPI PUSH1 0x20 DUP4 DUP2 DUP7 ADD SWAP6 ADD ADD GT PUSH2 0x1D9 JUMPI JUMP JUMPDEST PUSH1 0x20 SWAP1 PUSH1 0x20 PUSH1 0x40 DUP2 DUP4 ADD SWAP3 DUP3 DUP2 MSTORE DUP6 MLOAD DUP1 SWAP5 MSTORE ADD SWAP4 ADD SWAP2 PUSH1 0x0 JUMPDEST DUP3 DUP2 LT PUSH2 0x16A3 JUMPI POP POP POP POP SWAP1 JUMP JUMPDEST DUP4 MLOAD DUP6 MSTORE SWAP4 DUP2 ADD SWAP4 SWAP3 DUP2 ADD SWAP3 PUSH1 0x1 ADD PUSH2 0x1695 JUMP JUMPDEST DUP1 SLOAD DUP3 LT ISZERO PUSH2 0x16CF JUMPI PUSH1 0x0 MSTORE PUSH1 0x20 PUSH1 0x0 KECCAK256 ADD SWAP1 PUSH1 0x0 SWAP1 JUMP JUMPDEST PUSH4 0x4E487B71 PUSH1 0xE0 SHL PUSH1 0x0 MSTORE PUSH1 0x32 PUSH1 0x4 MSTORE PUSH1 0x24 PUSH1 0x0 REVERT JUMPDEST SWAP1 DUP2 PUSH1 0x20 SWAP2 SUB SLT PUSH2 0x1D9 JUMPI MLOAD DUP1 ISZERO ISZERO DUP2 SUB PUSH2 0x1D9 JUMPI SWAP1 JUMP JUMPDEST PUSH1 0x0 NOT DUP2 EQ PUSH2 0x1312 JUMPI PUSH1 0x1 ADD SWAP1 JUMP JUMPDEST SWAP3 SWAP2 SWAP3 PUSH8 0xFFFFFFFFFFFFFFFF DUP3 GT PUSH2 0x71A JUMPI PUSH1 0x40 MLOAD SWAP2 PUSH2 0x1736 PUSH1 0x1F DUP3 ADD PUSH1 0x1F NOT AND PUSH1 0x20 ADD DUP5 PUSH2 0x1546 JUMP JUMPDEST DUP3 SWAP5 DUP2 DUP5 MSTORE DUP2 DUP4 ADD GT PUSH2 0x1D9 JUMPI DUP3 DUP2 PUSH1 0x20 SWAP4 DUP5 PUSH1 0x0 SWAP7 ADD CALLDATACOPY ADD ADD MSTORE JUMP JUMPDEST DUP1 SLOAD PUSH9 0x10000000000000000 DUP2 LT ISZERO PUSH2 0x71A JUMPI PUSH2 0x1775 SWAP2 PUSH1 0x1 DUP3 ADD DUP2 SSTORE PUSH2 0x16B7 JUMP JUMPDEST DUP2 SWAP3 SWAP2 SLOAD SWAP1 PUSH1 0x3 SHL SWAP2 DUP3 SHL SWAP2 PUSH1 0x0 NOT SWAP1 SHL NOT AND OR SWAP1 SSTORE JUMP JUMPDEST SWAP2 SWAP1 DUP3 ADD DUP1 SWAP3 GT PUSH2 0x1312 JUMPI JUMP JUMPDEST PUSH1 0x0 SLOAD PUSH1 0x1 PUSH1 0x1 PUSH1 0xA0 SHL SUB AND CALLER SUB PUSH2 0x17AE JUMPI JUMP JUMPDEST PUSH1 0x40 MLOAD PUSH4 0x118CDAA7 PUSH1 0xE0 SHL DUP2 MSTORE CALLER PUSH1 0x4 DUP3 ADD MSTORE PUSH1 0x24 SWAP1 REVERT JUMPDEST PUSH1 0xFF PUSH1 0x2 SLOAD AND PUSH2 0x17D2 JUMPI JUMP JUMPDEST PUSH1 0x40 MLOAD PUSH4 0xD93C0665 PUSH1 0xE0 SHL DUP2 MSTORE PUSH1 0x4 SWAP1 REVERT INVALID LOG2 PUSH5 0x6970667358 0x22 SLT KECCAK256 0x1E CALLDATASIZE DUP6 0xD6 ADDMOD 0x2F RETURNDATASIZE 0xD1 DUP16 0x2B SWAP3 SWAP10 0xCF MLOAD 0xC1 GASPRICE 0xDF MCOPY 0xCA PUSH1 0x29 EQ ADDMOD BLOBBASEFEE SWAP1 0xF8 SWAP12 0xD SAR LT 0xDF 0xD PUSH5 0x736F6C6343 STOP ADDMOD XOR STOP CALLER "},"methodIdentifiers":{"MAX_PLATFORM_FEE()":"3998a681","customerPayments(address,uint256)":"d2fe0916","deactivateRestaurant(address)":"ac9f56eb","emergencyWithdraw(address,uint256)":"95ccea67","feeRecipient()":"46904840","getCustomerPayments(address)":"c491b7b6","getPayment(uint256)":"3280a836","getRestaurant(address)":"dff4a5e8","getRestaurantPayments(address)":"51f5005e","getStats()":"c59d4847","nextBillId()":"5fcf6e19","owner()":"8da5cb5b","pause()":"8456cb59","paused()":"5c975abb","payments(uint256)":"87d81789","platformFee()":"26232a2e","processPayment(address,uint256,string)":"250cbca3","pyusdToken()":"91763009","registerRestaurant(address,string)":"ade49fcb","renounceOwnership()":"715018a6","restaurantPayments(address,uint256)":"85099491","restaurants(address)":"236cd7dc","setFeeRecipient(address)":"e74b981b","setPlatformFee(uint256)":"12e8e2c3","totalPaymentsProcessed()":"37e32d1d","totalVolumeProcessed()":"2718c14f","transferOwnership(address)":"f2fde38b","unpause()":"3f4ba83a"}}}}}