{
  "_format": "hh-sol-artifact-1",
  "contractName": "MockPaymentProcessor",
  "sourceName": "contracts/test/MockPaymentProcessor.sol",
  "abi": [
    {
      "inputs": [
        {
          "internalType": "address",
          "name": "_reviewNFT",
          "type": "address"
        },
        {
          "internalType": "address",
          "name": "_reviewer",
          "type": "address"
        },
        {
          "internalType": "address",
          "name": "_restaurant",
          "type": "address"
        },
        {
          "internalType": "uint256",
          "name": "_billId",
          "type": "uint256"
        },
        {
          "internalType": "uint8",
          "name": "_rating",
          "type": "uint8"
        },
        {
          "internalType": "string",
          "name": "_reviewText",
          "type": "string"
        },
        {
          "internalType": "string",
          "name": "_restaurantName",
          "type": "string"
        }
      ],
      "name": "createReview",
      "outputs": [
        {
          "internalType": "uint256",
          "name": "",
          "type": "uint256"
        }
      ],
      "stateMutability": "nonpayable",
      "type": "function"
    }
  ],
  "bytecode": "0x608080604052346100165761023b908161001c8239f35b600080fdfe60808060405260048036101561001457600080fd5b600091823560e01c637823c94e1461002b57600080fd5b3461019d576003199160e0368401126101ad576001600160a01b038135818116908190036101a957602435908282168092036101a5576044359283168093036101a5576084359560ff87168097036101a1578760a4359767ffffffffffffffff9889811161019d576100a090369089016101b1565b91909360c435968b881161019957896101008c99978a989661010f9660209d6100cd8c9a369088016101b1565b97909663306cbb2b60e21b8c528b015260248a015260643560448a0152606489015260c0608489015260c48801916101e4565b928584030160a48601526101e4565b03925af192831561018e57849361012c575b602084604051908152f35b909192506020913d602011610186575b601f8301601f1916840191821184831017610173575060209183916040528101031261016f576020915051388080610121565b5080fd5b634e487b7160e01b855260419052602484fd5b3d925061013c565b6040513d86823e3d90fd5b8480fd5b8280fd5b8780fd5b8680fd5b8580fd5b8380fd5b9181601f840112156101df5782359167ffffffffffffffff83116101df57602083818601950101116101df57565b600080fd5b908060209392818452848401376000828201840152601f01601f191601019056fea26469706673582212203dfcea063573853b9db3d1a4417609d4e5d5e454e552f8eb148d090c1f92029764736f6c63430008180033",
  "linkReferences": {},
  "deployedLinkReferences": {}
}